:020000040000FA
:104000006F85FFFF0100007C42424242FFFFFFFF3D
:10401000FFFFFFFFFFFFFFFFFFFFFFFFFFFFFFFFB0
:10402000000102030405060708090A0BFFFFFFFF52
:1040300002448F025235FFFFFFFFFFFFFFFFFFFF2C
:10404000FFFFFFFFFFFFFFFFFFFFFFFFFFFFFFFF80
:10405000FFFFFFFFFFFFFFFFFFFFFF025930FFFFE2
:10406000FFFFFFFFFFFFFFFFFFFFFFFFFFFFFFFF60
:10407000FFFFFFFFFFFFFFFFFFFFFFFFFFFFFFFF50
:10408000FFFFFF0252ABFFFFFFFFFFFFFFFFFFFF3E
:10409000FFFFFFFFFFFFFFFFFFFFFFFFFFFFFFFF30
:1040A000FFFFFFFFFFFFFFFFFFFFFFFFFFFFFFFF20
:1040B000FFFFFF02508B01FF0000B4000028002822
:1040C00000283075A000A000A000A0000008000893
:1040D000E001F000100010001000100010001000AF
:1040E00050005000500010001000D00700000000E9
:1040F00000000F00010005003075070010000100EE
:1041000081FF00000000FFFFFF815B9F5B875BC3B7
:104110005BFF02020208025000A0000000E8030258
:1041200047820100003982024382010000721502B9
:104130005182010000BE0202438201000073150299
:104140004F82010000D40202438201000074150274
:104150004D82010000D60202438201000075150263
:104160004582080000D70202438201000076150252
:104170003F820100007715FF0100FF200247820106
:1041800000003682024382010000DB1502418200FA
:1041900000000000025F82030000050317002F6289
:1041A0002F622F622F622F622F622F622F622F6287
:1041B0002F622F622F622F62ED64FF64E7640202B8
:1041C00002020202020202010D0000001001024779
:1041D0008201000033820243820100001E16026742
:1041E000820100003F070243820100001F160265A2
:1041F0008201000052810243820100002016026306
:10420000820100002981024382010000211602611F
:1042100082010000D7800243820100002216025D65
:1042200082010000A1800243820100002316025B8C
:1042300082010000B380024382010000241602596B
:1042400082010000C580024382010000251602574A
:1042500082010000378102438201000026160255C8
:1042600082010000271601E8030577100A1C0247A7
:10427000820100003C82024382010000CD16103012
:10428000800200002E08025F8203000030080277DF
:10429000820100004581024382010000CD161040DA
:1042A000800200002F08025F8203000032080277BC
:1042B000820100005F81FFFFFFFF000130750302F4
:1042C00001060000000000000000000000000000E7
:1042D0000000000000000000000000000000FFFFE0
:1042E0000600800CE803070942545F41444305126D
:1042F00050002003020A000201060302F0FF424CB4
:104300004520414443205065726970686572616C54
:10431000000000376900003D690A4368617261630B
:104320007465726973746963203100024368617255
:10433000616374657269737469632032000843684D
:10434000617261637465726973746963203300100C
:104350004368617261637465726973746963203460
:1043600000024368617261637465726973746963A2
:10437000203500024782010000698102438201006A
:10438000007917026D820300000C1502778201008C
:10439000007A170243820100008B17026F8201002E
:1043A000000D150277820100008C17024382010084
:1043B000009D170271820200000E15027782010033
:1043C000009E17024382010000AF170273820000B3
:1043D000000F15025F8203000010150277820100B2
:1043E00000B017024382010000C117027582040069
:1043F000001215027782010000C217E5C754F84485
:1044000004F5C779012200000080FB1243FBB900CC
:1044100003024479E479217808B800028004F7099E
:10442000D8FCE479297802B800028004F709D8FCA6
:10443000E4900280789879138002F0A3D8FCD9FA2E
:10444000781C9040B67A01BA00028007E493A3F684
:1044500008DAF97A177B159040B77845790480150A
:10446000E493A3AD82AE838A828B83F0A3AA82AB4E
:10447000838D828E83D8E9D9E775826C7583EC745D
:10448000031244A175820675834474001244A17519
:10449000D00075813F751A80751B02759F0002441C
:1044A0000BC09FF59FE473D09F22D083D082C09F22
:1044B000E493C0E0740193C0E0740293F59F22E09E
:1044C00066701008A3E066700A08A3E0667004082E
:1044D000A3E06622C3E7960809E7960809E796086D
:1044E00009E79622C3E09608A3E09608A3E09608A1
:1044F000A3E09622C00AC3E096F50A08A3E096421C
:104500000A08A3E096420A08A3E096450A7001D380
:10451000D00A22080808EAC0E0EBC0E086F0E7A471
:10452000FA180986F0E7A42AFA180986F0E7A42AFF
:10453000FA180986F0E7A42AFA1986F0E7A4FBE541
:10454000F02AFA190886F0E7A42BFBE5F03AFA19ED
:104550000886F0E7A42BFBE5F03AFA18180986F074
:10456000E7A4C5F02BFBE43AFA1908E7C5F0C6A4A6
:1045700026F6E5F03BFBE43AFA1886F0E7A4F6E508
:10458000F00826F6E43B08F6E43A08F6D0E0FBD063
:10459000E0FA22E4CFC0E0E4CEC0E0E4CDC0E0E445
:1045A000CCC0E075F020E626F608E633F608E633E0
:1045B000F608E633F6181818EC33FCED33FDEE334D
:1045C000FEEF33FFC3EC9709ED9709EE9709EF97DC
:1045D000191919400FFFEC97FC09ED97FD09EE97AB
:1045E000FE191906D5F0BFECF709EDF709EEF7094A
:1045F000EFF7191919D0E0FCD0E0FDD0E0FED0E0D3
:10460000FF226016080808C6C313C618C613C618CA
:10461000C613C618C613C6D5E0EA227009080808F2
:10462000226016181818C6C333C608C633C608C693
:1046300033C608C633C6D5E0EA22E627F60809E6FF
:1046400037F60809E637F60809E637F622E026F6D7
:1046500008A3E036F608A3E036F608A3E036F62213
:10466000E026F008A3E036F008A3E036F008A3E067
:1046700036F022C3E697F60809E697F60809E697AA
:10468000F60809E697F622C3E096F008A3E096F054
:1046900008A3E096F008A3E096F022E056F608A3FF
:1046A000E056F608A3E056F608A3E056F622E056D8
:1046B000F008A3E056F008A3E056F008A3E056F097
:1046C00022E0F608A3E0F608A3E0F608A3E0F6224D
:1046D000E6F008A3E6F008A3E6F008A3E6F022E07F
:1046E000FAA3E0FBA3E0FCA3E0FD22E0F8A3E0F9DD
:1046F000A3E0FAA3E0FB22E8F0A3E9F0A3EAF0A329
:10470000EBF022CAC0E0E6F0A308DAFAD0E0FA2221
:10471000CAC0E0E0A3C582CCC582C583CDC583F005
:10472000A3C582CCC582C583CDC583DAE6D0E0CAF5
:1047300022C3E498F8E499F91247728026C3E49AF8
:10474000FAE49BFBE920E7E9124772E498F8E49960
:10475000F922C3E498F8E499F9124772E498F8E46E
:1047600099F9C3E49AFAE49BFB22EB20E7CFE92016
:10477000E7E0B90010BB0008E88AF084F8AAF0224C
:10478000E4FBC8FA22EB70227B10C833C8C933C9D6
:10479000335007C39AC3DBF280069A50012ADBEA42
:1047A000C833F4C8C933F4C9FA2275F008E4C83331
:1047B000C8C933C933C99AC99B5004C92AC93BD552
:1047C000F0ECFBC833F4C8E4C9FA22600D08C6A2B5
:1047D000E713C618C613C6D5E0F322600C08C6C39B
:1047E00013C618C613C6D5E0F422700422600D1853
:1047F000C6C333C608C633C6D5E0F41822251A103E
:10480000AF08F51A400C151B8008F51A4002151B5D
:10481000D2AF2200C0D0251A10AF08F51A500C05EF
:104820001B8008F51A5002051BD2AFD0D022251AE2
:10483000F58210AF08F51A400C151B8008F51A40D8
:1048400002151BD2AF851B8322251AF582E4351B86
:10485000F58322251AF8E4351BF922251AFAE435E6
:104860001BFB22251AFCE4351BFD22E473251AC527
:1048700082C0E0E51B34FFC583C0E0E51AC3958222
:1048800024F810AF0885831B85821A800885831B56
:1048900085821AD2AFCEF0A3E520F0A3780AE6080D
:1048A000F0A3DEFAEFF0A3E58124FAF8E608F0A31E
:1048B000E608F0A3E608F0A30808E608F0A3E60877
:1048C000F0A315811581D0E0FED0E0F815811581A7
:1048D0001581E8C0E0EEC0E022251AC582C0E0E5FF
:1048E0001B34FFC583C0E0E51AC3958224F910AFDD
:1048F0000885831B85821A800885831B85821AD2CE
:10490000AFCEF0A3E520F0A3780AE608F0A3DEFA24
:10491000EFF0A3E58124FBF8E608F0A3E608F0A396
:104920000808E608F0A3E608F0A315811581D0E099
:10493000FED0E0F815811581E8C0E0EEC0E02285E8
:104940001B83851A82E0A3FEE0A3F520780AE0A38A
:10495000F608DFFAE0A3FFE0A3C0E0E0A3C0E0E0D8
:10496000A3C0E0E0A3C0E0E0A3C0E010AF088582F0
:104970001A85831B800885821A85831BD2AFD0835A
:10498000D0820244A7851B83851A82E0A3FEE0A3A0
:10499000F520780AE0A3F608DFFAE0A3FFE0A3C061
:1049A000E0E0A3C0E0E0A3C0E0E0A3C0E010AF08F7
:1049B00085821A85831B800885821A85831BD2AF66
:1049C000D083D08222C0D0251AC582C0E0E51B3436
:1049D000FFC583C0E0E51AC3958224F310AF0885B4
:1049E000831B85821A800885831B85821AD2AFC8F3
:1049F000F0A3E9F0A3EAF0A3EBF0A3790AE709F04A
:104A0000A3D8FAECF0A3EDF0A3EEF0A3EFF0A3D05F
:104A1000E0F0A3D0E0F0A3D0E0F0A3E520F0A3E520
:104A2000F0F0A322851B83851A82E0C0E0A3E0F9A1
:104A3000A3E0FAA3E0FBA3780AE0F608A3DFFAE01C
:104A4000FCA3E0FDA3E0FEA3E0FFA3E0C0E0A3E041
:104A5000C0E0A3E0F5D0A3E0F520A3E0A3F5F010BB
:104A6000AF0885831B85821A800885831B85821A7F
:104A7000D2AFD082D083D0E0F8D0E0327404800688
:104A8000740280027401C0E0F40412482ED0E012D7
:104A90004703227404800474028000CCC0E0EDC09F
:104AA000E0E51AC39CCCAD1B50011D10AF068C1A5B
:104AB0008D1B80068C1A8D1BD2AF124710D0E0FDE3
:104AC000D0E0FC22D083D082E9C0E0E493A3C38687
:104AD000F0C5F095F0F908E493A386F0C5F095F0E1
:104AE000700BE493A3C3994005E9048002A3E47525
:104AF000F002A42582F582E5F03583F583D0E0F954
:104B0000E493A3C0E0E493C0E022D083D082ECC061
:104B1000E0EDC0E0E493A3FCE493A3FDED4C600D55
:104B2000124B56EC24FFFCED34FFFD80EFE493A321
:104B3000FCE493A3FDED4C600D124B95EC24FFFCBF
:104B4000ED34FFFD80EFD0E0FDD0E0FCE493A3C0A6
:104B5000E0E493C0E022C0E0C3E4939608740193BC
:104B60009618400FE49366700808740193661870F5
:104B7000007019A3A3C3E49396087401939618A335
:104B8000A3400DD0E0D0E0D0E0024B46A3A3A3A306
:104B9000A3A3D0E022C0E0C0F088F0E493667008E0
:104BA0000874019366187000A8F0A3A3700BD0F0EE
:104BB000D0E0D0E0D0E0024B46A3A3D0F0D0E0227A
:104BC00074F61248D9EAFEEBFF8C0A8D0BEE243402
:104BD000F8E43FF9E8FCE9FDEE2435124ED3FAEE95
:104BE0002437124ED3F8850AF0A4C885F00C850B43
:104BF000F0A4250CF9EA28F8E439F97A257B0012AB
:104C00004772EA8C828D83F0FA131313541FF8EE67
:104C100028F8E43FF9E8245DF582E439F583E0C043
:104C2000E074075AF8D0E0B800028004C313D8FC3F
:104C3000A2E0EE50082434F582E43F8018243612B6
:104C40004ED3F5F0EA84A8F0EE28F8E43FF9E82422
:104C500038F582E439F583E0F97F0302498574F77A
:104C60001248D9EAFEEBFFEE2434124ED3C0E0EE38
:104C70002435F582E43FF583D0E0F08E828F83A364
:104C8000A3A3A3A3A3A3C082C0838E828F83A3A365
:104C9000A3A3A3E0F8A3E0F9D083D082E0C398F502
:104CA0000AA3E099F50BEE247F124ED36401703E07
:104CB000EE2480F582E43FF583C082C0838E828F2C
:104CC00083A3A3A3A3A3E0240108A3E03400F9D0A5
:104CD00083D082E0687003A3E06970127CB07D0429
:104CE00012616FEE247FF582E43FF583E4F0AC0AB5
:104CF000AD0BEEFAEFFB124BC0E9F91259227F021D
:104D0000024985C082C083851A82851B83E0F8A38F
:104D1000E0F9C3EA9CEB9D5010C3EC98ED99401B61
:104D2000C3EA98EB995014800EC3EA98EB994007B8
:104D3000C3EC98ED994004790180027900D083D0CA
:104D40008222EAC39CFAEB9DFB2274EF1248D990B1
:104D50000375E064086005E06407702A9061C8E0AC
:104D600060249003A3E0F4601DE0F875F00BA4C884
:104D7000AAF02AF974A528FE740339FF8E828F8366
:104D8000A3A3A3E07003024E58906060E0C0E0EE81
:104D90002468F582E43FF583D0E0F0750E20750FAE
:104DA00005750A00750B00E5D914F50CE5D9540317
:104DB000F5106012740365106043E50C600AEE2480
:104DC00067124ED37002807590051BE06401601F6E
:104DD000124ED060047A0480027A00E50CC39AFA7D
:104DE00095E0FB1260198A0A8B0BEA450B700512DD
:104DF00063B58064124ED070048A0E8B0FE50C6090
:104E000012850E82850F83F50DE5D9F0A3150DE50A
:104E10000D70F6124ED0604474FC250CF50C780E23
:104E2000124A80AC0CA910EEFAEFFB126229740250
:104E3000124813E97026AA0AAB0B1267ED793D8E72
:104E4000828F83A3A3A3A3E0FA7B00125E7BEEFA1A
:104E5000EFFB12619312623B7900806F740365105F
:104E60006051850C127513007812124A80AC0EAD99
:104E70000FAA0AAB0B1261ED7402124813EE2468FC
:104E8000124ED364807004747F8001E0F50E780EBA
:104E9000124A84E510F50E780E124A84A90CAC0A69
:104EA000AD0B9003A3E0FA7B00125E51740212482E
:104EB000138013900375E06408600BAC0EAD0FEE29
:104EC000FAEFFB1262B31263C179017F0A024985CE
:104ED000EE2483F582E43FF583E02274F21248D990
:104EE00074FC1247FDEAFEEBFF890BA2AFE433F539
:104EF0000AC2AF024FA5E0601B780E124A80AC0DCB
:104F0000A910EEFAEFFB1262237402124813740424
:104F1000250DF50D7401250DF5D98510D9E50D6028
:104F200018F50C850E82850F83E0F5D9A385820ED6
:104F300085830F150CE50C70EA75E195EE2463F896
:104F4000E43FF97A007B00A2AFE433F50DC2AF88ED
:104F5000828983E0FCA3E0FDEC4D603A888289837E
:104F6000E0FAA3E0FB8A828B83E0FCA3E0FD888269
:104F70008983ECF0A3EDF08A828B83E4F0A3F088C0
:104F8000828983E0FCA3E0FDEC4D700A888289836E
:104F9000A3A3E4F0A3F0E50DA2E092AF1267ED90B9
:104FA00004B7E004F0EE2463124ED3F8A3E0F9E86E
:104FB000496064EE2463124ED32402F8A3E0340067
:104FC000F988828983E5822402F50EE43583F50FA2
:104FD000E0F50DA3E0F510EE2462124ED3640170EB
:104FE000369061D0E0F8124ED060047C0480027CE0
:104FF000007480C398FA95E0FBE50D2CF8E43400CA
:10500000F9E82402F8500109C3EA98EB99A2D265A5
:10501000D0334003024EF69004B7E0604D9004B8E0
:10502000E0F89004B7E0C398500C7402650B703A36
:105030009004B9E060348E828F83A3A3A3A3E0859C
:105040001A82851B8312507A7402124849E8125062
:105050007A9004B6E028F07402124863AA1AAB1BD7
:105060007901125EA59004B7E4F0E50AA2E092AFE0
:1050700074041248137F07024985F0A3E4F09004FA
:10508000B7E0F8228521878522C622C0E074EB12A2
:1050900049C5A2AFE433F50AC2AF759B00906182A7
:1050A000E0A2E05030E591A2E0502A7591FE740133
:1050B0006521702112521E12630112520C124A9382
:1050C0001256CC7404124813E96401700579011278
:1050D0006349124D4A906182E0A2E5505DE591A2DC
:1050E000E550577591DF900375E064076005E06453
:1050F00008702F12521E74016521703E1263011256
:10510000520C124A931256CC7404124813E96401EB
:10511000700579011263497901EEFAEFFB124EDB5B
:105120008018E0640D7013900397E004F064287019
:1051300002E4F07A00E0F91263C7906182E0A2E62F
:1051400040030251E1E591A2E640030251E175916D
:10515000BF900375E0640570081262E91262F58081
:10516000031262EF752100126355E9900376F0791E
:10517000001263491260DF7A017B00900374E0F94A
:105180001267BD907803E06442705690051FE014EA
:10519000F0704EC2AF12519800782AD0E0F618D0C5
:1051A000E0F6E59F5407F87005750FFF8003750F53
:1051B0007FC4C0E07829E6F50C08E6550FF50D74BC
:1051C0000B780C1247DBD0E0250CF8906270E0A25F
:1051D000E740F8E8C333906272F0906270E0D2E08A
:1051E000F0906181E0A2E35009E5E9A2E350037584
:1051F000E9F7A3E0A2E75009E591A2E75003759112
:105200007FE50AA2E092AF7F08024A248E828F8354
:10521000E0F8A3E0C82416F582E438F58322900371
:10522000A3E0F875F00BA4C8AAF02AF974A528FE2B
:10523000740339FF22C0E0C0D0C082C08390618374
:10524000E0A2E05009E5BFA2E0500375BFFEE0A276
:10525000E15009E5BFA2E1500375BFFDE0A2E250B5
:1052600009E5BFA2E2500375BFFBE0A2E35009E5E8
:10527000BFA2E3500375BFF7E0A2E45009E5BFA267
:10528000E4500375BFEFE0A2E55009E5BFA2E55089
:105290000375BFDFE0A2E65009E5BFA2E650037543
:1052A000BFBFD083D082D0D0D0E032C0E074F21241
:1052B00049C5E5A7A2E6500FE5A1A2E6500953A70C
:1052C000BF75A1BF1252FFE5A7A2E5500CE5A1A250
:1052D000E5500653A7DF75A1DFE5A7A2E15009E578
:1052E000A1A2E1500375A1FDE5A7A2E2500CE5A142
:1052F000A2E2500653A7FB75A1FB7F01024A24746A
:10530000F71248D9752101900375E06406701512F3
:10531000625F8A828B83A3A3A3A3A3A3E0FAA3E083
:10532000FB1262D7A2AFE433FED2AF90037BE064FE
:105330000170187A207B00900374E0F91268D77A24
:10534000207B00900374E0F91267C3906182E0D281
:10535000E6F090051CE0602185C622801690037A55
:10536000E064017008E5C654F84405F5C653BEFC78
:105370001250847401652160E4EEA2E092AF7F02D6
:10538000024985FF8E238F24858228858327851AED
:1053900082851B83E0CEA3E0CF852882852783EB1F
:1053A000C9EAC8EDCBECCA75F010C3E833C8E933DD
:1053B000C9EA33CAEB33CBC3EA9EF526EB9FF5254A
:1053C000B35004AB25AA26EC33CCED33CDD5F0DABF
:1053D000AE23AF242274E91248D974FA1247FDEAC9
:1053E000FEEBFF8C0C8D0D12630DEAF8EBF9ECFA75
:1053F000EDFB8E828F831246F7900375E024F7C38E
:105400009405500675160102553C12625F8A0A8B9C
:105410000BEA450B7003025539EEFCEFFDAA1AABFF
:105420001B126307850A82850B83A3A3780E12469D
:10543000C19081B3780E12469B851A82851B8378B2
:10544000121246C19081B3781212469B780E7912DF
:105450001244D4501F780E79121246739081A378AB
:105460000E1244F44047850E16850F1785101885D7
:10547000111980459081A38512168513178514187C
:105480008515197816790E12467378161244F45061
:105490001C751600751700751800751901781679B6
:1054A000121246737816790E12463A800C75160160
:1054B0007517007518007519007409781612461BC7
:1054C0009081A7780E1246C17816790E1245938501
:1054D0000A82850B83A3A3A3A3A3A312555A124741
:1054E00072880E890FE4F510F5117816790E1246C0
:1054F0003A740412484912555A124772E8FA8A0E51
:10550000E4F50F7816790E1244D450077816790E08
:10551000124673900375E06408600AE06406600553
:10552000E0640570209081AB78161244F450169018
:1055300081AF781612464D800C75160075170075F0
:105540001800751900850C82850D8378161246D0D7
:1055500074061248137F10024985E0F8A3E0F97A37
:10556000D07B032274F71248D912631F90051AE00A
:1055700064017010906245E4F0A3F053F4F343FE2D
:105580000C5390F31262C5E5C654B84441F5C6E524
:105590009E5447644170F8906185740FF09005182F
:1055A000E0F47002A3E0604E900519E0600814601A
:1055B0001B14602E8040750A01750B00900518E0E1
:1055C000780A1247EAE50AF45280802A750A0175C2
:1055D0000B00900518E0780A1247EAE50AF45290A9
:1055E0008014750A01750B00900518E0780A1247BF
:1055F000EAE50AF452A079007F0202498574F712A5
:1056000048D9E9FEEAFF12631F74016E700C7A80BC
:105610007B00900374E0F91267BD906980E493F415
:105620006008E493F91260D3800953C6B8E59E542C
:105630004770FA1262CB90051AE0640170031260A1
:10564000F1900518E0F47002A3E0604B900519E0BA
:10565000600814601A14602C803D750A01750B00F7
:10566000900518E0780A1247EAE50A42808028751A
:105670000A01750B00900518E0780A1247EAE50A5E
:1056800042908013750A01750B00900518E0780AA6
:105690001247EAE50A42A012625F8A0A8B0BA80A47
:1056A000A90BE8496014E5E170FCE82414F582E4F4
:1056B00039F583E0F46003E0F5E174016F700A7A74
:1056C00001900374E0F91268470255F874F112482A
:1056D000D98A0A8B0B8C0C8D0D9081B3780A1246F7
:1056E0009B740F124849780E1246C19081B3780E10
:1056F00012469B780A790E1244D49081A3501078F8
:105700000A790E124673780A1244F44014800E7817
:105710000E790A124673780E1244F450047901800F
:105720000279007F0802498574ED1248D98A0A8BF4
:105730000B8C0C8D0D9081B3780A12469B7413125A
:105740004849780E1246C19081B3780E12469B7874
:105750000E790A1244D44011780A790E124673AABF
:105760000AAB0BAC0CAD0D802275120075130075E1
:1057700014007515017812790E1246737812790AA1
:1057800012463AAA12AB13AC14AD157F0C02498530
:105790009081B3780A1246C18A828B83780A1246B6
:1057A000AE7F0402498574F51248D98C828D8378C6
:1057B0000A1246C18A828B83780A1246871257FEE4
:1057C000C3E09CF0A3E09D1257F040229081D37873
:1057D0000A1246C18A828B83780A1246608A828BBB
:1057E00083A3A3A3A3E02420F0A3E0344EF080A081
:1057F000F088828983C3E09420A3E0944E22EA24B7
:1058000004F8E43BF98C828D83A3A3A3A3E0FCA35B
:10581000E0FD888289832274F51248D9E9FE90045C
:10582000D2E0FAA3E0FBEE29F8E433F974F928F5A5
:1058300082748039F583E02AF50AA3E03BF50B7802
:105840000A124A809082171246DF125384740212A1
:1058500048138A0A8B0B8C0C8D0D7410780A124633
:1058600002AA0AAB0B7F0402498574F11248D98A57
:105870000E8B0F8C108D117411124849124A9774B7
:1058800011124849E02401F50AA3E03400F50BE4C5
:10589000F50CF50D780E790A1245139081BB780A44
:1058A0001246C1780E790A124513AA0EAB0FAC103E
:1058B000AD1112538474021248138B0BEA450B602E
:1058C000047A0180027A00EC2AFCE43DFD74131294
:1058D0004849E0F8A3E0F9E8FEE9FFECF8EDF97AD1
:1058E000717B02124772880A890BE4F50CF50D8E64
:1058F000828F83780A1246D0ECF8EDF97A717B0238
:105900001247728A0A8B0B7405780A1247EA8E8254
:105910008F83A3A3A3A3E50AF0A3E50BF07F0802FE
:105920004985C082C083E9906000F0D083D0822294
:10593000C0E0C0D0E8C0E0E9C0E0A9A8D2AFC2C7CB
:10594000751C00E9A2E7E433F8E9A2E792AFD0E0E2
:10595000F9D0E0F8D0D0D0E032C2AF02000022127D
:1059600044AA63C8031244AA76C8031244AAA7C86B
:10597000031244AAE1C8031244AA3AC9031244AA72
:1059800081C9031244AAC9C9031244AAF8C903125F
:1059900044AA27CA031244AA5ECA031244AAA5CA8B
:1059A000031244AABECA031244AA13CB031244AA88
:1059B0002CCB031244AA7ACB031244AAB4CB031211
:1059C00044AA62ED021244AA65EE021244AA9EEEB7
:1059D000021244AAC1EE021244AAD3EE021244AA51
:1059E00011EF021244AA8DEF021244AA55F00212DE
:1059F00044AA77F0021244AA0EF1021244AA60F1FE
:105A0000021244AA91F1021244AA9EF1021244AA7F
:105A100008F2021244AA5FF2021244AA62F20212CF
:105A200044AA9BF2021244AA9EF2021244AAA8F2CD
:105A3000021244AAFCF2021244AA3DF3021244AA42
:105A400070F3021244AAADF3021244AAAFF4021298
:105A500044AA53F5021244AABCF5021244AAFAF56C
:105A6000021244AA82C0031244AAAAC0031244AA82
:105A7000D7C0031244AA0FC1031244AA6DC1031276
:105A800044AAB9C1031244AA20C2031244AA60C2A4
:105A9000031244AA9DC2031244AACBC2031244AA11
:105AA00075C3031244AA7FC3031244AA8CC3031212
:105AB00044AABFC3031244AACBC3031244AAE3C33C
:105AC000031244AAEDC3031244AA97E9031244AA9D
:105AD000A5E9031244AABDE9031244AAD4E90312BA
:105AE00044AADFD8011244AA89D9011244AA9CDA37
:105AF000011244AA18DB011244AA36DC011244AA9E
:105B000072DC011244AA0DDD011244AAF1DD01127A
:105B100044AABDDE011244AA4BE0011244AABCE033
:105B2000011244AA76E1011244AA68E2011244AAD1
:105B3000A8E2011244AA5CE3011244AA8EE3011216
:105B400044AA84E5011244AAC6E5011244AAE4E588
:105B5000011244AA4AE6011244AA19E7011244AA12
:105B6000DDE7011244AAFCE9011244AA728F031274
:105B700044AA5C90031244AA0791031244AA5891C4
:105B8000031244AA0892031244AA7992031244AA67
:105B90005E93031244AA9293031244AA8B940312B5
:105BA00044AAC894031244AAA495031244AAE395F4
:105BB000031244AAFF95031244AA0DE1031244AA5A
:105BC00091E1031244AABCE1031244AAD6E20312F3
:105BD00044AA7BC4031244AA91C4031244AAAFC4CA
:105BE000031244AAC0C5031244AACAC5031244AA98
:105BF000F5C6031244AAECC7031244AA59C80312FB
:105C000044AA6096031244AA9697031244AACD9719
:105C1000031244AA2498031244AA399A031244AAEC
:105C200029B4011244AAB5B4011244AA19B601124A
:105C300044AA25B6011244AA60B6011244AACFB6FE
:105C4000011244AAD8B7011244AAE1B8011244AA29
:105C5000A8B9011244AA05BB011244AA23BB011230
:105C600044AA40BB011244AAEDBB011244AA6ABC7B
:105C7000011244AA92BC011244AA5CBF011244AAB8
:105C800061BF011244AA7AC1011244AAC8C101121B
:105C900044AA38C2011244AA76C2011244AA52C3CD
:105CA000011244AA12C4011244AA5EC4011244AAF9
:105CB00061C4011244AAA5C4011244AAEDC4011290
:105CC00044AA2CC5011244AA4EC5011244AA82C599
:105CD000011244AAE5C5011244AA96FA011244AA87
:105CE000A4FA011244AAF7FA011244AA16FB0112FF
:105CF00044AA5BFB011244AA9FFC011244AA3AFD8C
:105D0000011244AA7EFD011244AAA8FD011244AA70
:105D100017FE011244AA5DFE011244AAD4FE01122C
:105D200044AA85FF011244AA0080011244AA1080EF
:105D3000011244AAB180011244AA0D81011244AAA1
:105D4000CA81011244AAE682011244AA18830112F0
:105D500044AA4783011244AAF484011244AA6B871F
:105D6000011244AADB89011244AACD8A011244AA75
:105D7000C68B011244AACD8D011244AAC190011212
:105D800044AAF091011244AAF493011244AA049582
:105D9000011244AA9396011244AA8497011244AABC
:105DA000D297011244AA4198011244AA659801129F
:105DB00044AAB698011244AA579D011244AA589EBB
:105DC000011244AAB99E011244AAE49E011244AAF7
:105DD000AA9F011244AA48BC031244AA52BC03124F
:105DE00044AA97BC031244AAABBC031244AA3BBD0D
:105DF000031244AA74BD031244AAAFBD031244AAFD
:105E0000D8BD031244AA2CBE031244AA41BE0312F9
:105E100044AA63BE031244AA78BE031244AA8CBEED
:105E2000031244AAA1BE031244AADBBE031244AA71
:105E300007BF031244AA50BF031244AAC2BF0312F1
:105E400044AA05C0031244AA2FC0031244AA5AC090
:105E5000031244AA89E6031244AAC6CF021244AA36
:105E6000A9D0021244AA24D1021244AA5FD102127C
:105E700044AAB0D2021244AA3ED3021244AAD0D5F8
:105E8000021244AA82D6021244AA8ED7021244AA4F
:105E900001D9021244AA5AD9021244AAB6B3031273
:105EA00044AAF9B3031244AA7DB4031244AA54B716
:105EB000031244AA99DC031244AA4BDD031244AA3C
:105EC00047DE031244AA86DE031244AAE0DE031270
:105ED00044AA05E3031244AA68E3031244AA05E4B2
:105EE000031244AA3AE4031244AA6AE4031244AA3D
:105EF000A5E4031244AAC5E4031244AA73A1031241
:105F000044AAFFA1031244AABEA2031244AAD6A324
:105F1000031244AAF0A5031244AA32B9021244AAF9
:105F200057B9021244AA24BA021244AAF8BA0212B9
:105F300044AA65BB021244AAA5BB021244AA41BCF2
:105F4000021244AA75BD021244AA50BE021244AA0B
:105F5000AFBE021244AA3BBF021244AAA9BF02125A
:105F600044AA35C0021244AA7BC0021244AAEDC062
:105F7000021244AA7FC1021244AA20C2021244AAF9
:105F800040C2021244AA88C2021244AAD1C202121A
:105F900044AAEDC2021244AA13C3021244AA8DC33A
:105FA000021244AA9BC3021244AA2AC4021244AA9F
:105FB00093C4021244AA27A6031244AAACA6031251
:105FC00044AAEEA6031244AAD2A7031244AA3FA8E9
:105FD000031244AA83A8031244AAC7A8031244AA1E
:105FE000F4A8031244AA1CA9031244AA54A9031238
:105FF00044AA92A9031244AAB9A9031244AA33AA33
:10600000031244AA7DAA031244AA09EA011244AA6F
:10601000A8EB011244AAE0ED011244AA34EE0112E9
:1060200044AA5FEE011244AA3BEF011244AA6BEFAF
:10603000011244AA9AEF011244AAADEF011244AA38
:10604000EEEF011244AA1BF0011244AA69F00112FA
:1060500044AAA5F0011244AAEAF0011244AA37F1B9
:10606000011244AAB1F1011244AAF2F3011244AAA6
:10607000DCF5011244AA18F6011244AAA7F701128E
:1060800044AAECF7011244AA5FF8011244AAB4F83A
:10609000011244AAB9F8011244AA43F9011244AA10
:1060A00062FA011244AA73FA011244AAC3E302126B
:1060B00044AA3CE4021244AAF6E9021244AA01EB03
:1060C000021244AAAAEC021244AA38ED021244AA0F
:1060D00016A0011244AA97A0011244AAC4A001125A
:1060E00044AA0DA1011244AA0EA2011244AA67A259
:1060F000011244AAE3A3011244AA65A4011244AA0E
:1061000080A4011244AAF1A4011244AAAEA501126E
:1061100044AA71A6011244AAFFA6011244AAB6A776
:10612000011244AAC9A7011244AA62A8011244AAF2
:10613000F9A8011244AA20A9011244AA89A90112AE
:1061400044AAD3A9011244AA21AA011244AAC6AAA8
:10615000011244AA64AB011244AAF1AB011244AA91
:1061600062AC011244AAA9AC011244AA01AD011209
:1061700044AA33AD011244AAEDAD011244AAF4AE13
:10618000011244AA3DAF011244AA5AAF011244AA17
:1061900079AF011244AAACB0011244AA63B1011252
:1061A00044AA88B1011244AA9DB1011244AA0DB2B9
:1061B000011244AA4EB2011244AA72B3011244AAB7
:1061C000F3B3011244AA03DA021244AA4EDA02120D
:1061D00044AA5ADA021244AA2EDB021244AA45DB70
:1061E000021244AA82DB021244AAB3DB021244AABE
:1061F000EBDB021244AA41DC021244AA57DC021271
:1062000044AA93DC021244AAA6DC021244AACDDC02
:10621000021244AA01DD021244AA27DE021244AA95
:1062200071DF021244AA6DE0021244AA8AE102124E
:1062300044AAF27F001244AA0080021244AA3B80C2
:10624000021244AA8D83021244AAE984021244AACB
:10625000A885021244AA0F89021244AAF9890212DF
:1062600044AA458A021244AA5F8A021244AA9C8A5E
:10627000021244AAA78A021244AAE68A021244AA77
:10628000EF8A021244AA998B021244AA708C02125D
:1062900044AAC48C021244AA218D021244AA938DEE
:1062A000021244AABDC6011244AA1CCA011244AA81
:1062B00022CA011244AA53D1011244AA5AD501128A
:1062C00044AA1CCC031244AAB2CC031244AAC8CCE0
:1062D000031244AA21CD031244AA65CD031244AA95
:1062E0009FCD031244AA37CE031244AAA6CE0312AE
:1062F00044AAAFCE031244AABBCE031244AAD5CE01
:10630000031244AAFFCE031244AA14CF031244AAD4
:1063100076CF031244AA9DCF031244AA06B80312F3
:1063200044AA13B8031244AA2DB8031244AA60B8B1
:10633000031244AA9EB8031244AA03B9031244AA42
:1063400018B9031244AA23B9031244AA30B903129C
:1063500044AA47B9031244AA55B9031244AA60B922
:10636000031244AA6CB9031244AA7BB9031244AACB
:1063700086B9031244AAA9B9031244AA4DBA03125A
:1063800044AA5DBA031244AA77BA031244AA94BA83
:10639000031244AAAFBA031244AAD4BA031244AAFD
:1063A000DFBA031244AAF4BA031244AA08BB0312C8
:1063B00044AA69BB031244AA6FBB031244AA75BB6B
:1063C000031244AA7BBB031244AA93BB031244AA40
:1063D000C6BB031244AAAFAB021244AA46AC0212D7
:1063E00044AADEAC021244AACEAD021244AA05AE03
:1063F000021244AA18AE021244AA86AE021244AA9D
:1064000021B0021244AA48B0021244AAEAB0021211
:1064100044AA1FB1021244AA30B1021244AAA9B17F
:10642000021244AACAB1021244AAE2B1021244AA58
:106430003AB3021244AA43B5021244AA93B7021215
:1064400044AA96B8021244AAE5B8021244AAE28EFF
:10645000021244AADF8F021244AACA90021244AA6E
:10646000D490021244AAF690021244AA0291021297
:1064700044AA5492021244AA8392021244AAB393E9
:10648000021244AAF593021244AA2195021244AAC8
:10649000F795021244AA4996021244AAA89602123B
:1064A00044AADF96021244AA1A97021244AAB59A85
:1064B000021244AACE9A021244AA509B021244AA83
:1064C0005E9B021244AAB39B021244AAC19B021211
:1064D00044AA2E9C021244AAA09C021244AAE69C42
:1064E000021244AAB6C4021244AAD8C4021244AA90
:1064F000C2C6021244AA67CA021244AAAACB021256
:1065000044AA84CC021244AAD3E4031244AAF8E4B5
:10651000031244AA69E5031244AA20F6021244AA0F
:1065200029F6021244AA32F6021244AA63F70212B2
:1065300044AA82F9021244AAB8F9021244AAF2F952
:10654000021244AA28FA021244AA62FA021244AAC7
:1065500096FA021244AAC2FA021244AA0BFB0212D1
:1065600044AA45FB021244AA8DFB021244AAE3FB93
:10657000021244AA18FC021244AA73FC021244AA92
:10658000ADFC021244AAFEFC021244AA34FD02121F
:1065900044AA6EFD021244AA9CFD021244AABFFD49
:1065A000021244AA1AEB031244AA46EB031244AAAD
:1065B000A1EB031244AAABEB031244AABBEB0312F8
:1065C00044AA07D7031244AA2ED7031244AA58D7C5
:1065D000031244AAC4EC031244AA8469001244AA18
:1065E000E86B001244AA9F6D001244AAFC6D0012D1
:1065F00044AAFE6E001244AA866F001244AA0D70CF
:10660000001244AA3270001244AA2773001244AA4E
:106610009D73001244AA8C74001244AAC67400121E
:1066200044AA0675001244AAA676001244AAFB7674
:10663000001244AA4877001244AAB677001244AA6E
:10664000DC77001244AAF677001244AA0C790012F3
:1066500044AA1C79001244AAA27A001244AAC27A5F
:10666000001244AAF87A001244AA7C7C001244AAC0
:10667000BB7C001244AAF97D001244AABDAA0312F1
:1066800044AA15AB031244AA5DAC031244AACCACD5
:10669000031244AA7BAD031244AA9AAD031244AA82
:1066A000EEAD031244AA2CAE031244AAEBFF021271
:1066B00044AA0EED031244AA4DED031244AA29EE9A
:1066C000031244AA35EE031244AA57EE031244AA59
:1066D00064EA031244AA74EA031244AA83EA031286
:1066E00044AA14EB031244AA9DE7031244AA21E82A
:1066F000031244AA87E8031244AA41EE031244AAF3
:1067000051EE031244AA54EE031244AAF87F001279
:1067100044AA1E7E001244AA8E7F001244AAEF7F74
:10672000001244AAD687031244AA5F88031244AA1F
:106730007688031244AA3889031244AA198A0312DC
:1067400044AAB68B031244AA878C031244AADB8D99
:10675000031244AA638E031244AA9DED031244AAB5
:10676000B6ED031244AA009C031244AA0A9C031229
:1067700044AA4A9C031244AA939C031244AACD9CA7
:10678000031244AA239D031244AA429D031244AA61
:106790004B9D031244AA9C9D031244AAC59D03125B
:1067A00044AADA9D031244AA4A9E031244AAD89E20
:1067B000031244AA1C9F031244AA449F031244AA32
:1067C000C39F031244AA06A0031244AA43A00312C3
:1067D00044AA55A0031244AA74A0031244AA7DA09F
:1067E000031244AA47A1031244AA4DFE021244AA6E
:1067F0009EFE021244AA27FF021244AA8DFF021233
:1068000044AAD5D9031244AAFFD9031244AAF9DA3B
:10681000031244AA28DB031244AAAEDB031244AAE3
:10682000A0E8031244AA0BDF031244AA41DF0312BB
:1068300044AA7ADF031244AAD3E0031244AAC5EBA8
:10684000031244AADBEB031244AAE5EB031244AAA9
:106850003BEC031244AA97FF011244AA00800312E2
:1068600044AABD80031244AAF880031244AA2081DE
:10687000031244AA8281031244AACE81031244AABD
:106880003982031244AAB582031244AAB1830312C7
:1068900044AA3885031244AABB85031244AA1F8662
:1068A000031244AA3686031244AA2C87031244AA70
:1068B0007887031244AA3EAF031244AA53AF0312CF
:1068C00044AA03B0031244AA43B0031244AA5CB022
:1068D000031244AA8FB0031244AADCB0031244AAE4
:1068E00010B1031244AA52B1031244AA50B30312C6
:1068F00044AA6F9D021244AA26A1021244AAB8A279
:10690000021244AA0FA3021244AA2EA3021244AAFE
:10691000ACA3021244AA3EA5021244AA22A6021265
:1069200044AA33AA021244AA07AB021244AACBCF4C
:10693000031244AAE8D1031244AAAAD2031244AA19
:106940004AD3031244AA73D3031244AADBD303121B
:1069500044AAF8D3031244AAC3D4031244AA16D5F6
:10696000031244AAF9D5031244AA57ED031244AA0C
:10697000DFED031244AA0BEE03FFFFFFFFFFFFFF53
:10698000FFFFFFFF74F012486D74FA1247FD890B88
:10699000ECFEEDFF750A008A0C8B0D780C124AC4D0
:1069A000000410AA6BC769E569FF69176A356A4D6B
:1069B0006A706A886A9C6AC66A416B526B696B84AA
:1069C0006BAA6BAA6BDC6A7401650B6003026BA592
:1069D0008E828F83E0F8C394034003026BA5E89096
:1069E00016C6026B817402650B6003026BA58E8272
:1069F0008F831273089016C7E8F0A3E9026B8174C5
:106A000001650B6003026BA5126BD24003026BA5FC
:106A1000E8900748026B817401650B6003026BA567
:106A20008E828F83E0F8C394054003026BA5E89043
:106A30000749026B817401650B6003026BA5126B41
:106A4000D24003026BA5E890074A026B817410657F
:106A50000B6003026BA5750C10750D00780C124AC3
:106A6000807A4B7B071267697402124813026BCB62
:106A70007401650B6003026BA5126BD24003026BBD
:106A8000A5E890075B026B817401650B6003026BE4
:106A9000A58E828F83E09016CA026B817404650B09
:106AA0006003026BA58E828F83780E1246C190829E
:106AB00017780E1244F45003026BA590075D780E10
:106AC0001246D0026BCBE96003026BA5125BE1E9D1
:106AD000700512663D80559007F080617407650B64
:106AE0006003026BA5750C06750D00780C124A80C8
:106AF0008E828F83A3AC82AD83740212485B1267CF
:106B00006F74021248137C007D00AA1AAB1B8E82A0
:106B10008F83E0F91265E9E9FEC3940A4003026B32
:106B2000C8125BE1E9700CEEF91266437950126805
:106B3000AD806D74F12EF582E43407F58374018025
:106B4000407401650B705E126BD25059E890075C7F
:106B5000802F7401650B704D8E828F83E0F8C39493
:106B60000A5042E89016C980187401650B70368E81
:106B7000828F83E0F874F928C3940A5028E89016AD
:106B8000CBF080477401650B701B9007EFE0F88E27
:106B9000828F83E09007EFF0E87030E06401702BA3
:106BA0001266318026750A188021C3EA9427EB9477
:106BB0000050157402650B700F8E828F83127DE872
:106BC000125A61E9F50A8003750A02A90A740602DD
:106BD0006EF68E828F83E0F8C3940222A90A8003A6
:106BE0001248137F0402493F74F012486D74B112C9
:106BF00047FD8C0C8D0D90819874201248637406AB
:106C000012471074201248631265E9E9FF745F129D
:106C10004849E0F50BEFC3940A4003026D6A75F032
:106C200006EFA4F50A74411248637A0E7420250A0F
:106C3000F91268A7E97009744D124849E0FE800214
:106C40007E009016C6E06402700575100180037521
:106C500010007408650B7004742280027421250AE8
:106C6000F50F7C1B7D007900742612485B1267814A
:106C700074261248637A1BA90F1268A7E9702D7455
:106C800040124849E024F9C3940A5020E510F50F5A
:106C9000780F124A847427124863EEA2E0E433F9B5
:106CA000AA0CAB0D125B0374011248137C147D0017
:106CB0007900740C12485B126781740C1248637A75
:106CC000107424250AF91268A7E970347C1079FF42
:106CD000740C12485B1267E1E97025741C12484974
:106CE000AC82AD837A047425250AF91268A7740C66
:106CF000124863EEA2E0E433F9AA0CAB0D125AEB92
:106D0000AC1AAD1B7A0C74702FF91268A7E97049A0
:106D1000AA1AAB1B1266197F00EF75F003A4F8A93D
:106D2000F0851A82851B83E58228F8E5831274BFFB
:106D30001276A0601D88828983A3A3E0F5107511E7
:106D4000007810124A80AA0CAB0D125DBB740212BF
:106D500048130FEFC3940440C0EEA2E1500C90071B
:106D600047E0F9AA0CAB0D125DC17404650B7028E5
:106D70009016C6E0640270207A0090075BE0600223
:106D80007A01900748E06004780480027800E84ABD
:106D9000F9AA0CAB0D125BB77900744F026EF67452
:106DA000F712486D125BE1E9704F9007F0E0640163
:106DB000701512663D9007F0E4F07C0AFDF97AF157
:106DC0007B07126781802A750A00A80A74F128FEE1
:106DD000E43407FF8E828F83E06401700BA90A12EE
:106DE00066438E828F83E4F0050AE50AC3940A4065
:106DF000D979501268AD1266310277D774F0124813
:106E00006D74F01247FDEAFEEBFF8C0A8D0B750CDA
:106E10000AE9600C14600914603B14607D026EF294
:106E200012662BE9F50CC3940A4003026EF2E50AE0
:106E3000450B7003026EF2750E06750F00780E1288
:106E40004A80EEFCEFFDAA0AAB0B126769740212CE
:106E50004813026EF2750E00751006751100781059
:106E6000124A80EEFCEFFDE50E75F00EA4F8A9F0D5
:106E7000746928FA740739FB12677B74021248138D
:106E8000E9700B050EE50EC3940A506680CA850EA4
:106E90000CE50CC3940A505A8049750E00AC1AAD2B
:106EA0001B7A1075F006E50EA42423F91268A7E9F1
:106EB000701C7C1079FFAA1AAB1B1267E1E9700EF7
:106EC000EEFCEFFDAA1AAB1B125AC7E9600B050EC8
:106ED000E50EC3940A501B80C4850E0CE50CC394C8
:106EE0000A500FE50A450B6009AA0AAB0BA90C1260
:106EF0006625A90C74101248137F0802493F74F4E8
:106F000012486D890B750A1574FF6A700374FF6B64
:106F100070277E00AC0B7A027B00EEF9126607E95F
:106F20006003750A000EEEC3940A40E8E50B605357
:106F30007A557B66125FFB804A125FCB8A0C8B0D01
:106F4000AE0CAF0DEE4F60387C007D00EE2405FAEC
:106F5000E43FFB8E828F83A3A3A3A3E0F91265E92C
:106F6000E9F9C3940A500CAC0B7A027B0012660755
:106F7000750A00E50B600CEEFAEFFB126655800314
:106F8000750A14026BDC74F212486DECFEEDFF75AD
:106F90000A15740E124849E0F50CA3E0F50D74FFD4
:106FA0006A700374FF6B7021750B00AC0CAD0DEEB5
:106FB000FAEFFBA90B12660DE96003750A00050BD9
:106FC000E50BC3940A503F80E2125FCB8A828B8329
:106FD000E5824583602D7C007D00E5822405FAE48E
:106FE0003583FBA3A3A3A3E0F91265E9E9F9C394F0
:106FF0000A5013AC0CAD0DEEFAEFFB12660D750ADC
:10700000008003750A14A90A7F0602493FC082C0A6
:1070100083900761EAF0A3EBF0900747E0FC7D0066
:107020007A267B00125A61900747E0F9125D25022B
:107030007AF174EE12486D74EC1247FD8A0A8B0BDC
:10704000EA240CF512E4350BF5138A828B83A385B1
:10705000820E85830FEA2405F510E4350BF511EA5D
:107060002409F50CE4350BF50DEA2403FEE4350B99
:10707000FF8A828B83A3A3E024FA70030272F624B2
:10708000FD70030272161470030271101460102454
:10709000FD70030271F914700302724E0272FC1249
:1070A0007DEE6044E0F5838882127308880E890FB4
:1070B000E8450F6033851282851383E0F510781060
:1070C000124A84EA240BF582E4350BF583E0F912C9
:1070D0007DE20A0A0AEFFB850E82850F8312486B58
:1070E00074011248130272FC850C82850D83124ACA
:1070F0009790075D1246DF125AFD7402124813E999
:1071000070030272FC7901850C82850D830272C6C0
:10711000750C00850E82850F83E060030271C685C1
:107120001082851183E0A2E040030271C69007FB44
:10713000127DF160030271C67C0E7D007900AA1AEF
:10714000AB1B126781851282851383127ABCEA4BCE
:107150006010750C06750D00780C124A80EA241038
:10716000801B127AB8125FCBEA4B70030272FC7577
:107170000C06750D00780C124A80EA2405FCE43BED
:10718000FD740212485B126769740212481385107D
:1071900082851183E0A2E25004D2F08002C2F0A204
:1071A000F0E433F8740C124849127C7012661FE93F
:1071B00070117A027B00900747E0F91267BD7900F1
:1071C0000272FE750C15127DEE70030272FC1273D2
:1071D0001D70030272FC850E82850F83E0FC79012D
:1071E00012730E12486BE50C70030272FCFC7903FB
:1071F000127AB8127A730272F1127DEE7003027283
:10720000FC12731D70030272FC850E82850F83E0F1
:10721000FC79020272EE7C007D00EA2404FAE43577
:107220000BFB8E828F83E0F91265E9E9F8C3940ABB
:1072300040030272FCE50A240AFCE4350BFD7A04E3
:1072400075F006E8A42425F91268A10272FC127AEE
:10725000B890075CE060079016C9E0F9806B901663
:10726000C6E0700479058061125FCB8A0E8B0FA88F
:107270000EA90FE84970030272FCE82404F50EE43D
:1072800039F50F850A82850B83A3A3A3A3A3A3A328
:10729000E0A2E05039850E82850F83E0F50A602E6A
:1072A000850C82850D83A3E054027022740E12486F
:1072B00063E82405FAE439FBA90A1265E9E9700ECE
:1072C00079038E828F83127ABC125AF7802EAC100B
:1072D000AD11850E82850F83E0F9127AB8126661CE
:1072E000127DEE601712731D60127C00790012731C
:1072F0000E12486B8006127AB81265E37901741495
:107300001248137F0A02493FE0F8A3E0F9228E8277
:107310008F83E0FAA3E0FB8882850B8322127A81B7
:10732000F9890BE8450B2274F512486D74F2124787
:10733000FDEAFE8C0C75F006E9A42420F50AAC1ACF
:10734000AD1B7A0EF91268A7E970467C0679FFAA90
:107350001AAB1B1267E1E97038740C124849127AB3
:10736000BCEAF8E50C6005EEC8488004EEF4C858A5
:10737000F8EA687001EB6015740C124849E8F0A354
:10738000E4F0AC1AAD1B7A0EA90A1268A17901804B
:10739000027900740E1248137F0302493F74F212FF
:1073A000486D74E61247FD890C8A0A8B0BECFEEDE2
:1073B000FF740C1248637A0E75F006E9A42420F9D4
:1073C0001268A7E960030274827C0679FF740C12CC
:1073D000485B1267E1E960030274827470250CF562
:1073E0000DAC1AAD1B7A0CF91268A7E960030274A0
:1073F0007EAA1AAB1B126619E50A450B701D7C0CA0
:107400007900AA1AAB1B1267E1E970727C0C7D004F
:107410007900AA1AAB1B1267818051AC1AAD1BAA66
:107420000AAB0B1266138A0E8B0FA80EA90FE84940
:107430007022EE4F604CAC1AAD1B7A007B001266D6
:1074400013EAF8EBF9EA4B603988828983E50AF0A0
:10745000A3E50BF01274FBFAEE6A7001EF601FEE09
:10746000F04F700888828983E4F0A3F0AA1AAB1B5E
:10747000126619AC1AAD1B7A0CA90D1268A179011C
:1074800080027900741A12481302700874F71248C7
:107490006D7E00EE75F003A4F8A9F0EC28F8ED126B
:1074A00074BFE06A7003A3E06B7006E8FAE9FB8042
:1074B0000B0EEEC3940440DB7A007B000277D739D1
:1074C000F9888289832274F712486D7C00EC75F08C
:1074D00003A4F8A9F0EA28F8EB1274BFE0F4FEA3C5
:1074E000E0F4FF88828983EEF0A3EFF01274FBF4DE
:1074F000F00CECC3940440D50277D7E82402F5825F
:10750000E439F583E02274F412486D74F41247FDF7
:10751000EAFEEBFF8C0A8D0B9007FB127DF1704F9A
:10752000EE4F700302767FEC450B700302767F12FC
:10753000662BE99016CCF0C3940A4033750D007C9D
:107540000679FFE50D75F00EA4FAABF074632AFA24
:1075500074073BFB1267E1E960030275E0050DE586
:107560000DC3940A40D9750C0AE50C9016CCF09026
:1075700016CCE0C3940A400302767F75F006E0A4BF
:10758000FB9007FB127DF1705CEEFCEFFD7A0E7450
:10759000202BF91268A17C0C7D0079FFAA1AAB1B85
:1075A000126781AC1AAD1B7A0C9016CCE02470F9EE
:1075B0001268A1750C0E750D00780C124A80EEFC55
:1075C000EFFD9016CCE0127738126769740212480A
:1075D000139007FBE50AF0A3E50BF0790002768132
:1075E000850D0C8084E0C8240612769A60197A1BF7
:1075F00074212BF91268A11276862406F582E438EC
:10760000F583E4F0A380D3127686240A12769A607A
:10761000107A1B74222BF91268A1127686240A8034
:10762000DB127686240C12769A60107A1074232B63
:10763000F91268A1127686240C80C112768F127618
:107640009A60307A1074242BF91268A112768FF5A3
:1076500082E438F583E02410FCA3E03400FD7A04D2
:1076600075F0069016CCE0A42425F91268A11276D4
:107670008F80899007EFE0600312666712665B797E
:1076800001740C026BE09007FBE0F8A3E0C82290C5
:1076900007FBE0F8A3E0C8240822F582E438F5836C
:1076A000127DE8EC4D2274F412486D74F21247FD1D
:1076B000EAFEEBFFE9C3940A5004EE4F700479022E
:1076C0008034AC1AAD1B7A0E75F006E9A42420F9BB
:1076D0001268A7E9F50A701C750C06750D00780C88
:1076E000124A807402124863EEFAEFFB1267697463
:1076F00002124813A90A740E026BE074F412486D6A
:10770000EAFEEBFF750A00750C06750D00780C1289
:107710004A80EEFCEFFDE50A12773812677B7402AF
:10772000124813E96004A90A800B050AE50AC3940C
:107730000A40D4790A026BE375F00EA4F8A9F0743C
:107740006328FA740739FB2274F712486D750A0032
:10775000E50A75F00EA4F8A9F0746328FE740739E1
:10776000FFEEFCEFFD7A0E75F006E50AA42420F981
:107770001268A7E960297C067D0079FFEEFAEFFB2D
:107780001267817C067D0079FFEE2CFAE43FFB1244
:107790006781EE240CF582E43FF583E4F0A3F00565
:1077A0000AE50AC3940A40A89007EFE06003126656
:1077B0006712665B802174F712486D7E007F007C43
:1077C00006EF12773879FF1267E1E970010E0FEFCB
:1077D000C3940A40EAEEF97F0102493F74F7124868
:1077E0006D7E00EEF9126643E9F90EEEC3940A507D
:1077F00003E960EF80E174F312486D74CB1247FD2A
:10780000890A9016CCE0650A701B7A017B0090070C
:1078100047E0F91267C37A027B00900747E0F9124C
:1078200067C312667375F006E50AA4FF74202FFE85
:1078300074271248637A0EEEF91268A7E960030212
:1078400078FE7C0679FF742712485B1267E1E960D5
:10785000030278FE7C0E7D0079FF742712485B12CC
:1078600067817C1B7D0079FF740C12485B12678175
:107870007C0C7D0079FFAA1AAB1B1267817427125A
:1078800048637A0EEEF91268A1E9FE740C1248639F
:107890007A1B74212FF91268A1E9F50B740C1248B8
:1078A000637A1B74222FF91268A1E9F50C740C128B
:1078B00048637A1074232FF91268A1E9F50D740C4E
:1078C0001248637A1074242FF91268A1E9F50E7436
:1078D0000C1248637A0474252FF91268A1E9FFACF1
:1078E0001AAD1B7A0C7470250AF91268A1E9F8E543
:1078F0000B450C450D450E4F48CE4EFE80027E00D6
:10790000EEF974351248137F0502493F74F71248A7
:107910006DE9900747F01266310277D774F212488A
:107920006DEAFEEBFF548070030279DB900747E0BD
:10793000F91267A58A0A8B0BEA450B70030279D40A
:107940007A01E50A2405F50CE4350BF50DE50A246A
:1079500004F8E4350BF9880E890F850A828B83E0E1
:107960002450603614600624E16058805D88828966
:1079700083E07059850A828B83A3A3A3A3A3A3A347
:10798000124A97127DE2850A828B83A3A3127ABCE6
:107990001265F57402124813803388828983E0648B
:1079A0001E700F7900850A828B83A3A3127ABC1202
:1079B00065EF850E82850F83E0F9AA0CAB0D125D91
:1079C0001F800AAA0A126601E9FAEA6007AA0AAB4E
:1079D0000B126793EEFAEF6480802AEE540260285F
:1079E000EE6402FE7C007D007A007B0012661FE9D7
:1079F00060047A0180027A027B00900747E0F91266
:107A000067BDEEFAEFFB8068EEA2E050556401F529
:107A10000AEFF50B127A9112666DE96033127DEE72
:107A20006029127A89127308E8FEE9FFEE4F601BA5
:107A30007C007901127A918E828F8312486B7C00D0
:107A40007903127A91127A7312486B126673800C62
:107A50007A017B00900747E0F91267BDAA0AAB0BD9
:107A6000800E54046006EE6404FA80047A007B0001
:107A7000027008900761E0F8A3127A81F58388828A
:107A800022127A89E0F8A3E022E0F5838882A3A39A
:107A9000229007FB127DD2E0FAA3E0FB227F0202D4
:107AA000493FC082C083900747E0F98A828B83A355
:107AB000127ABC125DC180398E828F83E0FAA3E016
:107AC000FB22C082C08374FF1247FD126637E9C3F0
:107AD0009402851A82851B83400474028002740A12
:107AE000F0AC1AAD1B7A017905125BFF74011248E4
:107AF00013D083D0820244A774F012486D74E81248
:107B000047FDEAFEEBFF890C8C0A8D0B7C187D008B
:107B10007900AA1AAB1B126781851A82851B83EE36
:107B2000F0A3EFF0900749E0C0E07402124849D09A
:107B3000E0F090074AE0C0E07403124849D0E0F05A
:107B40009016CBE0C0E07417124849D0E0F09016D0
:107B5000CAE0A2E0E433FCE0A2E15004D2F08002EB
:107B6000C2F0A2F0E433F8E0A2E45004D2F08002C4
:107B7000C2F0A2F0E433FAE0A2E55004D2F08002B1
:107B8000C2F0A2F0E433F510751100E0A2E6500453
:107B9000D2F08002C2F0A2F0E433F50E750F00E0DF
:107BA000A2E25004D2F08002C2F07415124849E0FB
:107BB00054FEFEA3E0FFEE4CFCEFFDEC54FDFCE8B0
:107BC00028F8EC48F8ED54FEF9EAFBE94BF9E8FA3D
:107BD000E954FDFB740978101247EAEB451154FB98
:107BE000FB740A780E1247EAEAF8EB450FF9E854FD
:107BF000FBFAA2F0E433F50E750F007402780E1252
:107C000047EAEA450EF87415124849E8F0A3E9F08E
:107C100090074AE0601D750E10780E124A807C4B6A
:107C20007D077406124849AA82AB83126769740201
:107C300012481390075BE06011E50C60097415129F
:107C40004849E04402F07801800278007414124838
:107C500049E048F0900748E060047804800278002A
:107C60007414124849127C70125AF17418026EF69C
:107C7000E048F0AC0AAD0BAA1AAB1B2274F712480D
:107C80006D125E15750A00E50A75F00EA4F8A9F0EC
:107C9000746328FE740739FF7C0679FFEEFAEFFB68
:107CA0001267E1E97009EEFAEFFB7900125E1B053D
:107CB0000AE50AC3940A40CF0277D774F612486DDA
:107CC00074FD1247FDEAFEEBFF9007FD127DF17097
:107CD00039750AFF750B07780A124A80750A027512
:107CE0000B00780A124A80750A5F750B82780A12B7
:107CF0004A807CFF7DFF7A017B00125C4174061292
:107D000048139007FDEAF0A3EBF09007FD127DF118
:107D10007003027DC4750AFF780A124A84E4F50AEA
:107D2000F50B780A124A807405124853880A890BA9
:107D3000780A124A807405124853880A890B780A17
:107D4000124A809007FF124A9779029007FD127D30
:107D5000DA125DAF7409124813E97036851A82850C
:107D60001B83E0FA7401124849E0F8E4C8F9EA28F4
:107D7000F50AE439F50BEA450B6017780A124A80D8
:107D80009007FD127DD2A3127DDA1265F5740212FE
:107D90004813E4F50AF50B780A124A809007FF129F
:107DA0004A977CFF7DFF9007FD127ABC125C4D74F0
:107DB000041248139007FDEAF0A3EBF09007FD12C0
:107DC0007DF1700479018002790074031248130276
:107DD0007A9DE0F8A3127A89A322127DE8EEFAEFE9
:107DE000FB22850C82850D83E0FCA3E0FD22900739
:107DF00061E0F8A3E0F9E84922C082C0839007FB64
:107E0000127DF160109007FB127ABC126793900705
:107E1000FBE4F0A3F09016CC740AF0027AF174F04F
:107E200012486D74F81247FD8A0A8B0B8C0C8D0D6D
:107E300090822B780A1244F4500C750A40750B9C02
:107E4000750C00750D00AC1AAD1B740412485B1262
:107E500053D5127F857062851A82851B83780A123A
:107E600046C1127F857003027EF990082D7401F0DF
:107E700090082C7402F0908227780A1244F440088B
:107E8000127F856003027F7BC2AFE51C7003027F17
:107E90007990082CE0F9125564E96003027F7912A9
:107EA00066FD127F85607D908223780A1244F4502B
:107EB0005E90821F124A93805B740C780A12461BF4
:107EC00090821B780E1246C1780A790E124593856E
:107ED0001A82851B831246EBE8494A4B601B851AC0
:107EE00082851B83780A1244E4500E851A82851B12
:107EF00083780A1246C1027E6A90082DE4F0127F50
:107F0000856003027E7090082C7403F0027E8878EE
:107F10000A124A7C74081248491246DF1267157427
:107F20000412481353BEFC90082CE042BEE5ADA2FB
:107F3000E050FA751C0185A80AAFB8AE9A53A82084
:107F400053B820539A12D2AF12670990082DE064FB
:107F5000017006A2C74002E4F0850AA88FB88E9A85
:107F600090082CE064037004790180027900900885
:107F70002DE0FA1255FD126703D2AF7408124813B0
:107F80007F0802493FE50A450B450C450D2274F474
:107F900012486D74FC1247FD851A82851B83EAF036
:107FA000A3EBF0A3ECF0A3EDF0C2AD7410124849BE
:107FB000780A1246C1908203780A12464D851A82C9
:107FC000851B83780A1246607402124849E0F597CF
:107FD0007401124849E0F596851A82851B83E0F505
:107FE00095C2C7D2AD74041248137F0402493F0200
:107FF00044A70244A7FFFFFF851C87C2AF0244A726
:10800000C082C083E99015DAF0D083D0820244A701
:1080100074F612486DE99002E7F0900347E0F50A24
:10802000750B007402780A1247EAAA0AAB0B1268B1
:108030002F9002E81289C39002E8128DB0606F9011
:108040000347E075F003A4FAABF012682F90030524
:108050001289C3900305128DB0700B9002E8128D47
:10806000811268358048900305129D157AFF7BFFC9
:108070001266797A0080198A0A750B007402780AF0
:108080001247EA1297BD74FF1281C3E4F0A3F00A0D
:10809000900347E0F8EAC39840DD7905125D3D9012
:1080A00002E7E0F9125C297AC77B5D125FB902989A
:1080B0006074F412486D8A0A8B0BEB548060479011
:1080C00002E7E0F91267A58A0C8B0DAE0CAF0DEE3E
:1080D0004F602A8E828F83E064B0701A125D4FE980
:1080E00060148E828F83A3A3A3A3E0F9EE2405FA84
:1080F000E43FFB125D1FEEFAEFFB126793AA0AE55D
:108100000B6480FB80047A007B0002831374F212FC
:10811000486D74FB1247FDEAFEEBFFEE4F604574BD
:1081200003124849EEF0A3EFF0851A82851B83EC19
:10813000F0A3EDF07402124849E9F0AA1AAB1B1241
:108140005C23E9F50A70757413124849E0F50CA335
:10815000E0F50DE50C450D60638E828F8312874C30
:10816000EE4F7005750A0280537A067B0012682F65
:108170008A0E8B0FA80EA90FE8497005750A1380A7
:108180003B88828983E41281C3EEF0A3EF1282DF81
:10819000E50CF0A3E50DF09002EB1282D89002EB13
:1081A0006017E0FCA3E08003EAFCEBFD8C828D838A
:1081B0001282D870F38C828D831293D8A90A740529
:1081C000029F95F0A3129CF7A32274F212486D89C6
:1081D0000A890E750F007403780E1247EA850E0C9B
:1081E000850F0D9002EAF09002E81291E31282D618
:1081F000602E1268357900801D890E750F0074029B
:10820000780E1247EA9002E812967C8882F583A3E2
:10821000A3E4F0A3F009900347E0F8E9C39840D93C
:10822000900347E0FA850CF0A4CAA8F0850DF0A4ED
:1082300028FB12682F8A0E8B0FAE0EAF0FEE4F7019
:10824000030282CC900347E0FC850CF0A4CCA8F09C
:10825000850DF0A428FD79001267817C0080318DA6
:108260000E750F007403780E1247EA8A828B831210
:1082700082D188828983E4F01282DEA3A3F0A3F086
:108280000DEDC3950A40D8EE250CFEEF350DFF0C21
:10829000900347E0F8ECC39850288C0E750F0074DB
:1082A00002780E1247EA9002E81282D1E8240250C6
:1082B0000109FAE9FB8A828B83EEF0A3EFF07D00DF
:1082C00080BFE50A9002EAF0790080027913029FEC
:1082D00098129680F922A3A3128D85EA4B22A3124D
:1082E0009CF7A3A3A32274F412486D7900EAA2E0DC
:1082F000501F750A92750B81780A124A8079107C9A
:10830000047D007ADC7B15125D377402124813E994
:10831000F980007F0402493FC082C0839002EB12C3
:108320008DB0601C88828983A3A3E06A7003A3E0F8
:108330006B8882898370E8A3A3A3A3128D81800434
:108340007A007B0002800974F212486D74FD1247B6
:10835000FDEAFEEBFF851A82851B83E4F0A3F0742F
:10836000021248497401F0128DAD7014125EF312BE
:10837000682F9002EE1289C3128DAD70030284D96A
:10838000128AC3EE2404F50CE43FF50D850C82F54A
:1083900083E024FE603C24FC607424FE607E24FEA6
:1083A000700302842924FE700302843624FE7003C5
:1083B00002844324FE700302845024FE700302846E
:1083C0005D24FC700302847E24FE70030284960206
:1083D00084D2125EF39002F0EAF0A3EB1284E5126D
:1083E000596BE960030284D29002F0124A978E82A0
:1083F0008F83A3A3A3A3A3129D15850A82850B8354
:10840000128D81125D0774021248130284D2AC1AD5
:10841000AD1BEEFAEFFB125D550284A1AC1AAD1B49
:10842000EEFAEFFB125D5B8078AC1AAD1BEEFAEF53
:10843000FB125D61806BAC1AAD1BEEFAEFFB125DB7
:1084400067805EAC1AAD1BEEFAEFFB125D6D8051DA
:10845000AC1AAD1BEEFAEFFB125D7380447402128E
:108460004853880E890F780E124A807402124863AE
:10847000EEFAEFFB125D7974021248138023AC1AF6
:10848000AD1BEEFAEFFB125D7FE9F8701674021275
:108490004849E4F0803CAC1AAD1BEEFAEFFB125DEC
:1084A00085E9F8E8602C8E828F83A3E06414602253
:1084B000850C82850D83E09002F0F0851A82851B81
:1084C00083128D819002F11289C3E8A31284E51210
:1084D0005965EEFAEFFB125CDD7402124849E0F9CF
:1084E0007403029F95F07CF07D02850A82850B83E0
:1084F000128D852274E812486D74FA1247FD7404D7
:10850000124849ECF0A3EDF08A148B15EA2405F526
:1085100010E43515F511EA2402F512E43515F513CA
:10852000851282F583128D81125A5B8A0C8B0D7530
:108530000A007C037D0079007AF07B02126781E5F6
:10854000102402F518E43511F51974021248538805
:108550000E890F780E124A80851082851183A3A39D
:10856000A3A3E0F50E750F00780E124A80E51024E3
:1085700005F50EE43511F50F780E124A8085188244
:10858000851983129088125C4174061248138A0E72
:108590008B0FE50E450F70030287158020851A8228
:1085A000851B83E088828983F0050A851A82851BF2
:1085B00083A3E0C0E0128756D0E0F0050AE50C2462
:1085C000FBFAE50D34FFFBC3E50A9AE49B40030286
:1085D00087157E007F00851482851583A3A3A3A33E
:1085E000E0F50B780B124A84E4F516F517781612AD
:1085F0004A807516ED7517027816124A809002EEC1
:10860000124A977409124849124A97E50C24F9F95D
:10861000AC0EAD0F851282851383128D81125DAF72
:108620007409124813E960030286B6851082851129
:1086300083A3A3A3A3A3A3A3E0F89002EDE0687033
:1086400075E0F5168E177816124A80129D12851065
:1086500082851183A3A3A3A3A3A3A3A3128D811235
:10866000677B7402124813E9604C9002F1128DB0DE
:10867000703BE4F5167816124A807CFF7DFF79077F
:10868000851282851383128D81125D19740212483E
:1086900013128DB67017851082851183129EAF74E8
:1086A000041248491297701290B9028749850E82C8
:1086B000850F8312874CA81AA91B8816891778166C
:1086C000124A807404124849124A97851882851903
:1086D000831289B9125C4D74041248138A0E8B0FF1
:1086E000EE4F7003028592128756EE128761129048
:1086F0006FEF128761F8A3E03400F9E50E450F60D3
:108700000302859D8882898374FFF0050A128756CB
:1087100074FFF0050AE50A601A1313543F1289C961
:10872000125977E960099002F1128D811267ED7993
:10873000008016851082851183129EAF7404124842
:10874000491297701293D8790A029042A3A3A3A367
:10875000E0FEA3E0FF22A80A9002F1E02812906F49
:1087600022F0050A089002F1E0282274E812486D10
:1087700074FA1247FD74021248491289C374041234
:108780004849ECF0A3EDF07402124849E0240512C8
:108790009058E0F50EA3E0F50F7402124849E0246A
:1087A00002F512A3E03400F513851282F583128DD1
:1087B00081125A5B750A00750B00EA24FCFEEB344B
:1087C000FFFF8008050EE50E7002050FA80AC3EE34
:1087D00098EF94005003028975A81AA91B88108984
:1087E000117810124A80851682851783A3A3A3A34C
:1087F000129D19124A80E5162405F510E43517F587
:10880000117810124A808516828517831289B71253
:108810005C4174061248138A108B11EA45117003EB
:10882000028975EA2404F518E43511F519851882D2
:10883000F583E0F50EA3E0F50F851A82851B831200
:108840009D158A828B83A3A3A3E0F98512828513E9
:1088500083128D81125C2FE9F50B60030289757418
:108860000212484912907FF50B780B124A84E4F506
:1088700014F5157814124A807514ED7515027814E4
:10888000124A809002EE124A977407124849124A1F
:1088900097EEF9AC10AD11851282851383128D818C
:1088A000125DAF7409124813E9F50B600302897574
:1088B000E50A703FE4F510F5117810124A807CFF4C
:1088C0007DFF7909851282851383128D81125D19CE
:1088D00074021248131290A5700D740412484912C4
:1088E00089AC79110289A99002EDE024029002F18D
:1088F000F080149002F1E0FA9002EDE07900240299
:108900005001096A497072A80A9002EDE0FAE82A5B
:10891000FAE43400FBEE9AEF9B405A8518828519E1
:1089200083E0C0E09002F212875BD0E0F0050A8598
:108930001882851983A3E0C0E0089002F212875BD9
:10894000D0E0F0050A9002ED129D19124A80129DA6
:1089500012A80A12904C126769740212481390020E
:10896000EDE0250AF50A74FF650E700474FF650FCB
:1089700060030287C4E50A601F9002F1E0F5F0E5AC
:108980000A841289C912597DE960099002F2128D98
:10899000811267ED79008011E50B7003750B0A7485
:1089A000041248491289ACA90B0290421291E7E5E2
:1089B0000EF0A3E50FF022A3A3129FA4AA0EAB0F03
:1089C00022A3A3EAF0A3EBF0229002F0F07CF07D6A
:1089D00002851282851383128D852274EC12486DF4
:1089E00074FC1247FD1294E87402124863128D7BE6
:1089F000125C478A0E8B0FEA450F7003028AB3128E
:108A00008AC3A81AA91B881289137812124A807C7B
:108A1000FF7DFF790B850A82850B83128D81125DA4
:108A2000197402124813128BB9700C850C82850DD3
:108A3000831290B6028AC08E828F83A3A3A3A3E081
:108A4000F5147814124A84E4F514F5157814124AD2
:108A5000807514F07515027814124A807812124A43
:108A6000807409124849124A977409124849E0F97A
:108A7000AC0EAD0F850A82850B83128D81125DAF1E
:108A80007409124813E9FE70157CF07D02850A8294
:108A9000850B83128D81125983E970098020741629
:108AA0006E70027E009002F1128D811267EDEE7001
:108AB00004800B7E01850C82850D831293D5EEF91F
:108AC0000293EAEE2402F50AE43FF50B2274EC125D
:108AD000486D74FC1247FDEAFEEBFF8C108D11EE21
:108AE0002405F50AE43FF50B7402124863850A82F7
:108AF000850B83128D81125C478A0E8B0FEA450F1E
:108B00007003028BA9EE2402F50CE43FF50DA81AC0
:108B1000A91B881289137812124A807CFF7DFF7985
:108B20000D128D7B125D197402124813128BB970ED
:108B30000B850A82850B831290B6807A8E828F8392
:108B4000A3A3A3A3E0F5147814124A84850A8285AE
:108B50000B83A3A3124A977514F0751502781412AB
:108B60004A807812124A807409124849124A97744E
:108B700009124849E0F9128D77125DAF7409124865
:108B800013E9FE700F7CF07D02128D7B125989E98A
:108B90007009802074166E70027E009002F1128DB2
:108BA000811267EDEE7004800B7E01850A82850BD1
:108BB000831293D5EEF90293EA128DC0F512A3E069
:108BC000F513EA45132274E812486D74FE1247FD4E
:108BD0008A188B198C168D17EA2405F50EE43519C1
:108BE000F50FEA2402F510E43519F511851082F528
:108BF00083128D81125A5B8A0A8B0B750D007C03E0
:108C00007D0079007AF07B02126781750C00E50A1D
:108C100014F5120424FFF50AE50B34FFF50B80541C
:108C20009002F0E0FA9002EDE0F8EA28F8E434006F
:108C3000F9E50A98E50B99500D9002F0E0F8E5127D
:108C4000C3989002EDF0E0F5147515007814124AFF
:108C500080129D129002F1E02AFAA3E03400FB1288
:108C6000676974021248139002EDE0F89002F0E098
:108C700028F0050C850E82850F83A3A312968C40E5
:108C800003028D5C9002F0E0C3950AE4950B40036B
:108C9000028D5CAE0CEE2EFEE433FF128D9BAC1AFF
:108CA000AD1B129D2DE439FB125C478A148B15AC69
:108CB00014AD15EC4D701B750D01128D8B1293D9EF
:108CC0009002F11282D860031267EDA90D740202BE
:108CD0009044851882851983A3A3A3A3E0F50D789A
:108CE0000D124A84E4F514F5157814124A807514AF
:108CF000ED7515027814124A809002EE124A9774AC
:108D000007124849124A97A91285108285118312C9
:108D10008D81125DAF7409124813E9F50D709B90B7
:108D200002F1128DB06003028C20E4F514F5157881
:108D300014124A807CFF7DFF790F85108285118394
:108D4000128D81125D197402124813128DB66003E0
:108D5000028C20128D8B1290BA028CCD7CF07D0299
:108D6000851082851183128D8112598FE96003026B
:108D70008CC07900028CCDAC0EAD0F850C82850DB8
:108D800083128D8522E0FAA3E0FB22128D9BE0FA8C
:108D9000A3E0F9EA85168285178322850E82850F66
:108DA00083E02EF8A3E03FF988828983229002EEC7
:108DB000129EB3E84922128DC0F8A3E0F9E84922D7
:108DC0009002F1EAF0A3EBF09002F1E02274E812D5
:108DD000486D74FA1247FD74041248491289C38C15
:108DE000188D197404124849E02405F510A3E034E5
:108DF00000F5117404124849E02402129058128DB3
:108E000081125A5B8A0C8B0D7F007E00A81AA91B69
:108E1000880A890B780A124A80851082851183A3FB
:108E2000A3A3A3E0F50A8E0B780A124A80E510246A
:108E300005F50AE43511F50B780A124A808510828F
:108E4000851183A3A3129088125C41740612481303
:108E50008A0E8B0F8029129079F00F129079F00F03
:108E60009002ED1293C4124A80129D12EFF81290F4
:108E70004C12676974021248139002EDE02FFFE56F
:108E80000E450F7003028F08851A82851B8312948A
:108E9000FAA3A3A3E0F9851682851783128D8112A8
:108EA0005C2FE9FEE50E2404F512E4350FF513EE10
:108EB0007050740412484912907FF50A780A124AD9
:108EC00084E4F50AF50B780A124A80750AED750BF1
:108ED00002780A124A809002EE124A9774071248EA
:108EE00049124A97E50C24FAF9AC0EAD0F851682AB
:108EF000851783128D81125DAF7409124813E9FE44
:108F000060391290951293D8EF700302902F90025F
:108F1000F1E0F5F0EF849002F0F07CF07D02851630
:108F200082851783128D81125995E960099002F2AA
:108F3000128D811267ED79000290428F0AEF703B2B
:108F4000E4F514F5157814124A807CFF7DFF791141
:108F5000851682851783128D81125D19740212485D
:108F6000131290A570091290951290B90290429038
:108F700002EDE024049002F1F080359002EDE0F87B
:108F80009002F1E0FAE82404FCE43400FDEC6A4DC0
:108F90006003028F0EE50C24FAFAE50D34FFFBE5C1
:108FA0000A28F8E43400F9EA98EB995003028F0E8E
:108FB000851282851383E0C0E09002F2E02FF8A3CF
:108FC000E034008882F583D0E0F00F8512828513AB
:108FD00083A3E0C0E0129066D0E0F00F7402124864
:108FE00053880A890B780A124A807402124849127F
:108FF0004A978510828511831289B7125C4D7404DB
:109000001248138A0E8B0FEA450F7003028E5674B6
:1090100002124849E0C0E0129066D0E0F00F7402FE
:10902000124849A3E0C0E0129066D0E0028E5EEEE6
:1090300070027E0A85108285118312909B1293D84C
:10904000EEF974061248137F1002493F9002F2E0D5
:1090500028FAA3E03400FB22F516A3E03400F5174C
:10906000851682F5832212906A229002F2E02FFA8E
:10907000A3E034008A82F5832212906A74FF2212E0
:1090800091E7A3A3A3A3E022129FA48510828511D8
:1090900083128D8522851282851383129EB38518D3
:1090A00082851983229002F2EAF0A3EBF09002F29B
:1090B000129EB3E849221293DEE8F0A3E9F0791199
:1090C0002274EA12486D74FE1247FD8A0A8B0B8CDB
:1090D000148D15EA2405FEE4350BFFAC1AAD1B8E8A
:1090E000828F83128D81125C478A0E8B0FEE2406CD
:1090F000F510E43FF511EA450F70030291B9E50A56
:109100002402F50CE4350BF50D8A828B83A3A3A30F
:10911000E0A2E55028851A82851B83128D81125D9D
:10912000A38A128B13EA451360207912128D77857A
:10913000128285138312486BE9F50E707F851082C9
:10914000851183E0600979528011750E0E806D855E
:109150000A82850B83A3A3A3A3E0F9E4F50AF50B28
:10916000780A124A808E828F83A3A3E0F50A780AD8
:10917000124A808E828F83A3A3A3124A978E828F76
:1091800083129D15128D7B125DB57406124813E98A
:10919000F50E7011851082851183E0702D128D7B84
:1091A00012599B80257416650E7011750E00741887
:1091B0001248491291E3E48010750E01129EAB85AE
:1091C0001482851583E8F0A3E9F085108285118368
:1091D000E0600479008002A90E74021248137F0E29
:1091E00002493F1291E722E0F8A3E0F5838882224A
:1091F00074EC12486D74F71247FD8A0C8B0D8C12BB
:109200008D13EA2405FEE4350DFF750E00AC1AAD92
:109210001B8E828F83128D81125C478A0A8B0BEA28
:10922000450B70030293AFE50C2402F50C500205C8
:109230000D8A828B83A3A3A3E0A2E5502F851A8217
:10924000851B83128D81125DA38A0E8B0FEA450F59
:10925000604F7912AC0AAD0B128D7B850E82850FA3
:109260008312486BE9F50E60030293B2850C828588
:109270000D83E0F50AA3E0F50BAA0AFB125D97EA5D
:109280004B70197AFF7BFF125D97EA4B70030293D4
:10929000A58A828B83E50AF0A3E50BF0750A0080AE
:1092A00008750E0E0293B2050A9002EAE0F8E50A8C
:1092B000C39840030293A5850A10751100740378C2
:1092C000101247EA8A828B83A3A3E02510F8A3E05B
:1092D000351112977970D08E828F831293CD1289B7
:1092E000C38E828F83A3A31293CD1289C1EE24046F
:1092F000F50AE43FF50B850A82F583E088828983CD
:10930000A3A3A3A3F0A3E4F0EE2405F510E43FF536
:1093100011851082F5831293CDA3A3A3A31289C153
:109320007514077515007814124A80EEFCEFFD7471
:109330000412485B1267697402124813E4F514784A
:1093400014124A80850A82850B83E0FC7D00791720
:10935000128D7B125D19740212481374071248496A
:109360001289C37407124849E0FA4B603D850A82AE
:10937000850B831293C4124A808510828511831253
:109380009D15126769740212481374021248631221
:109390008D7B1259A1E960267407124849128D810C
:1093A0001267ED8019750E098008750E118003751E
:1093B0000E01129EAB8512828513831293D8A90EDB
:1093C00074098028E0F50A750B00780A22128D8551
:1093D00088828983221293DEE8F0A3E9F022E0F884
:1093E000A3E0F98510828511832274041248137F4B
:1093F0000C02493F74EC12486D1294E8751200EEAD
:109400002402F50EE43FF50F850E82F583128D815F
:10941000125D978A0A8B0BEA450B70030294CC8588
:109420000C82850D83E0640160030294C1AC0AAD37
:109430000BAA0CAB0D125D8BE9606E850A82850B61
:109440008312874EEE2406F50CE43FF50D8E828FD5
:1094500083A3A3124A978E828F83A3A3A3A3124A46
:1094600097850C82850D83124A9779188E828F8397
:109470001294FA128D81125DB57406124813E9F840
:10948000741668700B850C82850D83E4F0A380143C
:10949000E860128E828F83128D8185108285118300
:1094A000EAF0A3EBF0881280187810124A80AC0A18
:1094B000AD0BEEFAEFFB125D917402124813E9F561
:1094C00012AA0AAB0B125D9DE512700E850E828505
:1094D0000F83128D811259A78009741665127003CB
:1094E000751200A9120293EFEAFEEBFF8C108D11AA
:1094F000EE2405F50CE43FF50D22129FA4850E82A3
:10950000850F832274EA12486D750A00750B007E80
:10951000007F00750C00EC2402F512E43DF5138089
:1095200035EC650A7003ED650B60030295B988821E
:109530008983A3A3E06A7003A3E06B707C888289AF
:1095400083A3A3A3A3129EAFEE28FEEF39FFEA2860
:10955000FAEB39FB050C129689503A850C0E750F03
:10956000007403780E1247EA8512828513831296DF
:109570007C129779601FE50A450B70A58C0A8D0B4C
:109580008882898312874C88828983A3A3E02EFA7C
:10959000A3E03F80BEE50CC39402500302967775AA
:1095A0000A00750B00EE4F6010EEFAEFFB1267E752
:1095B0008A108B11EA451170057900029679750DB4
:1095C0000002964C850D0E750F007403780E12473D
:1095D000EA851282851383E0250EF50EA3E0350F90
:1095E000F50FE50E2406F516E4350FF517851682FE
:1095F000F58312977E6042E50E2404F514E4350FDE
:10960000F515851482F583124A97E510250AFAE5C7
:1096100011350BFB12676974021248138514828599
:109620001583E0250AF50AA3E0350BF50B851682B4
:10963000851783128D811267EDE50D600D7C087D25
:10964000007900AA0EAB0F126781050DE50DC395D9
:109650000C50030295C4851282851383129EAF8835
:10966000828983A3A3A3A3A3A3E510F0A3E511120A
:1096700082DFEEF0A3EFF079010291DE12968022F4
:10968000E0250EF8A3E0350F229002EAE0F8E50CA1
:10969000C3982274F012486D8A108B118C0C8D0DBA
:1096A000750F00750E0080507916EE2406F50AE459
:1096B0003FF50B8E828F83A3A3124A978E828F83EE
:1096C000A3A3A3A3124A97850A82850B83124A9704
:1096D000851082851183A3A3128D81125DB5740656
:1096E000124813E9F50F7416650F706C850A8285B0
:1096F0000B83E4F0A3F0050E9002EAE0F8E50EC358
:10970000985066AA0E8A0A750B007403780A1247ED
:10971000EA850C82850D83A3A31297C8E8FEE9FFB2
:109720008E828F8312977E6040EA2401F50AE4342A
:1097300000F50B9002EAE0650A7002E50B60148800
:10974000828983A3A3A3A3A3A3A3A3128DB06003C1
:109750000296A879180296AAE9609B129EAB741033
:109760001248491297701293D8A90F7F0802493FF7
:10977000E0FAA3E0F5838A8222F988828983129F26
:10978000A4EC4D2274F612486D7C0080010C90030D
:1097900047E0F8ECC398501E8C0A750B00740278F1
:1097A0000A1247EA1297BDE06A7003A3E06B70DD0E
:1097B000E8FAE9FB80047A007B000298609002E8F6
:1097C0001297C88882898322E0250AF8A3E0350B26
:1097D000F92274F212486D8A0A8B0B750C008027EF
:1097E0008E828F83A3A3A3A31282D660031267ED98
:1097F0007C087D007900EEFAEFFB1267818E828F84
:1098000083E4F0A3F0050C1296895027850C0E75A1
:109810000F007403780E1247EA850A82850B83A332
:10982000A3E0250EFEA3E0350FFF8E828F83128DFD
:10983000B070AD850A82850B8374FFF0A3F0029FA0
:109840009874F612486D125D498A828B83E58245D1
:109850008370067A007B008007A3A3A3A3128D81E7
:109860007F0202493F74F412486D890A8C828D830D
:10987000E06402703C129E4EFEA3E0F9EEF8740222
:109880006870037429697029750C02750D00780CD5
:10989000124A807410124849124A977410124849AB
:1098A000124A97A90A12668B7406124813E9F980C6
:1098B00002790102831374E812486D74FB1247FDAC
:1098C000E9851A82851B83F08A188B19ECFEEDFF5F
:1098D0007512008E828F83A3A3A3E0A2E4502D749F
:1098E0001D124849128D81125DA38A828B83E58205
:1098F00045837003029CED790AEEFCEFFDAA18ABDC
:109900001912486BE9F5126003029CF0741F1248AB
:1099100049E0F50AA3E0F50B7421124849E0F50C83
:10992000A3E0F50D7423124849E0F510A3E0F5110A
:109930008E828F83E064026003029C8EA3129EAF2E
:10994000850A82850B83A3858214858315EE240600
:10995000F50EE43FF50F88828983129D2DF516E4FC
:1099600039F5177816124B0A010000280128909942
:1099700007000228559A0328C3990029849B0129CE
:10998000AF9B0229509B0329849B0429289C8E9C11
:10999000E51045116003029C89850E82850F8312B4
:1099A0009EAFE8FAE9FB8A828B83E0850C82850D05
:1099B00083129D38124A808A828B83A3E0FCA3E045
:1099C000029C12E51045116003029C89850C82857A
:1099D0000D837401F0129D22850A82850B83F07C31
:1099E000007D008E828F83A3A3A3A3E02401FAA3AA
:1099F000E03400FB125C47EA4B60408A828B83E0D4
:109A00002402F8850C82850D83E028F0EA2404F80E
:109A1000E43BF988828983E0851482851583129D51
:109A200046129D38124A808A828B83A3129D15E5C7
:109A30000A2403FAE4350BFB029C17850C82850D82
:109A400083E02404F07C047D007900AA14AB151295
:109A50006781029CF0E51045116003029C89129D0C
:109A600022FEA3E0FF850C82850D837404F0EE8551
:109A70000A82850B83F0EF851482851583F07403C9
:109A8000124863EEFAEFFB125C478A0E8B0FEA4531
:109A90000F7003029B338A828B83A3A312874C74BB
:109AA00001124853881089117810124A80740512E7
:109AB0004849124A977CFF7DFF125C4D740412489E
:109AC000138B11EA45117033850E82850F83129D29
:109AD00019124A80850E82850F83A3124A977C0251
:109AE0007D007A537B82125A497404124813E9703C
:109AF0000A740112484974FFF0A3F08E828F83E04C
:109B000064027039750E02750F00780E124A808E4D
:109B1000828F83A3129D15E50A2404FAE4350BFB1A
:109B20001267697402124813850C82850D83E02444
:109B30000280097401124849EEF0A3EFF07401129B
:109B40004849129D077401124849129CFE029C83E9
:109B5000E51045116003029C89850E82850F8312F2
:109B60009F9DAA18AB19126691850C82850D83748E
:109B700002F0850A82850B83EAF0851482851583BD
:109B8000EB029C86E51045116003029C89129D2220
:109B9000F8A3E0F9850C82850D837402F0E8850A4C
:109BA00082850B83F0E9851482851583029C868566
:109BB0000E82850F83128D81126763EAFAF8C395CE
:109BC00010E49511405CE86510451170047A00803E
:109BD00021851A82851B83E0FCE5102CFCE43511FD
:109BE000FDC3EC98ED94005003E08005E510CAC376
:109BF0009AFAEA850C82850D83F08A0C750D00783F
:109C00000C124A80850E82850F83E02510FCA3E0AC
:109C10003511FDAA0AAB0B126769740212481302D0
:109C20009CF0751207029CF0E5104511705B850EE3
:109C300082850F83129EAF850C82850D837407F099
:109C400088828983129CFF129CF7E0851482851517
:109C500083F0E82402FAE439FB8A828B83129D07A1
:109C60008A828B83129CFEA3A31282DE129D0CF0CB
:109C7000E82405F850010988828983129D0CA312FB
:109C80009D46A3A3A3A3F0806775120B8062741D89
:109C9000124849128D81125D498A828B83E5824583
:109CA00083604A129EAF880E890FE8450F603E74AC
:109CB00025124849E0F5127812124A847810124AA7
:109CC00080780C124A80780A124A80740712484938
:109CD000E0F9EEFCEFFDAA18AB19850E82850F8323
:109CE00012486B7407124813E9F512800375120EBF
:109CF000A9127405029044F088828983A322A3E00C
:109D0000850A82850B8322129D4DF022129D4DA360
:109D1000A3229002EE129FA422E0F51075110078A4
:109D20001022850E82850F831291E7E022E0FAA3CC
:109D3000E0F8E4C8F9EA2822F08A828B83E0F50C87
:109D4000750D00780C22129CF7129D4D22E0850AB9
:109D500082850B83A3A32274EE12486D74FE124712
:109D6000FD8A0A8B0BECFEEDFF890CAC1AAD1BEEE5
:109D7000FAEFFB125C478A0E8B0FEA450F70030265
:109D80009E3F851A82851B83128D81125D498A82CE
:109D90008B83E58245837003029E3AA3A3129EAF94
:109DA00088108911E845117003029E3A7414124814
:109DB00049E0F512A3E0F513E50CF50D780D124A14
:109DC000847419124849124A977812124A80741BF7
:109DD000124849E0F9AC0EAD0FAA0AAB0B85108210
:109DE00085118312486B7405124813E9F50D705202
:109DF00074FE650C604C850E82850F83E0640270F2
:109E000041129E4EFAA3E0F9EAF8740268700374F6
:109E10002969702E851282851383129D2DF50EE41B
:109E200039F50F780E124A80EEFCEFFDAA0AAB0B53
:109E3000125DCD74021248138008750D0E800375F3
:109E40000D01A90D74021248137F0A02493FA312A3
:109E50009EB388828983E02274F612486D74FE12E4
:109E600047FD740C124849129EAFE8851A82851B83
:109E700083F07401124849E9F0E4F50AF50B780A19
:109E8000124A80750A02780A124A807404124853F2
:109E9000880A890B780A124A8079FE125DB5740629
:109EA00012481374021248130298608E828F831234
:109EB0009EB322E0F8A3E0F92274F712486DEAFE9F
:109EC000EBFF890A900305129D15126691EA540270
:109ED000600BA90AEEFAEFFB125C3B800279017F6E
:109EE0000102493F74F212486D74FE1247FDEAFE0A
:109EF000EBFF890C7401650C60147402650C60033F
:109F0000029F937901125FD7E96003029F93EEFAF3
:109F1000EFFB125D97EA4B6003125D9DA81AA91B27
:109F2000880A890B780A124A80750A02750B007834
:109F30000A124A80750A5F750B82780A124A807C81
:109F4000FF7DFF7A017B00125C417406124813808A
:109F500038850A82850B83A3A3A3A3A3A3129F9D85
:109F6000EEFAEFFB126679E4F50EF50F780E124A61
:109F7000807402124849124A977CFF7DFFAA0AABFF
:109F80000B125C4D74041248138A0A8B0BE50A45C8
:109F90000B70BE74021248137F0602493F1291E70C
:109FA000129FA422E0FCA3E0FD2274F412486D8A03
:109FB0000A8B0BECFEEDFF9015DAE0F4604B7A09AA
:109FC0007B0012678DEA4B60408A828B8374B1F00C
:109FD000A3E412A00CF08A828B83A3A3E50AF0A36A
:109FE000E50B12A00CA3EEF0A3EFF0740C1248499D
:109FF000129EAF8A828B83A3A3A3A3A3A3A31293CE
:10A00000D89015DAE0F9126799028313F08A828BEF
:10A0100083A3A3A3A322C082C0839061907404F0A1
:10A02000A37448F0A37402F09061807440F09061D2
:10A03000BC7403F09061877419F0906265741BF032
:10A04000906249E0C3941390619C40107409F090B1
:10A0500060667401F090619F7428800D740BF0901D
:10A060006066E4F090619F742CF012A2017009C246
:10A0700091900379746780059003797461F012A25E
:10A0800052906980E493F46006E493F91260D37906
:10A09000051263A902A260C082C083E9540FF9903F
:10A0A0006185E0696012E5C654B84441F5C6E59E95
:10A0B0005447644170F8E9F053C6B8E59E544770C0
:10A0C000FA02A260C082C083A8A853A87E906181D2
:10A0D000E412AEE1C2BA539AFEC289759B00C2C2B5
:10A0E00075E90075910075BF0075A91175B90590E6
:10A0F0006181F0A374C0F0A3E4F0D2BA439A017472
:10A10000805842A802A260F0A3F002A260C082C000
:10A110008374F81247FD90037712B3E1700302A134
:10A12000F9900377E0544060177908AA1AAB1B1224
:10A1300061CFAA1AAB1B125E39900377E054BFF0CF
:10A14000E054806010790C7A407B051261CF900357
:10A1500077E0547FF0E0A2E0501E12A2017009C225
:10A1600091900379746780059003797461F0125EB1
:10A170003F900377E054FEF0E05402601E12A245C7
:10A180007009D29190037974718005900379746A93
:10A19000F0125E3F900377E054FDF0E0540460104D
:10A1A00090697C12A255125E45900377E054FBF053
:10A1B000E05408601090697D12A255125E4590032C
:10A1C00077E054F7F0E05410600D12A252125E4591
:10A1D000900377E054EFF0E05420600A125E45905F
:10A1E0000377E054DFF0A3E05401600D1260F11238
:10A1F0005E4B900378E054FEF0740812481302A2FC
:10A200006090619A12A45290051AE0640122C08203
:10A21000C083E96005146017802912A2017009C289
:10A22000919003797467801A900379746180131296
:10A23000A2457009D29190037974718005900379D9
:10A24000746AF0801B90619A12A44490051AE0642D
:10A25000012290697EE493906186F022A2E092AFA1
:10A26000D083D0820244A774EA12486D74F4124776
:10A27000FD9081E3AC1AAD1B740412471090697C09
:10A2800093F4600302A3D9907808E0C394025003CA
:10A2900002A3BD90817274041248637408124710BF
:10A2A000A81AA91B881689177404124853880A89AA
:10A2B0000BAE0AAF0B7512FF7513FF7510FF7C0014
:10A2C000750E48750F78801274086C700302A353E2
:10A2D00074096C607E740A6C6079850E82850F83C8
:10A2E000780A1246C18E828F83A90BE50CC9F888C3
:10A2F000147418780A124602E514450AF8C3E09867
:10A30000A3E099850E82850F83780A1246C1401812
:10A310008E828F837418780A124602E514450AF873
:10A32000E0C398F8A3E0801A7418780A124602E590
:10A3300014450AFAE9FB8E828F8312B0A8EAC3980B
:10A34000F8EB99F9C3E89512E9951350068812893C
:10A35000138C100CE50E2404F50E5002050FECC30F
:10A360009413500302A2C874FF6512700474FF6551
:10A3700013602485100A7402780A1247EA7448258B
:10A380000AF5827478350BF583780A1246C1851672
:10A3900082851783E50AF0EE2402FE50010F851630
:10A3A00082851783A3858216858317740C1248490A
:10A3B000E5826E7003E5836F600302A2B5750A0142
:10A3C000750B00780A124A8074021248637A5F7B28
:10A3D0001A1266EB7402124813740C1248137F0EA3
:10A3E00002493FC082C0839061AE7468F0A3746A72
:10A3F000F090624574FBF0A304F053F4FD43FE02B9
:10A4000090051A7401F09061A0E0643A90619A702E
:10A410001912A452740164017009C29190037974F5
:10A4200067801E9003797461801712A444740164DC
:10A43000017009D291900379747180059003797449
:10A440006A02A109743FF0A3745AF09061A0747F6E
:10A45000F0227433F0A37455F09061A0743AF022A6
:10A460007F0402493FC082C0839004CCE064017045
:10A470000A9004D1E06004790C8002790002A260A5
:10A48000C082C08375E1F19004CFE060511460098F
:10A4900014605514604D1470541261039004BEE0B2
:10A4A000F97ABF7B0412632B9081E71246DF1263B7
:10A4B000619081BF1246DF1263379004D0E0F91239
:10A4C0006343790112639D12A59F241AF582E43833
:10A4D000F583741BF0A37461F0790002A26012612D
:10A4E0000980B912610F80B412611580AF791280B2
:10A4F000EA74F412486D75D90D9004C5E0A2E0E449
:10A50000331313F812A6D7484401F5D97582BF75E5
:10A51000830412A6E17004E583640470F57582C6B5
:10A5200075830412A820E58264CC7004E58364047A
:10A5300070F175E1959004C5E0F97AC67B04126369
:10A54000319015FE74A9F0A3746012A61612A660CD
:10A5500012A65712A79A9004CFE064019004BC7031
:10A560000B12A5A81246C19081EB800912A5A81272
:10A5700046C1908213780A12464D9081B3780A1230
:10A58000469B12A59F12A64E780A1246D012A59F8E
:10A5900012A6457413F09003757402F002A4609043
:10A5A00004BCE0F8A3E0C82212B350780A2274F782
:10A5B00012486D12A6C7F5D97582BF75830412A61D
:10A5C000E17004E583640470F59004D5E0600A78D6
:10A5D000D67904FA12A6BBDAFB12A76812A6E170BC
:10A5E00004E583640470F59004F5E0600A78F67978
:10A5F00004FA12A6BBDAFB75E1959015FE74B5F06E
:10A60000A3746012A61612A6207412F0900375743B
:10A6100001F0FF02493F12A78374AFF0A3746022D8
:10A6200012A66012A65712A79E9004BCE0F8A3E001
:10A63000C812A64E74FF12AECF9004BCE0F8A3E09F
:10A64000C812A645222414F582E438F58322240E8C
:10A65000F582E438F58322F0A374C7F0A374602276
:10A6600012A6642212A66822F0A3742FF0A37462CB
:10A670002274F712486D12A6C74402F5D97582BF3D
:10A6800075830412A6E17004E583640470F59004F8
:10A69000D5E0600A78D67904FA12A6BBDAFB75E138
:10A6A000959015FE12A6E9F0A312A6E912A623744E
:10A6B00014F09003757404F002AA1C888289831236
:10A6C000A824A882A983229004D512A6CE22E02431
:10A6D00007F5D912A6D7229004BEE0C4333354C084
:10A6E0002212A824E58264C52274C112A6F612A61D
:10A6F000F6F0A3746022F0A37460F0A374C1227416
:10A70000F712486D12A6C74406F5D97582BF758346
:10A710000412A6E17004E583640470F59004D5E0AA
:10A72000600A78D67904FA12A6BBDAFB12A768127F
:10A73000A6E17004E583640470F59004F5E0600A16
:10A7400078F67904FA12A6BBDAFB75E1959015FE4E
:10A7500074BBF0A3746012A77912A6207415F09050
:10A7600003757403F002AA1C9004F512A6CE4404EB
:10A77000F5D97582BF7583042212A783742FF0A3C5
:10A7800074622212A7872212A794742FF0A3746216
:10A7900012A7942212A668F0A32212A79E22F0907C
:10A7A000160C742FF0A3746212A787742FF0A37491
:10A7B0006212A664F022C082C08312A59F2406F50F
:10A7C00082E438F583E402A10774F712486D900320
:10A7D000A312B09A74A528F8740339F9E82405FA8D
:10A7E000E439FB8A828B8312B15D88828983A3A3BB
:10A7F000A3A3A3A3A3A3A3ECF0A3ED12A819A3A35F
:10A80000A3A3A3A3E024FFF8A3E034FFF98A828B7B
:10A8100083E8F0A3E9F002AA1CF088828983A322CE
:10A8200012A82422E0F5D9A3229061D0E0F8748028
:10A83000C398FC12A83C22F012A83C22EA2483F51B
:10A8400082E43BF583E02212A8522404F8E4358325
:10A85000F922F582E43FF583E5822212A824E86517
:10A86000822274F712486DEAFEEBFF9061D0E0702F
:10A870007875D90E75D90375D904EE248C12A8EE1B
:10A8800012A85B7003E9658370F6EE248412A84772
:10A8900012A85B7003E9658370F675E1957908EE9F
:10A8A000248CFAE43FFB1261C37904EE2484FAE4B9
:10A8B0003FFB1261C37C00EE24ABF8E43FF9ECFAF5
:10A8C000C3E49AFA95E0FBEE2AFAEF3BFBEA248B0D
:10A8D00012B36A88828983F00CA3A882A983ECC38F
:10A8E000940840DA12A9FD8002790002AA1C12A87D
:10A8F000522408F8E43583F922C082C08375D90256
:10A9000075D90375D90575E195EA246FF582E43BA5
:10A9100012B0A6EA2471F582E43B12AA0A02A260F0
:10A9200074F612486DEAFEEBFF900520740612A93A
:10A930007F124A807C017903126223740212481349
:10A9400075D90675D90375822075830512A97770AC
:10A9500004E583640570F575E195900375E064087E
:10A960007010EE246FF582E43F12B0A6EE2471124F
:10A97000B1DE790102AB4512A824E582642522F0FC
:10A98000750A20750B05780A2274F612486DEAFEE6
:10A99000EBFF9061D0E070367801900520740BF0E9
:10A9A000900375E064077019750A20750B05780A25
:10A9B000124A807C017903126223740212481378D0
:10A9C0000512AC4D12A820DAFB12A9FA8002790018
:10A9D00002AB4574F712486DEAFEEBFF75D90375BB
:10A9E000D90375D90DEE24DE12B344F5D975E1957E
:10A9F000790412636712A9FD802275E195EE246F38
:10AA000012B3E7EE2471F582E43FF583E8F0A3E9A1
:10AA1000F0790122F0EEA2E092AF79007F010249C5
:10AA20003F74F612486D12AB5260047804800278CD
:10AA300000E8240BF8EAC39840457C09900520EC17
:10AA400012AA9912AAA8DDFB12B341601B750A2055
:10AA5000750B05780A124A807903EEFAEFFB126251
:10AA60002374021248137C0D12AA8412AB4A70FBA5
:10AA700075E195790412636712ABCD790180027993
:10AA80000002AB4512AA8A8C0A2274012CF5D975F2
:10AA9000D90375822075830522F0EE24E3F8E43FA4
:10AAA000F97A217B057D082212AAAC22888289834B
:10AAB000E08A828B8312A819A882A9838A828B8359
:10AAC000A3AA82AB832274F612486D12AB526004C3
:10AAD000780480027800E82408F8EAC39840647893
:10AAE00006900520740CF0900392E0900521F09000
:10AAF0000393E0900522F0900394E0900523F090FA
:10AB00000395E0900524F0900396E090052512ABA4
:10AB1000E1601B750A20750B05780A124A807C06D5
:10AB20007903EEFA1262237402124813780A12AB08
:10AB3000DB12AB4A70FB75E195790412636712A9C9
:10AB4000FD800279007F0202493F12A824150AE520
:10AB50000A22EAFEEBFF9061D0E0F87480C398FA15
:10AB600012ABE62274F612486D12AB526004780400
:10AB700080027800E82404F8EAC398404B780290F9
:10AB80000520E8F0EE24F512B34490052112ABE164
:10AB9000601B750A20750B05780A124A807C0279C1
:10ABA00003EEFA1262237402124813780612ABDB2A
:10ABB00012AB4A70FB75E19512ABCD790412636755
:10ABC000EE240D12AA008002790002AB45EE241D8E
:10ABD000F582E43FF583E4F0A3F02212AC53880A37
:10ABE00022F012ABE622EE2483F582E43FF583E007
:10ABF0002274F612486D12A8296004780480027845
:10AC000000E82404F8ECC398403E780290052074D4
:10AC100007F0EA24F612B36A90052112A8376019EA
:10AC2000750A20750B05780A124A807C0279031296
:10AC300062237402124813780612AC4D12A820DA6F
:10AC4000FB75E19579018002790002AB4512AC53A6
:10AC5000E8FA22740128F5D975D903758220758325
:10AC6000052274F712486DE9FFA2AFE433FEC2AFCC
:10AC70007C0080010C12ACF95011ECF8EA28F8E4E1
:10AC80003BF912ACEFE06F70EB8016EA246EF8E44B
:10AC90003BF9E0FCEA2CFAE43BFB12AD1CEF12ADF1
:10ACA000E0EEA2E092AF02AA1CC082C083A2AFE491
:10ACB00033FDC2AF12B36714F07C00801BECF8EADE
:10ACC00028F8E43BF9E8246BF582E439F583E0C029
:10ACD000E012ACEFD0E0F00C12ACF940E0EA246DE9
:10ACE000F582E43BF58374FF12AD26ED02A25CE829
:10ACF000246AF582E439F5832212B367F8ECC3982D
:10AD000022C082C083A8A8C2AF12AD1CE912AD2632
:10AD1000E8A2E7E433FAE8A2E702A25EEA246AF5D1
:10AD200082E43BF58322F0EA2469F582E43BF58373
:10AD3000E4F02274F312486DEAFEEBFFECFAEDFB4F
:10AD40008A828B83A3A3A3A3E0541FF0EE2436F5DD
:10AD500082E43FF583E4F0750C00EE245DFCE43FF3
:10AD6000FD8A828B83E08C828D83F0750D00E50C6B
:10AD700033333354F8F50E8A828B83E0F50A750B72
:10AD800000E50D780A1247CBE50AA2E05027EE2431
:10AD900036F8E43FF988828983E0F50AEE250AF562
:10ADA0000AE43FF50BE50A2438F582E4350BF58318
:10ADB000E50E12ADE0050D050EE50DC3940840B794
:10ADC000050C8A828B83A3AA82AB838C828D83A39A
:10ADD000AC82AD83E50CC3940540867F0502493FF4
:10ADE00012ADE604F022F088828983E02274F71223
:10ADF000486D9003A1E06401700302AEC79003A701
:10AE0000E0600302AEC77401F0A3E4F0A3F0900485
:10AE10000704F090040CF09003AA12AECE9003B495
:10AE200004F09003DAE4F09003BD12AED5A3F090E5
:10AE30000424F0900418F0900427F090040D74801E
:10AE4000F0A3E4F0900413F090049012AEEC9004A0
:10AE500099F0900428F090047812AEECA3F0A3F0DF
:10AE6000900484F0900486F0900482F090049C1288
:10AE7000AEEC9004AFF09004A912AED574FF90042C
:10AE80000F7804F0A3D8FC7A027B0478B07904121E
:10AE9000AEE764B57003E9640470F47A887B0478E3
:10AEA00089790312AEE764917003E9640370F4904A
:10AEB00003A1E004F0640170089003A9E09003A3EB
:10AEC000F07AA57B0380047A007B0002AA1CE412BE
:10AED000AEE1A3F02212AED92212AEE1A312AEE18E
:10AEE00022F0A3F0A3F02212AAACE82212AED9A35A
:10AEF000F0A3F022C082C0838A828B83A3A3A3E045
:10AF0000600F8A828B83A3A3A3E4F09003A2E014D2
:10AF1000F09003A1E014F070069003A374FFF08A90
:10AF2000828B83A3A3E4F09004B5E0700D9003A29C
:10AF3000E064017005790012634902A260C082C01A
:10AF4000839003A8E4F09003A7F09003A1F0A3F08E
:10AF5000A374FFF075E1F102A260C082C0837800A3
:10AF600079009003A8E0600478A57903888289833A
:10AF7000A3A3A3A3E0F902A26074EE12486D8A0CA9
:10AF8000890E9003A2E0F8E9C398502278FF79FF78
:10AF90009003A8E06013900418E064017005900429
:10AFA0001E80039003D312B0A8E8FEE98011E96087
:10AFB00009A312B09A12B08B8005EA2AFEEB33FF88
:10AFC0008E108F11740378101247DB9003A2E0F803
:10AFD000C3E51098E5119400500302B077E50C2505
:10AFE000E0F50CEB33F50DEC2CF50AED33F50BAC7D
:10AFF0000CAD0D8007EC2402FCE43DFDC3E50A9C8A
:10B00000E50B9D4060C3EC9EED9F403FECF8EDF9F1
:10B01000EEFAEFFB1247728B11EA451160068E10B3
:10B020008F118006751000751100ECF8EDF9EEFA3D
:10B03000EFFB1247728A128B13EC9512F8ED951301
:10B04000F9E82510FCE93511FD801AE0F8E50EC39A
:10B05000985012EEF8EFF9ECFAEDFB1247728B11F3
:10B06000EA45117090C3EC950CED950D4009C3E5D0
:10B070000A9CE50B9D50067AFF7BFF8009ECFAEDF8
:10B08000C313FBEA13FA7F0A02493F74D328F582FF
:10B09000740339F583E0FEA3E022E0F875F00BA419
:10B0A000C8AAF02AF922F58312B3ED2274F61248E9
:10B0B0006D74FC1247FDEAFEEBFF803CEE2463F862
:10B0C000E43FF97A007B00A2AFE433F50A12B157EE
:10B0D000EC4D600F12B3A6700A88828983A3A3E4A3
:10B0E000F0A3F0E50AA2E092AF1267ED9004B6E09B
:10B0F00004F09004B7E004F0EE2463F582E43FF539
:10B100008312B3E170B69004B7E060358E828F830E
:10B11000A3A3A3A3E0851A82851B83F0A3E4F09088
:10B1200004B7E0F87402124849E8F0A3E4F07402AE
:10B13000124863AA1AAB1B7901125EA59004B7E40A
:10B14000F0EEFAEFFB12617BEEFAEFFB126259743C
:10B150000412481302AB45C2AF88828983E0FCA386
:10B16000E0FD2274F712486DEAFEEBFF8E828F83BA
:10B17000A3A3A3A3E0FA7B00125E7BEEFAEFFB121F
:10B18000619312623B02AA1CC082C083E4900389CF
:10B190007808F0A3D8FC9003890402A10974F61280
:10B1A000486DEAFEEBFFEC2403F8E43DF9880A89D8
:10B1B0000BEC2407F8E43DF9E8FCE9FD12B1EA12D2
:10B1C0004772EE240D12B1DE12B1EA1247728B0BF8
:10B1D000EA450B6006EE240D12B1FD02AB45F58287
:10B1E000E43FF583E8F0A3E9F0228C828D8312B36B
:10B1F000ED850A82850B83E0FAA3E0FB22F582E469
:10B200003FF583E02401F0A3E03400F02274F6124D
:10B21000486DEAFEEBFFEE242EF582E43FF5831243
:10B22000B15D780079FAECFAEDFB124772EE246F0B
:10B2300012B1DE780079FAECFAEDFB1247728B0B53
:10B24000EA450B6006EE246F12B1FD02AB4574F4C3
:10B2500012486DEAFEEBFF1263018A0A8B0B8C0C1D
:10B260008D0D90820F780A12464D9081B3780A12A4
:10B27000469B780A124A7C8E828F8312B34C124608
:10B28000DF1256CC7404124813E9600302B33C8EFB
:10B29000828F83E02402F8A3E03400F9E8FAE9FBA6
:10B2A000740C124849780A1246C18A828B83780A44
:10B2B0001246609081B3780A1246C18A828B8378E5
:10B2C0000A1246AEEE240BF582E43FF583C082C03D
:10B2D000838E828F83A3A3A3A3A3E02401F8A3E01A
:10B2E0003400F9D083D082E0687003A3E069700471
:10B2F0007901804A8E828F83A3A3A3A3A3A3A31261
:10B30000B203EE247312B34464017013EE2474127A
:10B31000B3567003A3E0697006EE247412B1FDEE1B
:10B32000247F12B34464017013EE248012B356706C
:10B3300003A3E0697006EE248012B1FD790002A437
:10B3400060EE2483F582E43FF583E02212B35022BD
:10B3500012B38BA3A32212B3E78E828F83A3A3A37E
:10B36000A3A3A3A3E06822EA246EF582E43BF5835D
:10B37000E02274F712486D12B3D68A828B8360057F
:10B38000A3A312B38B12B39402AA14E0F8A3E0F5BE
:10B390008388822212B3CCA3A3ECF0A3EDF08C82BD
:10B3A0008D83E4F0A32288828983E0FAA3E0FB8AFC
:10B3B000828B83E0FCA3E0FD8882898312B3CCE416
:10B3C000F0A312ADE6FCA3E0FDEC4D22ECF0A3ED02
:10B3D000F08A828B8322A2AFE433FEC2AF8A828BD3
:10B3E0008312B3EDE84922F582E43FF583E0F8A348
:10B3F000E0F92274F712486DE96006F812B408D833
:10B40000FBECFAEDFB02AA1C8C828D83E08A828B16
:10B410008312B41E8A828B83A3AA82AB8322F08C10
:10B42000828D83A3AC82AD8322C082C0839002E16F
:10B43000E075F005A4FAABF012682F9002DDEAF097
:10B44000A3EBF09002DD12B8DB70047913805A7A16
:10B4500000801574FFF0A312B4ACF088828983A336
:10B46000A312B4ACA3E4F00A9002E1E0F8EAC398B6
:10B470005020EA75F005A4F8A9F09002DDE028F864
:10B48000A3E039F9EA8882898370C874FEF0A304C6
:10B4900080C57A717B5C125CD77AC57B5C12595F80
:10B4A0007AD17B5C125FB9790002C49EF0888289F0
:10B4B00083A3A3A32274F212486DEAFEEBFF8E82EF
:10B4C0008F8312B8DB6055EE240312C3FC12B60E54
:10B4D000750D00780C124A808A828B83A3124A97DA
:10B4E0007C027D007A477B82125A49740412481309
:10B4F000E9702E850A82850B8312B60E780C124AEB
:10B50000808A828B83A3124A977C027D007A537BC8
:10B5100082125A497404124813E97005790202B57F
:10B52000FE8E828F83A3A3E024F9C3940A40057999
:10B530001802B5FE9015D812B8DB600CC3E498FA77
:10B54000E499FB12B6015005790102B5FE7A077B3A
:10B550000012682F8A0C8B0DEA450D7005791302D5
:10B56000B5FE7A007B00803D9015D812C1338A0E5B
:10B570008B0F7403780E1247EA850A82850B83E0ED
:10B58000250EF8A3E0350F8882F583A3A3A3A3ECCF
:10B59000F0A3EDF09015D8E02401F0A3E03400F022
:10B5A0000AEA70010B12B60140BE850C82850D833C
:10B5B000E4F0A3F0750A05F50B780A124A80EEFC58
:10B5C000EFFDE50C2402FAE4350DFB126769740205
:10B5D0001248139002DF12B8DB9002DF6017E0FA26
:10B5E000A3E08003E8FAE9FB8A828B8312B8DB7060
:10B5F000F38A828B83E50CF0A3E50DF0790002B7A6
:10B60000CC8E828F8312C151C3EA98EB992212BC6F
:10B61000648A828B83E0F50C22C082C083E9901596
:10B62000D7F002C49E74F612486D8A0A8B0BE9FFAC
:10B63000ECFAEDFB74145F6007125C597401800929
:10B64000EFA2E6500E125C59E4FCAA0AAB0B125FA3
:10B65000F5800AA2E0400479028002790002BC8DE4
:10B6600074F612486D8A0A8B0BE9FFECFAEDFBEFDA
:10B67000A2E5500F125C597401FCAA0AAB0B125FD1
:10B68000F5804974885F603974085FFE125C59EE7A
:10B69000FCAA0AAB0B125FF5E9F9602E740A124896
:10B6A0004912BC608A828B83A3A3A3A3A3A3E060F7
:10B6B0001B8A828B83A3A3A3A3A3E06401600B80F6
:10B6C0000BEFA2E1400479038002790002BC8D7483
:10B6D000F212486D74FB1247FD8A0A8B0B890CE449
:10B6E000F50EF50F780E124A80750E02780E124A8A
:10B6F00080750E41750F82780E124A807CFF7DFFA7
:10B700007A017B00125C4174061248138A0E8B0F7B
:10B71000AE0EAF0FEE4F700302B7C3E4F50EF50F98
:10B72000780E124A807C047D00791DAA0AAB0B12A8
:10B730005D1974021248137403124849EAF0A3EB2E
:10B74000F0740312484912B8DB60748E828F831242
:10B75000C149851A82851B83E8F0A3E9F0740212BF
:10B7600048497404F01412484912BF4F7401F07430
:10B770000312484912BF4FA3E4F074031248491260
:10B78000BF4FA3A374FFF0740312484912B7D174DA
:10B79000FFF0E50CF50D780D124A84790074011262
:10B7A0004863AA0AAB0B125C5F7401124813E9FEEE
:10B7B0006013740312484912BC601267ED80067E64
:10B7C0001580027E01EEF974051248137F060249C6
:10B7D0003F12BF53A3A3A32274EA12486D8A148BAD
:10B7E000158C128D139002DFE0F50AA3E0F50B74BF
:10B7F00016124849E0F516A3E0F5177418124849E7
:10B80000E0F50CA3E0F50D800D850A82850B83E041
:10B81000F50AA3E0F50BE50A450B700302B8D27EEA
:10B82000007F00E50A2405F510E4350BF5118005CD
:10B830000EEE70010F850A82850B8312C14BC3EE99
:10B8400098EF9950C48E0E8F0F7403780E1247EA4A
:10B85000851082851183E0250EF50EA3E0350FF5E6
:10B860000F850E82F58312C149C3E89514E9951539
:10B8700040BEC3E51298E5139940B5E50C450D604F
:10B8800023780C124A807816124A80850E82850F22
:10B8900083E0FC7D00A312BC60125A497404124874
:10B8A00013E9608C741A12484912B8DB601E8510C7
:10B8B00082851183E0FAA3E0F5838A82A3A3A3A380
:10B8C00012BC6088828983EAF0A3EBF0AA0EAB0F6A
:10B8D00080047A007B007F0E02493F12C151E84983
:10B8E0002274EE12486DECFEEDFF9002DFE0FCA347
:10B8F000E0800A8C828D8312C14DE8FCE9FDEC4D9D
:10B90000700302B99F8C828D83A312C149880A8972
:10B910000B8882F583A3A3A3A3E0F50EA3E0F50FA4
:10B92000C3EA950EEB950F40CA8C828D83A3A3E0EA
:10B93000F510A3E0F511E50E2510F8E50F3511F926
:10B94000C3EA98EB9950AC750C00750D00800805A2
:10B950000CE50C7002050DC3E50C9510E50D951175
:10B960005091850C12850D13740378121247EAE585
:10B970000A2512F8E50B3513F988828983A3A3A35E
:10B98000A3E06A7003A3E06B70C5EE4F600B8E827C
:10B990008F83E50EF0A3E50FF0E8FAE9FB80047A67
:10B9A000007B007F0A02493F74F012486D74FE125A
:10B9B00047FDEAFEEBFF750A00750B00851A8285CC
:10B9C0001B83E4F0A3F0EE2404F50EE43FF50F85AD
:10B9D0000E82F58312C5DDA385820C85830D74FF6D
:10B9E0006A700374FF6B6038A81AA91B880A890B58
:10B9F000780A124A808E828F83E0F50A750B0078F0
:10BA00000A124A80850C82850D83124A97EA240126
:10BA10000A50010B125C4174061248138A0A8B0B00
:10BA20008E828F83E0F5107511007810124A8085A0
:10BA30000C82850D83124A977C027D007A477B82B7
:10BA4000125A497404124813E970288E828F83E0D9
:10BA5000F5107810124A80850C82850D83124A9762
:10BA60007C027D007A537B82125A49740412481377
:10BA7000E9600B850E82850F8312BC6080458E8243
:10BA80008F83E0F5107810124A80850C82850D8333
:10BA9000124A977C027D007A437B82125A497404D1
:10BAA000124813E96036741212484912BC60E50A64
:10BAB000450B600F851A82851B83E06A7003A3E043
:10BAC0006B6005125C6B801F850A82850B83A3A3C4
:10BAD000A3A3E024FFFAA3E034FF800A850E828549
:10BAE0000F83E0FAA3E0FB741412484912C14D8899
:10BAF000828983E58245836005EAF0A3EBF0AA0A18
:10BB0000AB0B02C40874F612486D125CAD8A828BCE
:10BB100083E5824583600512BC6080047A007B0067
:10BB200002BC8D74F612486D125CAD8A828B83E57F
:10BB30008245836006A3A3E0F98002791002BC8DE0
:10BB400074F212486D74FC1247FDEAFEEBFF8C0A9A
:10BB50008D0B890C7402124863125CB3E9F50D7009
:10BB60007FE50C602212BC4C125C47851A82851B53
:10BB70008312BC60125C59E9F97C01EEFAEFFB120A
:10BB80005FF5E9F50D7059AC0AAD0BEEFAEFFB125B
:10BB900059B3E9F50D7049740212484912BBE774B4
:10BBA00012124849E0F50A74FF650A6033EE240278
:10BBB000F50EE43FF50F780E124A80750E1E750FD4
:10BBC00000780E124A80EEFCEFFD7ACB7B5C125CB3
:10BBD000FB74041248138E828F83A3A3A3E50AF09B
:10BBE000A90D740402B7C9E0FEA3E0FF2274F512A8
:10BBF000486D74FC1247FDEAFEEBFF8C0A8D0B8941
:10BC00000C7402124863125CB3E9F974176960326C
:10BC1000E50C602112BC4C125C47851A82851B839F
:10BC200012BC60125C59E9F97C01EEFAEFFB125F7D
:10BC3000F5E9F9700DAC0AAD0BEEFAEFFB1259AD58
:10BC4000E9F974041248137F0302493F851A82857B
:10BC50001B83E4F0A3F0AC1AAD1B850A82850B832D
:10BC600012BC6422E0FAA3E0FB2274F612486DEAEB
:10BC7000FEEBFF125C53EA4B600FEE24FFF8EF344B
:10BC8000FFF9EA28FAEB398003EEFAEFFB7F0202B4
:10BC9000493F74EC12486D74E61247FD8A0A8B0B1B
:10BCA0008C0E8D0F7E007F00EC2402F50CE4350F26
:10BCB000F50D850C82F583E0F8741E68705C125CEB
:10BCC000B98A0E8B0FAE0EAF0FEE4F700302BD6D33
:10BCD0008E828F83A3A3E0F874FE68700302BD6DAB
:10BCE00074FF68700302BD6DE4F50EF50F780E1257
:10BCF0004A80850C82850D83E0FD7C00AA0AAB0B8F
:10BD00008E828F83A3A3A3E0F9125CF5740212481C
:10BD100013EEFAEFFB125CBF80538C828D83A385F8
:10BD200082128583137412687005E0640160431207
:10BD30005CB98A108B11AE10AF11EE4F6034EE2457
:10BD400004F510E43FF511851082F583E0FC6022D4
:10BD5000A2E74019850C82850D83E0F9AA0AAB0B96
:10BD6000125D0D851082851183E0D2E7F079000223
:10BD7000BF459015D7E0F46068850C82850D83E09F
:10BD8000FA74FE2AC394175058EAC313F5107511BC
:10BD900000740278101247EA74002510F874803598
:10BDA00011F9E824FCF510E934FFF511851082F54E
:10BDB0008312C133EC4D6029E824FEF582E934FF9B
:10BDC000F58312B8DB601A850E82850F83E0FB7065
:10BDD0000B851282851383E06401700A74126A6015
:10BDE00005790602BF4574041248538814891578F2
:10BDF00014124A80850E82850F83A3A3A3124A974B
:10BE0000850E82850F83A3A3A3A3A312C13385123A
:10BE100082851383E0FAEBF985108285118312BFC6
:10BE20004F12486B7404124813E9F50E600302BF09
:10BE3000437404124863AA0AAB0B850C82850D83F8
:10BE4000E0C313F50E750F007402780E1247EA7402
:10BE5000FE250EF582747F350FF58312BF4F124811
:10BE60006BE9F50E600302BEEB850C82850D83E065
:10BE7000FD74046D700302BF437404124853880EAE
:10BE8000890F780E124A807C00AA0AAB0B9015D756
:10BE9000E0F9125CF57402124813E9F50E60030232
:10BEA000BF43850C82850D83E0F9740412485B1250
:10BEB0005D138B0BEA450B600A742E12484912BFC2
:10BEC0004FE4F0850C82850D83E0F8741268700BE6
:10BED000851282851383E064016068EE4F6064E838
:10BEE0008E828F83A3A3A3A3F0805885128285132B
:10BEF00083E0704F850C82850D83E0851A82851B57
:10BF000083F07403124849E9F0850C82850D83E0C3
:10BF1000F8740468600D740668600874086860034B
:10BF2000741068740412484912C14D7401124849D2
:10BF3000E8F0A3E9F0AC1AAD1BAA0AAB0B125965E5
:10BF4000750E00A90E741A1248137F0C02493F1295
:10BF5000BF5322E0F8A3E0F58388822279000244EF
:10BF6000A774EA12486D74FA1247FD8A128B138C7B
:10BF7000828D8312BC60EC2402F514E43DF5158536
:10BF80001482F583C3E09AA3E09B4004EA4B70055A
:10BF9000790102C12B851A82851B83E4F074021299
:10BFA0004849E4F0A3F08007E82401FAE439FBE40F
:10BFB000F50AF50B780A124A80780A124A80780A44
:10BFC000124A8085148285158312C133125C417434
:10BFD000061248138A0A8B0BEA450B700302C0CC89
:10BFE0008A828B83A3858210858311EA2404F50C51
:10BFF000E4350BF50D851A82851B83E0600302C0D2
:10C00000D97404124853880E890F780E124A807C26
:10C01000FF7DFF7905AA12AB13125D197402124855
:10C02000138A0E8B0FAE0EAF0FEE4F700579110213
:10C03000C12B7402124849EEF0A3EFF0850A828505
:10C040000B83E06402702374011248497401F07498
:10C0500004124849E0F516A3E0F5177402781612A9
:10C0600047DB85160E85170F8079740112484974D5
:10C0700002F0740412484912C14D7A127B00124733
:10C0800072880E890F12C157750A10750B00780A55
:10C09000124A8012C1391267697402124813EE24E1
:10C0A00010FE50010F851A82851B83E004F0C395B2
:10C0B0000EE4950F5016850C82850D8312C14D74C8
:10C0C000FF68700374FF69600302BFA8851A828548
:10C0D0001B83E0703B790A80527401124849E06486
:10C0E0000170A2850A82850B83E0640270DE12C1B2
:10C0F00057750A02750B00780A124A8012C139126C
:10C1000067697402124813EE2402FE50980F80955E
:10C11000AC1AAD1BAA12AB13125971E9600B740271
:10C1200012484912BC601267ED7900740612481378
:10C1300002B8D6E0FCA3E0FD22851082851183E0E1
:10C14000FCA3E0FDEEFAEFFB22A3A3A3A312C151CF
:10C1500022E0F8A3E0F922850C82850D83E08E822F
:10C160008F83F0A3AE82AF83850C82850D83A3E01D
:10C170008E828F83F0A30EAF832274F612486D1265
:10C18000C2224004EA4B700479018039E4F50AF5D3
:10C190000B780A124A808C828D83A3A3A3A3E0F5B7
:10C1A0000A780A124A8012C216124A80EEFCEFFD8B
:10C1B000125C4174061248138B0BEA450B7004792C
:10C1C0000A8002790002BC8D74F612486D12C222F8
:10C1D0004004EA4B700479018039E4F50AF50B78E4
:10C1E0000A124A808C828D83A3A3A3A3E0F50A7868
:10C1F0000A124A8012C216124A80EEFCEFFD125C4F
:10C200004174061248138B0BEA450B7004790A80BF
:10C2100002790002BC8DEC2405F50AE43DF50B78AB
:10C220000A228C828D83A3A312BBE78C828D83129A
:10C23000BC64C3EE9AEF9B2274F612486D74FE1232
:10C2400047FDEAFEEBFF8C828D83AC1AAD1B12BC5E
:10C2500060125C478A0A8B0BA80AA90BE849700494
:10C260007901800A12C33DEEFAEFFB125C2F7402D3
:10C2700012481302BC8D74F012486D74FE1247FD13
:10C280008A0C8B0D8C0A8D0B750E008002050E85B5
:10C290000A82850B83A3A3E0F8E50EC3985075AE20
:10C2A0000EEE2EFEE433FF850A82850B83E02EF826
:10C2B000A3E03FF988828983AC1AAD1BE0FAA3E0C2
:10C2C000F8E4C8F9EA28E439FB125C478A108B11BC
:10C2D000A810A911E849701812C32BE0888289833D
:10C2E000F012C32BA3E088828983A3F07901802612
:10C2F00012C33DAA0CAB0D125C2FE9F9608F12C37B
:10C3000019E08A828B83F012C319A3E08A828B839F
:10C31000A3F08002790002C408850A82850B83128B
:10C32000BC64EA2EF582EB3FF58322850A82850BF9
:10C330008312C151E82EF582E93FF58322851A82E6
:10C34000851B83E0FCA3E0FD88828983A3A3A3E08F
:10C35000F92274F012486DECFEEDFF8E828F83128D
:10C36000C14D12C3F9C3E098A3E0994004E84970B5
:10C3700005790102C3F7EE2405F510E43FF511EE4F
:10C380002404F50CE43FF50D850C82F583E0F50EF1
:10C39000750F00780E124A807810124A807C027D58
:10C3A000007A477B82125A497404124813E97004D8
:10C3B00079108043E4F50E780E124A80850C828550
:10C3C0000D83E0F50C750D00780C124A8078101280
:10C3D0004A80850A82850B8312C1338E828F831235
:10C3E000BC60125C4174061248138B0BEA450B705B
:10C3F00004790A800279008014EE2402F50AE43FF1
:10C40000F50B850A82F5832274021248137F080215
:10C41000493F74F412486D74FE1247FDEAFEEBFFCB
:10C420008C0A8D0B12BC56125C47EA4B70047901E2
:10C430008022780A124A80740212484912C1338A53
:10C44000828B83A3A3A3E0F9EEFAEFFB125C3574B1
:10C450000212481374021248137F0402493F02BFBC
:10C460005CC082C0839002DF80048882898312B816
:10C47000DB602788828983A3A3A3A3A3E0FCA3E0B6
:10C48000F5838C82A3A3A3A3E06A7003A3E06B707F
:10C49000D9E82402FAE439FB80047A007B00D083D7
:10C4A000D0820244A774F612486DECFEEDFF125CD8
:10C4B000B98A0A8B0BA80AA90BE849602BEE4F60DA
:10C4C000098E828F83E8F0A3E9F088828983A3A391
:10C4D000E0F874FE6870047917800F74FF687004C8
:10C4E0007900800679168002790202BC8DC082C074
:10C4F000837C0080010C9002E1E0F8ECC3985025A9
:10C50000EC75F005A4F8A9F09002DDE028F8A3E0AE
:10C5100039F988828983E06A7003A3E06B70D6E8FA
:10C52000FAE9FB80047A007B0002C49E74F712488B
:10C530006DEAFEEBFFEE2402FAE43FFB125D018E92
:10C54000828F83A3A3A374FFF07F0102493F74F697
:10C5500012486DE9FE125CB98A0A8B0BA80AA90B76
:10C56000E849601BE82404F582E439F583EEF8E03D
:10C570007B00240150010B684B7004E05480F002F2
:10C58000BC8D74F412486DEA4B604FEA2402F50A40
:10C59000E43BF50B850A82F583E0F874FF68603AA6
:10C5A00074FE686035EA2403FEE43BFFE4F50CF515
:10C5B0000D780C124A807D1E7C178A828B8312C5EF
:10C5C000DDE0F9125CF57402124813850A82850BCE
:10C5D0008374FEF08E828F8304F002C45912BC640F
:10C5E0008E828F832274F012486D8A0C8B0D890E17
:10C5F00074FE650C700474FF650D700302C6BAE921
:10C60000702B125CB98B0BEA450B701E7AFF7BFF17
:10C61000125CB98A0A8B0BAE0AAF0BEE4F600B8E21
:10C62000828F83E50CF0A3E50DF002C6BA740165B4
:10C630000E701A125CB98A0A8B0BAE0AAF0BEE4F62
:10C6400060788E828F8374FFF0A3F080217402657E
:10C650000E70677901125FD7E9705FAA0CAB0D12FB
:10C660005CB98A0A8B0BAE0AAF0BEE4F604C12C35B
:10C67000F9E0F874FF68603874FE686023E4F51030
:10C68000F5117810124A807D1E7C14AA0CAB0D8E19
:10C69000828F83A3A3A3E0F9125CF57402124813FE
:10C6A000EEFAEFFB125CBF850A82850B8374FFF004
:10C6B0008E828F83A3A3A3A3E4F002C40D74F412AB
:10C6C000486D907803E06442705690051FE014F0C6
:10C6D000704EC2AF12C6D700782AD0E0F618D0E06C
:10C6E000F6E59F5407F87005750BFF8003750B7F07
:10C6F000C4C0E07829E6F50A08E6550BF50B740B83
:10C70000780A1247DBD0E0250AF8906270E0A2E7D1
:10C7100040F8E8C333906272F0906270E0D2E0F0CB
:10C720009003A3E0F4700302C9B812D0EDEE240226
:10C73000F582EF340112CA14601CEE2402F582EF78
:10C740003401F58312D05BEE2401F582EF3401F55C
:10C7500083E0F91267BD8E828F83A3A3A3A3A3A353
:10C76000A312C9F812D024906054E090037CF0909A
:10C770006055E090037DF0906056E090037EF0906D
:10C780006057E090037FF0906058E0900380F09055
:10C790006059E0900381F090605AE0900382F0903D
:10C7A000605BE0900383F090605CE0FA900384F0BB
:10C7B00090605DE0FC900385F090605EE0FD90038A
:10C7C00086F090605FE0FB900387F0900382E02AA0
:10C7D000F50AE43400F50BE50A2DF50AE4350BF50E
:10C7E0000BE50A2CFCE4350BFDEC2BFCE43DFDEEE7
:10C7F00024F712D4CC2CF0A3E03DF0EE24F912D4AF
:10C80000CC2AF0A3E03400F0EE24FB12CA05603B12
:10C8100012C9EAF582E912C9BD3DF0906000E0FA64
:10C82000900384E0FCEA2AFAE433FBE82AFAE93BC5
:10C83000FBEA244AF582E412C9BD3400F012C9EAC9
:10C84000F8E93BF9E8249412C9D7F0900382E0702C
:10C850000E900385E07008A3E07004A3E060568E9C
:10C86000828F83A3A3A3A3A312D13812C9C67003D6
:10C8700012D8AA90037DE0601FEE241C12D8171274
:10C88000D84EE07013EE247312D4CC700BEE247FDC
:10C8900012D4CC700312D8AAEE248212D4CC700326
:10C8A00002C9336402707A900385E07074EE2482CA
:10C8B00012D4B5807D12CFFFF0900384E0600A129D
:10C8C000C9C6702412D0B8801EEE24FD12CA0560BD
:10C8D00017906000E0F825E0F8E433F9EE24FF1249
:10C8E000D03A24DE12C9D7F012CFF112C9F8E068AD
:10C8F0007003A3E069600302C87312D4C960128E8A
:10C90000828F83A3A3A3A3A3E064057002A3E060C6
:10C910000479088002793EEEFAEFFB12619902C9B0
:10C92000B8900385E0700CEE2482F582E43FF58335
:10C930007402F0906062E060248E828F8312D8B817
:10C94000E82406FCE439FDE82402FAE439FB12622B
:10C95000FB8E828F8312D0AAE4F0A3800612CFFF51
:10C9600012D02AF0906060E0C0E0EE2468F582E426
:10C970003FF583D0E0F09061C8E06006124D4AE9CF
:10C9800070F48E828F83A3A3A3E0602C9061C8E033
:10C9900070069060607480F0EEFAEFFB1262B9E905
:10C9A000640160147902EEFAEFFB124EDB1262AD05
:10C9B000E96401600312623B7F0402493F3BF58357
:10C9C000E02CF0A3E022EE240FF582E43FF583E4AF
:10C9D00012D02FE0640122F582E43912C9DF22F57A
:10C9E00083E02401F0A3E0340022906000E0FA2507
:10C9F000E0FAE433FBE82A2212D8BC8E828F83A3AC
:10CA0000A3A3A3A322F582E43F12C9DFF0EE24FF23
:10CA1000F582E43FF58312D8BCE8492253BFEF0208
:10CA200044A774F012486D9003A312D0ED9061D02A
:10CA3000E07008EE246312CA10600512CFFF802355
:10CA4000EE246912D4CC701CEE247312D4CC701472
:10CA5000EE247F12D4CC700CEE241C12D4F070049F
:10CA600012D0B8F08E828F83A3A3A3A3A312D053B6
:10CA7000241D12D03A240108500109EE2407F50ABA
:10CA8000E43FF50B850A8212D02212CFF1C3E09861
:10CA9000A3E09950208E828F83A3A3A3A3A3A3A373
:10CAA000C082C08312CFF112D8B8D083D08212D8FE
:10CAB000D6501B802112CFF1C082C0838E828F831B
:10CAC000A3A312D8B3D083D08212D8C25008900446
:10CAD000BBE06401700312D113EE247312D4F07022
:10CAE0005312CFDB124A9712D0CE124D03740212AA
:10CAF0004813E9603F8E828F83A3A3A3A3A3A3A3BC
:10CB0000C082C08312D08CD083D082E0687003A32F
:10CB1000E069700302CBC2EE247412D4CC687003B7
:10CB2000A3E069700302CBC2EE2474F50CE43F85E8
:10CB30000C828059EE247F12D4F0600302CBC2EE47
:10CB40002480F582E43FF583124A9712D0CE124D2D
:10CB5000037402124813E960698E828F83A3A3A332
:10CB6000A3A3A3A3C082C08312D08CD083D082E0C1
:10CB7000687003A3E069604AEE248012D4CC687028
:10CB800003A3E069603CEE2480F582E43FF583E096
:10CB900024FFFAA3E034FFFB850A82850B83EAF0C9
:10CBA000A3EBF08E828F83A3A3A3A3A3E0FCA3E057
:10CBB000FD124D42EA24FFF8EB34FFF9EE241D127A
:10CBC000D01EEE248212D4CC600312D113EE247353
:10CBD00012D4F0600302CD2912CFDBC082C08312D1
:10CBE000D08CD083D082E0687003A3E06960030238
:10CBF000CD29EE2474F50CE43FF50D850C82F58308
:10CC000012D8B8850A82850B8312D024EE2476FCD4
:10CC1000E43FFDEEFAEFFB1261A5EE247B12D04D4E
:10CC20002420F582E43FF583E8F0A3E912D02A122C
:10CC3000D506240F12D4D8850A82850B8312D138E9
:10CC40008E828F83A3A3A3A3A3E0FCA3E0FD850CA6
:10CC500082850D8312D05B124D428A0A8B0B12CF54
:10CC6000D112D05BE4F50CF50D8A0E8B0FF510F5A3
:10CC700011780A790E124513EE247712D014780A2F
:10CC8000790E12463AEE247912D4CC6A7003A3E0EE
:10CC90006B701812D07DE0687003A3E069700C120D
:10CCA000D061E0687003A3E0696043EE247DF58203
:10CCB000E43FF58312D51B1247DB780E124A80EE53
:10CCC000247BF582E43FF583124A97EE247912D44F
:10CCD000CCFCA3E0C313FDEC13FC8E828F83A3A3D3
:10CCE000A3A3E0FA7B00125E9F7404124813EE24A3
:10CCF0007612D4CCC0E0EE242BF582E43FF583D04D
:10CD0000E0F0EE247912D04D242E12D01E12D06104
:10CD100012D02412D07D12D024EEFAEFFB1261ABB8
:10CD2000EE247312D4B5F0800312D10112CFE512B4
:10CD300044BF7014EE241F12D4CCF8EE241D12D47C
:10CD4000CC687002A3E06030EE2412F50EE43FF5EB
:10CD50000F780E124A80EE2410F582E43FF583121C
:10CD60004A9712D006124A97AA0AAB0BAC0CAD0D2B
:10CD700012586A740612481312CFE51246D0EE24F8
:10CD80001D12D4CCC0E0EE241FF582E43FF583D021
:10CD9000E0F0EE2412FCE43FFD12D03F1257A690C3
:10CDA0006062E0600A7C6C7D8112D03F1257A68ED3
:10CDB000828F8312D8B888828983A3A3E82408FCD1
:10CDC000E439FD74061247108E828F83E02402F846
:10CDD000A3E03400F9E8FAE9FBEE241D12D014E4D4
:10CDE000F510F5119081EF780E12464D780E790A04
:10CDF0001245138A828B83780E1246609081B37835
:10CE00000E1246C18A828B83780E1246AE9004B50C
:10CE1000E06401600302CF50790112634912D057D8
:10CE2000750AFF750BFF750CFF750DFFEA240EF5F3
:10CE300082E43BF583780A1246D0EA2412F8E43BF8
:10CE4000F9E8FAE9FBEE2412F582E43FF583780A6B
:10CE50001246C1E50A75F0E2A4C50AA8F075F0040F
:10CE6000A428F875F0E2E50BA428F50B8A828B83E1
:10CE7000E0250AF0A3E0350BF0EE241612D4CCF531
:10CE80000AA3E0F50B7404780A1247DBE50A2401D3
:10CE9000F8E4350BF98A828B83E028F0A3E039F0BF
:10CEA000906062E08E828F83700302CFA912D0A3BC
:10CEB000F0A3E03401F012D4C9602CEE242B12D47C
:10CEC000CCF875F071A4C8AAF075F002A42AF98E06
:10CED000828F83E0FAA3E0CA2412F582E43AF58354
:10CEE000E028F0A3E039F012D0578A828B83A3A305
:10CEF000C082C08312D101D083D082780A12464DFD
:10CF000090820B780A12464D9081B3780A12469BA4
:10CF1000EA2416F582E43BF583780A1246D0EA2427
:10CF200014F582E43BF5837410F08E828F83E0F871
:10CF3000A3E0C8241AF582E438F5837421F0A374C1
:10CF400061F0EEFAEFFB124C5E79007F0802493F78
:10CF50009081CB780A1244F4500302CE1DEE241DBA
:10CF600012CA10600302CE1D780A124A7CEEFAEF54
:10CF7000FB1261B17404124813E96401600302CE2C
:10CF80001D12D4C960128E828F83A3A3A3A3A3E032
:10CF900064057002A3E0600479088002793EEEFA2D
:10CFA000EFFB126199790180A212D0A3F8A3E034BB
:10CFB000FFF97A717B02124772880A890B12CFD16E
:10CFC00012D8B8C3E50A98E50B99500302CEB68093
:10CFD000C7EE242EF582E43FF58322EE2474F58219
:10CFE000E43FF58322EE2418F582E43FF583780AC6
:10CFF0002212CFF522EE240BF582E43FF5832212B4
:10D00000D006E4F0A32212D00A22EE241DF582E419
:10D010003FF5832212D4D0F50EA3E0F50F22F5825E
:10D02000E43FF583E8F0A3E9F02212D02FE422F0E8
:10D03000EE241CF582E43FF5832212D149E8228ECA
:10D04000828F83E02402FAA3E03400FB22F582E41D
:10D050003FF58312D076228E828F83E0FAA3E0FB25
:10D0600022EE247B12D0702430F582E43FF5832237
:10D07000F582E43FF583E0F8A3E0F9EE22EE247DAB
:10D0800012D0702432F582E43FF5832212D0902230
:10D090008E828F83A3A3A3A3A3E02401F8A3E0348B
:10D0A00000F92212D0AAE0241022E0F8A3E0C8245C
:10D0B00012F582E438F5832212D0BC22EE2420122D
:10D0C000D4D0F8A3E0F912D00AE8F0A3E9228E82C6
:10D0D0008F83A3A3A3A3A3A3A3E0FCA3E0FD8E825D
:10D0E0008F83A3A3A3A3A3E0FAA3E0FB22E0F87538
:10D0F000F00BA4C8AAF02AF974A528FE740339FF1E
:10D1000022EE242E12D4D0F50AA3E0F50BE4F50CA0
:10D11000F50D2212D12A12D0908E828F83A3A3A361
:10D12000A3A3A3A3E8F0A3E9F022EE241DF582E473
:10D130003FF583E4F0A3F02212D076240D12D149FA
:10D1400012CFF5E8F0A3E9F02212D4D028F8A3E03A
:10D1500039F92274EC12486DEAFEEBFF8C828D8364
:10D16000E0F8A385820A85830B603B14700302D22A
:10D17000BB14700302D48014700302D30224FD7028
:10D180000302D3C214700302D4AE14700302D3E9B5
:10D1900024FE700302D3C714700302D3E01470039B
:10D1A00002D42E02D49EEE2476F512E43FF513E06D
:10D1B00085128285138312D50CEE2477F510E43F97
:10D1C000F5117902AC0AAD0BAA10FB1261BD8A0AF7
:10D1D0008B0BEE2479F50EE43FF50F7902AC0AAD26
:10D1E0000BAA0EFB1261BD8A0A8B0B7902AC0AAD49
:10D1F0000BEE247BFAE43FFB1261BD8A0A8B0BEE37
:10D20000247D12D4DD1261BD8A0A8B0B85128285C2
:10D210001383E0C333F085108285118312D53085E6
:10D22000108285118312D024850E82850F8312D53A
:10D2300030850E82850F8312D024850C82850D8364
:10D2400012D51B1247EA850C82850D83E50EF0A3EB
:10D25000E50FF0EE247412D4DD1261BD850C8285D9
:10D260000D83C082C08312D8AFD083D08212D5275D
:10D270005079EE247D12D104EE247B12D4CC24010B
:10D28000F50EA3E03400F50FE4F510F511EE247966
:10D29000F582E43FF58312D53088128913E4F51442
:10D2A000F515780E7912124513780A790E1244D4C6
:10D2B0004004793B8037EE2473803C7905AC0AAD9D
:10D2C0000B7AB07B041261BD8A0A8B0BEE248012AC
:10D2D000D4DD1261BD850C82850D83C082C08312AE
:10D2E000D8AFD083D08212D52740097928EEFAEF43
:10D2F000FB02D499EE247F12D81712D5062482029D
:10D30000D3E3EE24E212D4CC700D12D4BD12D53A80
:10D310007003EB640370F6EE24E312D4CCA2E0EECB
:10D32000401024DEF582E43FF583741AF0790D0293
:10D33000D47A12D4F624E112D4D87908AC0AAD0B11
:10D34000EE249CFAE43FFB1261BD8A0A8B0B790242
:10D35000AC0AAD0BEE24A4FAE43FFB1261BD8A0ACD
:10D360008B0BEE2494F50CE43FF50D7908AC0AAD77
:10D370000BAA0CFB1261BD8A0A8B0B7908AA0CABB5
:10D380000D1261C3EE2488F50CE43FF50D7904AC71
:10D390000AAD0BAA0CFB1261BD7904AA0CAB0D12ED
:10D3A00061C3EE248CFAE43FFB1261D5EE2484FACB
:10D3B000E43FFB1261DB900377E04480F0790402E4
:10D3C000D47AEE24DF801CEE12D4F624D312D84493
:10D3D00024DD12D83C24D412D4B5F0790B02D4AB9E
:10D3E000EE24E012D4D802D4AE12D4BD12D53A70D5
:10D3F00003EB640370F612D4BD8A828B83E0FC8554
:10D400000A82850B83E05C8882898312D50C8A822C
:10D410008B83A3AA82AB8388828983A3A882A983F2
:10D42000EA64917003EB640370CF7909804CEE24B9
:10D43000EB12D4F06068850A82850B83E0C0E012AD
:10D44000D8A0D0E012D50C7902AC0AAD0BEE24EFD7
:10D45000FAE43FFB1261BD8A0A8B0B7902AC0AAD7C
:10D460000BEE24F1FAE43FFB1261BDEE24EB12D87F
:10D470003C24ED12D4CC7036790CEEFAEFFB802B05
:10D48000EE24F5F8E43FF9E088828983F0EE24F495
:10D4900012D4D888828983E0F91261998010EE2431
:10D4A000F6F582E43FF583E8F0790712615D7F0CC1
:10D4B00002493F24DFF582E43FF583E422EE24E3D2
:10D4C000F8E43FF97A897B0322EE240F12D4D022AC
:10D4D000F582E43FF583E02212D817F022F50CE440
:10D4E0003FF50D7902AC0AAD0BAA0CFB22EE2469C4
:10D4F00012D4D06401222462F582E43FF583E41261
:10D50000D86AE4F0EE22F012D12AEE22F0850A82E7
:10D51000850B83A385820A85830B22E0F50EA3E0A9
:10D52000F50F7404780E2212D8CB94FFE9947F2271
:10D5300012D8BCE828F8E933F9228A828B83E08884
:10D54000828983F08A828B83A3AA82AB83888289B3
:10D5500083A3A882A983EA64912274F612486DEA33
:10D56000FEEBFF02D6C6EEFAEFFB12615102D7FACC
:10D5700012D4ED703C90037FE0700302D755EEFAB1
:10D58000EFFB126163EE24A4F50AE43FF50B780A81
:10D59000124A80EE249CFCE43FFD8E828F83A3A37D
:10D5A000A3A3E0FA7B00125E87740212481302D62E
:10D5B000C6EEFAEFFB12612702D7FA12D4ED702EF5
:10D5C00090037FE06011EE248312D83C24D512D85A
:10D5D00034EE24D912D834EE24DF12D4F0600302E2
:10D5E000D7557906EEFAEFFB12616902D6C6EE2432
:10D5F000D312D4F0701BEEFAEFFB12612DE9640137
:10D60000600302D810EE12D4B312D84E740102D7C0
:10D61000FEEE24D412D4CC700302D810EE24B3F55D
:10D620000AE43FF50B780A124A80EE248CFCE43FB2
:10D63000FDEE24C3FAE43FFB1261E17402124813C9
:10D64000EE24D312D817805A12D4ED705890037F6D
:10D65000E0700302D75512D8AAEEFAEFFB1261630D
:10D6600012D85DEE24DD12D4F0701379008E828F13
:10D6700083A3A3A3A3E0FA7B00125E9380137C0133
:10D6800079008E828F83A3A3A3A3E0FA7B00125EAE
:10D690008DEE24DD12D84424E112D84412D842126F
:10D6A000D4B3F08021EEFAEFFB12613302D7FA1205
:10D6B000D4ED7066EE24E012D4F0600302D755EE8C
:10D6C000FAEFFB126163EE246E12D4CC700302D821
:10D6D00010EE246A12D4CC24FE602C24FE700302C7
:10D6E000D57014700302D5BB14700302D6481470B1
:10D6F0000302D80124FE607424FE60B31470030298
:10D70000D78C14603280BF12D4ED600302D56690CE
:10D71000037EE06040791602D7E3EEFAEFFB126178
:10D7200039E96401600302D810EE12D84224831252
:10D73000D844246902D64312D4ED702690037FE0CA
:10D74000600AEE248312D4B5F012D85D90037EE017
:10D75000600302D6BF12D87512CA16600302D81031
:10D76000807FEEFAEFFB12613F02D7FA12D4ED7020
:10D770001290037FE060DEEE24E212D4D812D8AA21
:10D7800002D6BFEEFAEFFB126145806E12D4ED7047
:10D790005DEE24EB12D4F07027EE24EC12D4F0608E
:10D7A0000302D6BF12D820124A9712D82A124A97DB
:10D7B00012D88E7900125E81740412481302D6BF0B
:10D7C00012D87512CA16704812D820124A9712D869
:10D7D0002A124A9712D88E7922125E817404124856
:10D7E000137922EEFAEFFB12619979018024EE247D
:10D7F000ED12D83CFAEFFB12614B12D853E9F080DE
:10D800000FEEFAEFFB126157E96401700302D6BF15
:10D8100079007F0202493FF582E43FF583740122DB
:10D82000EE24F1F582E43FF58322EE24EFF582E465
:10D830003FF5832212D12DA3F0A3F02212D817F0C6
:10D84000EE2224E0F582E43FF583E4F0EE22F012CC
:10D85000D85322EE2469F582E43FF58322EE246258
:10D8600012D81712D86A7401F022F0EE2467F582FC
:10D87000E43FF58322EE2471F8E43FF9888289833E
:10D88000E024FFF0A3E034FFF0888289832212D8DD
:10D89000A0E0FC8E828F83A3A3A3A3E0FA7B0022E7
:10D8A000EE24EEF582E43FF5832212D0BCF0228E06
:10D8B000828F83A3A3A3A3A312D8BC22E0F8A3E082
:10D8C000F92212D8CB94ABE9941022E0C398F8A3C4
:10D8D000E099F9C3E82212D8CB94AAE994102274F3
:10D8E000F212486D890BEAFEEBFF8C0C750A12747C
:10D8F000FE6E700374FF6F70189002A312E57E60D5
:10D900007212D978606D7AFE7BFFA90B12486B808A
:10D910005A74FF6E700374FF6F70359002A312E5A6
:10D920007E601312D978600E7AFF7BFFA90B124834
:10D930006BE9F50A600CAA0CA90B125B33E9F50A36
:10D940007031E50B9002AFF0E50C9002B0F080234F
:10D95000125FCB8A828B83E58245836016E0650B7C
:10D96000700EA90CEEFAEFFB125DDFE9F50A8003F9
:10D97000750A03A90A02E16AE0F583888212E25D72
:10D9800088828983E58245832274EE12486DEAFE1F
:10D99000EBFFEE2402F510E43FF511EE2404F50E42
:10D9A000E43FF50FEE2406F50CE43FF50DEE2408F8
:10D9B000F50AE43FF50B850A82F583124A97850C38
:10D9C00082850D83124A97850E82850F8312E0B6F9
:10D9D00085108285118312E384125EB174041248AB
:10D9E00013E97005790202DA99790112E380125F76
:10D9F000D7E97005791402DA9912E380125FDDE944
:10DA000064047057901566E0F47003A3E0F46005B9
:10DA1000791102DA998E828F8312E16F12E25385B7
:10DA2000108285118312E2599002A712E253850EEB
:10DA300082850F8312E2599002A912E253850C826B
:10DA4000850D8312E2599002AB12E253850A82855A
:10DA50000B8312E2599002AD12E253E4F512F51372
:10DA60007812124A807812124A80850A82850B83C6
:10DA7000124A97850C82850D83124A97850E8285FE
:10DA80000F83124A9785108285118312E0B612E344
:10DA900080125EC9740A12481302E6E074F212485A
:10DAA0006D890A8C0C8D0D900282E064026005E0A5
:10DAB000640170047912805DEC450D700479028078
:10DAC00054125FCB8A0E8B0FAE0EAF0FEE4F700469
:10DAD00079148041E50A600B8E828F83A3A3A3E0B3
:10DAE000D2E1F0750E10750F00780E124A80AC0C62
:10DAF000AD0DEE2410FAE43FFB1267697402124880
:10DB00001312E9E41246EBEE2420F582E43FF5839C
:10DB10001246F7790002E16A74F012486DEAFEEBF2
:10DB2000FF8C0C8D0DEE4F7005790202DC2712E39D
:10DB300080125FCB8A0A8B0BEA450B7005791402C1
:10DB4000DC27900282E06402601FE06401601AEA50
:10DB5000240BF50EE4350BF50F850E82F583E0649A
:10DB600008700BE50C450D6005791202DC27900268
:10DB7000A112E57E6005791102DC277A1F7B001275
:10DB8000682F9002A112E3389002A112E57E700581
:10DB9000791302DC277C1F7D00790012678112E374
:10DBA0008012DC2AA312E338751016751100781064
:10DBB000124A80EE2402FCE43FFD9002A1E024031F
:10DBC000FAA3E03400FB126769740212481312DCF6
:10DBD0002A7402F0850E82850F83E0640870047950
:10DBE00001800279009002A1E02403F50EA3E03445
:10DBF00000F50F780E124A808E828F8312E0B69065
:10DC000002B7E0FA12644B7402124813E9FEE50C05
:10DC1000450D600BAC0CAD0DAA0AAB0B126487EE80
:10DC20006003125B3FEEF902E2489002A1E0F8A324
:10DC3000E0F58388822274F412486D74FF1247FD68
:10DC4000EAFEEBFF890A125FCB8B0DEA450D7004EB
:10DC500079148014851A82851B83E50AF0AC1AAD0D
:10DC60001BEEFAEFFB12646F74011248137F04027B
:10DC7000493F74F012486D74F01247FD8A0E8B0F05
:10DC80008C108D117420124849E0FEA3E0FFEEFADB
:10DC9000EFFB125FCB8B0BEA450B700479128065AA
:10DCA000908217780E1244F45004790280577C1049
:10DCB0007D007900AA1AAB1B126781851A82851B29
:10DCC00083E50EF0850F0BE50BF50A740112484948
:10DCD000E50AF0850E0A85100C85110D7410780A7E
:10DCE0001246027402124849E50AF07418780E12BE
:10DCF00046027403124849E50EF0EEFCEFFDAA1A45
:10DD0000AB1B126451741012481302E24874F112F2
:10DD1000486D8A0C8B0D89108C0E8D0F900282E05D
:10DD200064026005E064017005791202DDDBEC45F8
:10DD30000F7005790202DDDB125FCB8A0A8B0BAE16
:10DD40000AAF0BEE4F7005791402DDDBEE2424F5EB
:10DD50000AE43FF50B850A8212DDE960031268359B
:10DD60007C1B7D00AA0EAB0F126775850A82850B9E
:10DD70008312E33812E0B0EC4D70047913805C122A
:10DD8000E7C9E06408703D740F124849E06035EC63
:10DD90002412F50AE43DF50B780A124A80EC2410AF
:10DDA000F582E43DF583124A97EC241AF582E43DAE
:10DDB000F583E0F9AA0CAB0D12648D7404124813BC
:10DDC000E9F980027900EE2403F582E43FF583E06F
:10DDD000D2E2F0E5106004E0D2E1F07F0702493FB3
:10DDE00012E9DB241BF582E438F58312E388EA4B61
:10DDF0002274EE12486D125FCB8A0A8B0BAE0AAF0B
:10DE00000BEE4F700302DEA0EE2420F50AE43FF58E
:10DE10000B74121248491246EB850A82850B831255
:10DE200046F77A267B00125A67EAF50C70078E8255
:10DE30008F83E0F50C850A82850B83780E1246C12C
:10DE40008E828F83A3A3A3A3E0F50D7A0E7B00122D
:10DE5000678D8A0A8B0BEA450B604512DEA37409B5
:10DE600012DEB4E50D12E7D3124A80EE2405FCE47D
:10DE70003FFDEA2404FAE4350BFB126769740212D1
:10DE80004813850A82850B83A3A3A3A3A3A3A3A3FB
:10DE9000A3A3780E1246D0AA0AAB0BA90C1267995D
:10DEA00002E6E08A828B8374D0F0A3E4F08A828B4E
:10DEB00083A3A322F08A828B83A3A3A32274EA12F2
:10DEC000486D8A0E8B0FEA450F700302E0468A8286
:10DED0008B83A3A3A3A3A3A3E07005750D08800300
:10DEE000750D0490029F12E57E600512DC30800300
:10DEF000901517E0F50C9002B812E57E600F12DC69
:10DF000030A3A312D97D6005790012486BE50E2479
:10DF100007F510E4350FF511E50E2408F50AE43590
:10DF20000FF50BAA0AFB851082851183E0F9125ABE
:10DF300091E9FB851082851183F0E50E2403FEE450
:10DF4000350FFFE50E2404F516E4350FF517E50E41
:10DF5000240EF512E4350FF513E50E2414F582E4D2
:10DF6000350FF583E0F5147515007814124A80E535
:10DF70000E2412F582E4350FF583124A97E50E243C
:10DF800010F582E4350FF583124A978512828513C6
:10DF900083124A97E50DF50E780E124A8485168293
:10DFA000851783124A97AC0AAD0BAA0C8E828F8319
:10DFB000E0F9125B21740B1248138E828F83E0709C
:10DFC00041750E17750F00780E124A8085128285F2
:10DFD0001383124A97780D124A84780A124A808570
:10DFE0001082851183E0FD7C0185168285178312DE
:10DFF000E384A90C125FBF7407124813E98E828F65
:10E0000083F090029F12E57E6003125B459002AFA1
:10E01000E060339002B0E0FA9002AFE0F9125B33B7
:10E02000E960238E828F83E0FB74316B6013851669
:10E030008285178312E0B69002AFE0FAEBF9125B2B
:10E04000279002AFE4F07F0E02493F74F612486D4C
:10E05000E4F50AF50B780A124A80780A124A80EA37
:10E06000240CF582E43BF583124A978A828B83A3C2
:10E07000A3A3A3A3A3A3A3A3A3124A978A828B83D8
:10E08000A3A3A3A3A3A3A3A3124A978A828B83A3C8
:10E09000A3A3A3A3A312E0B68A828B83A3A3A3A303
:10E0A00012E384125EC3740A1248137F0202493FCE
:10E0B000850A82850B83E0FCA3E0FD2274F21248FE
:10E0C0006DEAFEEBFF750C00EE2403F8E43FF988DF
:10E0D0000A890B8882F58312E384125FCB8A828BD4
:10E0E00083E5824583600FE0F50C850A82850B830A
:10E0F00012E384125FC59002AFE06019650C7015E1
:10E100009002B0E0FA9002AFE0F9125B33E96024CC
:10E110009002AFE4F0E50C601B8E828F83A3A3A373
:10E12000A3A3E0FB12E0B0AA0C8E828F83A3A3E02E
:10E13000F9125B279002A112E57E6003125B3F8516
:10E140000A82850B8312E384125FDDE96404701A8E
:10E15000850A82850B8312E16FE0687003A3E06992
:10E16000700890156674FFF0A3F07F0602493F1215
:10E17000E25D9015662274F012486D890B8A0E8B51
:10E180000A8C0C8D0D7A147B0012678D8A108B110E
:10E19000AE10AF11EE4F700302E2488E828F83748F
:10E1A000D012E324A3A3740512E31DE50AF0EE24C4
:10E1B00004FAE43FFBE50C450D6019751006751176
:10E1C000007810124A80AC0CAD0D1267697402120F
:10E1D000481380097C067D00790012678174101253
:10E1E000484912E2598E828F83A3A3A3A3A3A3A3BA
:10E1F000A3A3A312E2537412124849E0C0E012E74D
:10E20000BFD0E0F0741312484912E263240D12E209
:10E210004D741512484912E263240F12E24D74172F
:10E2200012484912E263241112E24D74191248494E
:10E23000E0C0E0EE2413F582E43FF583D0E0F0EE99
:10E24000FAEFFBA90E1267997F0802493FF582E4B5
:10E250003FF583E8F0A3E9F02212E25D22E0F8A3A3
:10E26000E0F92212E25DEE2274F212486D890B8A07
:10E270000AECFEEDFF8B0C7A067B0012678DEA4BF1
:10E2800060238A828B8374D0F0A3E50B12DEAC741A
:10E290000612DEB4EEF0A3EF12DEB4A3A3E50CF099
:10E2A000A90A12679902E16A74F012486D890E8A10
:10E2B0000A8B0B8C0C8D0D7A0C7B0012678D8A10EB
:10E2C0008B11AE10AF11EE4F6050AA0AAB0B125F6C
:10E2D000CB8A828B83E58245837003901517E0F922
:10E2E0008E828F8374D0F0A3E50E12E53A74071284
:10E2F000E31DA3E50A12E32412E33E741012484919
:10E3000012E34C12E338741212484912E34CA3A3EF
:10E3100012E338EEFAEFFB12679902E24812E32C9F
:10E32000A3A3A322F0A3E50B12E32C22F08E828F8D
:10E330008322F582E438F583EAF0A3EBF022A3A36D
:10E34000A3A3A3A3E50CF0A3E50DF02212E3888EAE
:10E35000828F83A3A3A3A3A3A3A3A32274F612482B
:10E360006DEAFE125FD18A828B83E5824583600B62
:10E37000EEF9A312E384125DDF8002791202E0ABB2
:10E380008E828F8312E38822E0FAA3E0FB2274ECF2
:10E3900012486D89138A0C8B0D8C12125FCB8A1078
:10E3A0008B11EA4511700302E5359002A112E57E5A
:10E3B000700302E5357A0E7B00E0C8241912E57877
:10E3C00060027A2912E5736008EA2414FAE4340042
:10E3D000FB7414124849E0F50EA3E0F50FE50E4575
:10E3E0000F6007EA241BFAE43BFB12E9F612E5781A
:10E3F0006007EA2416FAE43BFB12678D8A0A8B0B4E
:10E40000AE0AAF0BEE4F700302E5357C0E7D00794E
:10E41000001267817A267B00125A678A0A8B0BEA00
:10E42000450B7009851082851183E0F50A8E828F75
:10E430008374D0F0A3E51312E53A740A12E32C12A8
:10E44000E3418E828F83A3A3A3A3A3E512F0EE245E
:10E450000EF50CE43FF50D9002A1E0241912E54001
:10E4600012E57E6018EE240612E54B124A808C827B
:10E470008D8312E0B612676974021248139002A1EC
:10E48000E0241D12E54012E57E6038EE2408F8E431
:10E490003FF98882898312E3448882898312E38466
:10E4A000EA2414F50CE43BF50D7510147511007891
:10E4B00010124A808C828D8312E0B6126769740252
:10E4C000124813E50E450F6015EE240A12E54B12B3
:10E4D0004A80AC0EAD0F12676974021248139002A5
:10E4E000A1E0241BF8A3E03400F9E8FAE9FB8A82F2
:10E4F0008B8312E57E6032EE240CF8E43FF9880E3F
:10E500008882F58312E344750C16750D00780C12A1
:10E510004A808A828B8312E0B6850E82898312E359
:10E52000841267697402124813EEFAEFFBA90A120B
:10E530006799125B3F7F0C02493F12E32CA3A32291
:10E54000FCA3E03400FD8C828D8322F8E43FF9883F
:10E55000828983E50CF0A3E50DF08882898312E3BC
:10E5600088EA241BF50CE43BF50D75101B751100B2
:10E5700078102212E9DB241DF582E438F58312E2DB
:10E580005DE84922C082C0839002A112E57E602F1F
:10E59000E0C8241912DDE5600312683512DDE06081
:10E5A0000312683512E9F012DDE560031268359058
:10E5B00002A112E3841268359002A1E4F0A3F0D026
:10E5C00083D0820244A7C082C08390029F12E57E5E
:10E5D000601090029F12E38412683590029FE4F06D
:10E5E000A3F080DB74F012486D890E8A0C8B0D123B
:10E5F0005FCB8A0A8B0BEA450B604C7A267B0012B4
:10E600005A678A108B11AE10AF11EE4F7008850A51
:10E6100082850B83E0FE7A057B0012678D8A0A8B68
:10E620000BEA450B60217C057D00790012678112A1
:10E63000E6F0740EF0850A82850B8312E341AA0A84
:10E64000AB0BEEF912679902E24874EE12486D893D
:10E650000EEAFEEBFF8C0C8D0D125FCB8A108B1136
:10E66000EA4511607B7A0B7B0012678D8A0A8B0B5F
:10E67000EA450B606B7C0B7D0079001267817A267E
:10E680007B00125A678A128B13A812A913E84970EB
:10E6900008851082851183E0F812E6F0740F12E607
:10E6A000EBEEF0A3EF12E6E5E50C12E6E5A3E50DCF
:10E6B000F0741212484912E70AF074131248491212
:10E6C000E70AA3F07414124849E50A2409FCE4356A
:10E6D0000BFD7402124710AA0AAB0BE8F9126799F6
:10E6E0007F0A02493F12E6EBA3A32212E700A3220E
:10E6F000850A82850B8374D0F0A3E50E12E7002211
:10E70000F0850A82850B83A3A322E0850A82850B0C
:10E7100083A3A3A3A3A3A3A32274EE12486D8A0C20
:10E720008B0D8910125FCB8A0E8B0FEA450F700399
:10E7300002E7BC7A0D7B0012678D8A0A8B0BAE0A4A
:10E74000AF0BEE4F60767A267B00125A678A0A8BEF
:10E750000BEA450B7009850E82850F83E0F50A8E62
:10E76000828F8374D0F0A3E412E53A740B12E7D3DE
:10E77000124A80E50E2405FCE4350FFDEE2403FA71
:10E78000E43FFB12676974021248138E828F83A3E1
:10E79000A3A312E33E12E7C9E510A2E050047401FE
:10E7A0008001E4F012E7BFE510A2E150047401809B
:10E7B00001E4F0EEFAEFFBA90A12679902E6E0EE37
:10E7C000240CF582E43FF58322EE240BF582E43F2E
:10E7D000F58322F075120675130078122274E81280
:10E7E000486D89128A11ECFEEDFF8B10EEFAEFFBFB
:10E7F000125FCB8A0A8B0B7418124849E0F50EA3FE
:10E80000E0F50F741A124849E0F516A3E0F5177405
:10E810001C124849E0F518A3E0F519741E12484986
:10E82000E0F50CA3E0F50DEA450B700302E909E5FC
:10E8300012600302E909EA2403F582E4350BF5834B
:10E84000E0D2E4F0E510A2E2E05004D2E18002C29E
:10E85000E1F0E50E450F7012E5164517700CE5184E
:10E8600045197006E50C450D606AE0D2E2F0E50C52
:10E87000450D603412E9E41246EBE50A2420F582E6
:10E88000E4350BF5831246F77514107515007814EE
:10E89000124A80AC0CAD0DE50A2410FAE4350BFBEE
:10E8A0001267697402124813E50A2424F50A50021B
:10E8B000050BE50E450F6021E511701D850A828567
:10E8C0000B8312DDEB60031268357C1B7D00AA0E02
:10E8D000AB0F8027E0C2E2802FE5164517602A744F
:10E8E0000165117024850A82850B8312DDEB6003BC
:10E8F0001268357C1B7D00AA16AB17126775850A56
:10E9000082850B83EAF0A3EBF09002A112E57E7002
:10E910000302E9D6E50E450F6039E0C8241912E577
:10E9200078700F7A1B7B0012682F12E9DB24191212
:10E93000E33212E9DB241912DDE56017750A1B7555
:10E940000B00780A124A80AC0EAD0F126769740290
:10E95000124813E5184519603112E9F612E578708E
:10E960000D7A167B0012682F12E9F612E33212DDDF
:10E97000E06017750A16750B00780A124A80AC1809
:10E98000AD191267697402124813E50C450D603128
:10E9900012E573700D7A147B0012682F12E9F012E1
:10E9A000E33212E9F012DDE56017750A14750B0009
:10E9B000780A124A80AC0CAD0D12676974021248D5
:10E9C000137816124A80AC10EEFAEFFBA912125B14
:10E9D0003974021248137F1002493F9002A1E0F8F7
:10E9E000A3E0C822E50C2410F582E4350DF583225E
:10E9F00012E9DB241D2212E9DB241B22C082C08322
:10EA00009002A512E33802E5BF74F412486DE99054
:10EA10000374F0126319907800E0C4540F54076433
:10EA2000037004793F8002797F750A06750B0078C0
:10EA30000A124A807C627D037AEA7B071266E574DB
:10EA400002124813900362E0F47049A3E0F47044AA
:10EA5000A3E0F4703FA3E0F4703AA3E0F47035A3B0
:10EA6000E0F4703090780EE0900362F090780FE060
:10EA7000900363F0907810E0900364F0907811E0D8
:10EA8000900365F0907812E0900366F0907813E0C0
:10EA9000900367F090036812EB9F12F912900392B3
:10EAA0007406F0A3740D12F3EC7442F0A37401F039
:10EAB0009004BF12EB9F9004BEE4F09004CCF0A34E
:10EAC00074A012F3EC7403F0A3740712F3EC74282F
:10EAD00012F3EC04F0A3E4F09004F5F09005187440
:10EAE000FFF0A3E4F090051AF090051C04F09005E7
:10EAF0001D7490F0A37401F01260EB12601F12629B
:10EB0000BF79017A1F7B051261CF90051FE075F078
:10EB10001484E5F004F0790C7A407B051261CF1281
:10EB200061E77A00900374E0F9126847907803E097
:10EB30006442705690051FE014F0704EC2AF12EBA5
:10EB40004100782AD0E0F618D0E0F6E59F5407F8A7
:10EB50007005750BFF8003750B7FC4C0E07829E654
:10EB6000F50A08E6550BF50B740B780A1247DBD053
:10EB7000E0250AF8906270E0A2E740F8E8C333901D
:10EB80006272F0906270E0D2E0F090039FE4F0A334
:10EB9000F07A80FB900374E0F91267BD02F06474B0
:10EBA000FF12EF32F0A3F02274F412486DEAFEEB8C
:10EBB000FFEEA2E05040900376E0C39480E0500F57
:10EBC00025E0F8E433F974FE28F5827415800EF41C
:10EBD00025E0F8E433F9740C28F582741639F583CE
:10EBE00012F79912486B7A00900374E0F9126847A3
:10EBF000EE640102EDBC54026037750A00780A1217
:10EC00004A84E4F50B780A124A80780A124A80781E
:10EC10000A124A80780A124A807D007C017A007BC1
:10EC200000793C125E757409124813EE640202ED1D
:10EC3000BCEE5404700302ECC59003A3E0F875F039
:10EC40000BA4C8AAF02AF974A528FA740339FBEAC0
:10EC5000242AF582E43BF583E0F50A780A124A8417
:10EC6000EA243212EDC8F50B7404780A1247DB78F7
:10EC70000A124A80EA2420F582E43BF583124A977F
:10EC8000EA242E12EDC8C313F50BE50A13F50A7832
:10EC90000A124A80EA2404F50AEB3401F50B780ADB
:10ECA000124A8012EDD4FD7C018A828B83A3A3A338
:10ECB000A3E0FA7B007900125E757409124813EE26
:10ECC000640402EDBCEE54406037750A00780A1205
:10ECD0004A84E4F50B780A124A80780A124A80784E
:10ECE0000A124A80780A124A807D007C017A007BF1
:10ECF00000793B125E757409124813EE644002ED10
:10ED0000BCEE5480603790051D12F3E4602A790050
:10ED100012684190051DE0F50AA3E0F50BE4F50C3F
:10ED2000F50D780A124A7C7A007B01900374E0F9B1
:10ED30001268CB7404124813EE6480807FEF540194
:10ED4000600C7901126841EEFAEF64018070EF54B3
:10ED500002600AC2AF75C9AB75C95B80FEEF54048F
:10ED6000600A125959EEFAEF6404805290037BE076
:10ED70006401704DEE54206048900375E0146012F9
:10ED800014600F14600C14600924FD601114600EEF
:10ED9000802779001260737901126073801B793FBC
:10EDA0009003A3E0FA75F00BA4CAA8F028FB74A5A1
:10EDB0002AFA74033BFB126199EE6420FAEFFB80A0
:10EDC000047A007B0002F064F582E43BF583E0F511
:10EDD0000AA3E022EA240AF582EB3401F583E0225B
:10EDE00074F612486DEA540F6004780180027800CE
:10EDF000E8F98A0A8B0B7404780A1247DBE50A29C2
:10EE0000F50A750B007404780A1247EAE50A24082B
:10EE1000FAE4350BFB1267E78A0A8B0BA80AA90BE9
:10EE2000E8496009E82404FAE439FB80047A007BAD
:10EE30000002F57B74F612486DEA2405FA50010BC6
:10EE40001267E78A0A8B0BA80AA90BE8496009E850
:10EE50002405FAE439FB80047A007B0002F57BC0CC
:10EE600082C083C2AF1262EFE5E170FC75E101126E
:10EE700060D975E1F11263251260CD7907126397AD
:10EE8000790112639D790212634F12636D12638BD5
:10EE9000790012639179011263919081BF1246DF6C
:10EEA0001263379004CCE4F0A3F0A3F09004D07484
:10EEB00007F09004CF7403F09004D5E4F09004D4EC
:10EEC000F09004F5F012618112623512619F7900B1
:10EED0001263A39004B074FF12EF32741FF09060BD
:10EEE00012E4F0A3F0906063F0752100900375F0D8
:10EEF0009004B5F09004B6740CF09004B7E4F09070
:10EF000004B804F09004B9E4F09004BA04F090045A
:10EF1000BBE4F0900377F0A3F090037AF090037BCA
:10EF200004F090039104F090051BE4F0D2AFF902D5
:10EF3000F8ADF0A3F0A3F0A3F0A322C082C08390A9
:10EF4000036212F09E90036312F0C8F09003641203
:10EF5000F0D390036512F0D990036612F0DE9003AF
:10EF60006712F0C8A3A3A3A302F8AAC082C0838A31
:10EF7000828B83E090036812F8F0E090036912F04E
:10EF80009890036A12F8F790036B12F90390036CE0
:10EF900012F8FEE090036D02F8AAC082C0831260EE
:10EFA000F7E9F9700512636D790002F8AD74F71294
:10EFB000486DEAFEEBFF890A1260F7E9F9702CE56B
:10EFC0000A600A7401650A600A7912801E7C007961
:10EFD0000080047C007901EEFAEFFB126373E9F81C
:10EFE000740368700479078002790002F7A274F64E
:10EFF00012486DEA4B600EEC4D600A740A124849E3
:10F0000012F8E470047912800F780A124A801261B3
:10F01000E17402124813790002F57B74F412486D12
:10F02000EAFEEBFF890A900375E064096014E0646E
:10F030000A600FE0640B600AE0640C6005E0640D98
:10F040007004790C801E12625F8B0DEA450D700B07
:10F05000A90AEEFAEFFB1261CF8009900377E04432
:10F0600040F0790D7F0402493F74F612486DEA4B77
:10F070006003E970047912801CEAFEEBFF890A1232
:10F0800061C9E98E828F83F0A3AE82AF83150AE552
:10F090000A70EC790002F57B12F8F0A3E022E08A16
:10F0A000828B83F022C082C083E9F8740168700B00
:10F0B00090051B7401F0790002F8ADE87006900528
:10F0C0001BE480F1791280F012F0CC22E08A828B6E
:10F0D00083A32212F0CCA3F02212F0E4F02212F06B
:10F0E000E4A3F02212F0CCA3A322C082C083900339
:10F0F00075E0640C701290618EE0F8748068702581
:10F100008C828D83747F8029C3EB940F5013EA4B5C
:10F11000700F9003A8E070047902801890040D80AD
:10F12000D87912800F900379E0F9E8C3998C828D29
:10F1300083F0790002F8AD74F712486DE9FE7405AA
:10F140006E601E74136E601974146E601474156E04
:10F15000600F741A6E600A74296E6005743B6E70DD
:10F1600026C3EB940F5020EA4B701C9003A8E0706C
:10F17000047902802690040EE064017016A3E06416
:10F18000027008793A80147912801012F19E12618F
:10F1900069800612F19E12615D790002F7A2EE907D
:10F1A000049AF09003C2E4F0A3F079027AA57B03FD
:10F1B0002274EC12486DEC4D6014E9C3941C500E9F
:10F1C0007414124849E0F8600A7401686005791205
:10F1D00002F3CAC3EB940F5019EA4B70159003A8C1
:10F1E000E070047902800D9004B6E0700A7907029D
:10F1F000F3CA791202F3CAEC24FEFCED34FFFD8C55
:10F20000828D83E9F0E87004740280027401A3F037
:10F21000EC24FEFCED34FFFD7A087B041261B7A9F3
:10F22000A8C2AF9004B6E014F0E9A2E7E433F8E92D
:10F23000A2E792AF900375E064086008E06407609D
:10F240000302F3C89003A3E0600302F3C879007AD5
:10F25000A57B03124EDB9061D0E0700302F3C890EF
:10F2600004BAE06401600302F3C89003C212F3E43D
:10F27000700302F3C8A2AFE433F50EC2AF12625FAF
:10F280008A0A8B0BAE0AAF0B1263018A0A8B0B8CB6
:10F290000C8D0D8A128B138C148D159081EF7812C2
:10F2A00012464D7812124A7C8E828F83A3A3124697
:10F2B000DF1256CC7404124813E96401600302F3B0
:10F2C000C29003D3E02406F512A3E03400F513E462
:10F2D000F514F515780A791212463A780A124A7C22
:10F2E0008E828F83A3A31246DF1256CC7404124879
:10F2F00013E96401600302F3C2EE2408F510E43F51
:10F30000F511851082F583124A93AA0AAB0BAC0C57
:10F31000AD0D12572874041248139003D3124A9764
:10F3200012538474021248138A0A8B0B8C0C8D0DB5
:10F330007410780A1246029003AE12F3CF9003AA1B
:10F34000E8F0A3E9F0E82CF8E9350BF9A3E8F0A31D
:10F35000E9F0851082851183C082C08312F3D51233
:10F360004513D083D082780A12464D9081B3780A33
:10F3700012469B8E828F83A3A3780A1246D012F383
:10F38000D512463A90820B780A12464D9081B37896
:10F390000A12469BEE2416F582E43FF583E50AF057
:10F3A000A3E50BF0A3E50CF0A3E50DF09003DAE084
:10F3B0009003D9F07AA57B03124C5EEEFAEFFB12B4
:10F3C0006241E50EA2E092AF79007F0C02493FE076
:10F3D000F8A3E0F9229003D3E0F512A3E0F5137847
:10F3E0000A791222E0F8A3E0F9E84922F0A3E4F058
:10F3F000A32274F612486DEAFEEBFF890B740B1220
:10F400004849E0F50A740C12484912F3CFE50B6045
:10F41000487401650B60127403650B602674026505
:10F420000B60207404650B707DE8496079E50A6023
:10F43000067401650A706F7403650B6006740265DB
:10F440000B702AEE2460FAEF12F58B5059EC246011
:10F45000FAED12F58B4016804DEE24E0FAEF12F52E
:10F46000805043EC24E0FAED12F5805039C3EC9E55
:10F47000ED9F4032740A124849E0FC600574016C4B
:10F480007024740F124849E0FA600F74016A600A30
:10F4900074026A600574036A700C740E124849E0C5
:10F4A000FB74075B7005791202F57B9004CCE06475
:10F4B000017005790C02F57B74075B9004D0F0E5D0
:10F4C0000B9004CFF0EA9004D1F0EC9004BE702FC2
:10F4D000E4F0900362E09004BFF0900363E09004D6
:10F4E000C0F0900364E09004C1F0900365E09004E4
:10F4F000C2F0900366E09004C3F0900367802E741E
:10F5000001F0900368E09004BFF0900369E090047C
:10F51000C0F090036AE09004C1F090036BE09004A7
:10F52000C2F090036CE09004C3F090036DE090048F
:10F53000C4F07401650B700B12F5969004CDE4F0E5
:10F54000A380357404650B700512F5968023EA706C
:10F55000047900801974016A7004790180107402C2
:10F560006A70047902800774036A70057903126374
:10F57000799004CDEEF0A3EFF079007F0202493FCD
:10F5800034FFFBC3EA94E1EB943F2234FFFBC3EA70
:10F590009461EB943F22E50AA3F088828983E0908E
:10F5A00004C612F5CBE09004C712F5CBA3E090049B
:10F5B000C812F5CBA3A3E09004C912F5D2E09004E1
:10F5C000CA12F5D2A3E09004CBF022F0888289839E
:10F5D000A322F088828983A3A3A3A32274F61248EE
:10F5E0006DE9FEC39420500BEE9004D5F0601EEA46
:10F5F0004B70047912801E12F7E3124A80EAFCEB8A
:10F60000FD7AD67B0412676974021248139004D401
:10F610007401F0790002F57B74F412486DE9FF90F3
:10F620000375E06409700302F722E0640A700302C4
:10F63000F722E0640B700302F722E0640C7003020F
:10F64000F722E0640D700302F7229004CFE0601609
:10F6500064016012E06403600DE064026008E0642D
:10F6600004600302F7959004BEE060076401600344
:10F6700002F7959004CFE064036005E06402701027
:10F680009004CDC3E094A0A3E09400500302F7954A
:10F69000EF700302F72E14600302F7959004CCE09C
:10F6A0006401607E9004CFE0600964016005E0645D
:10F6B00004700812626BE954FD706779011262539D
:10F6C0009004BCEAF0A3EBF09004CC7401F090033A
:10F6D00075E070551263018A0A8B0B8C0C8D0D90AE
:10F6E000822F780A12464D9081B3780A12469B9079
:10F6F00004BC12F799A3A3780A1246D09004BCE088
:10F70000F8A3E0C82406F582E438F583E4F0A3F01A
:10F710001260FDE960107ABC7B041262599004CC3F
:10F72000E4F07921800512623B790002F0649004D4
:10F73000CCE060EEA2AFE433FEC2AF7ABC7B041231
:10F7400062599004CCE4F0126277E970411262EFE2
:10F75000906182E0C2E6F0E5E170FC75E10175912F
:10F76000BF75E1F190037BE0640170187A207B00A3
:10F77000900374E0F91268D77A207B00900374E05C
:10F78000F91267C37A00900374E0F9126847EEA299
:10F79000E092AF809479128092E0F8A3E0F583883C
:10F7A00082227F0102493F74F612486DE9FEC3943C
:10F7B00020500BEE9004F5F0601EEA4B70047912B5
:10F7C000801E12F7E3124A80EAFCEBFD7AF67B0416
:10F7D00012676974021248139004D47401F079001E
:10F7E00002F57BE0F50A750B00780A22C082C0831F
:10F7F000900375E064076004790C805CEC4D605BFD
:10F80000C3EB940F5055EA4B70519003A8E070047D
:10F81000790280447A008C828D83E0C0E0EAF8C3EC
:10F82000E498F895E0F9747328F582740439F58347
:10F83000A3A3A3A3D0E0F00A8C828D83A3AC82ADF6
:10F8400083EAC3941040CF9004797401F079057A6B
:10F85000A57B0312615D790002F8AD791280F9C0D1
:10F8600082C083900375E064076004790C8039C31B
:10F87000EB940F5020EA4B701C9003A8E0700479C1
:10F88000028025900482E06401700E90049A740650
:10F89000F07902800A7912800FA37406F0790D7A4C
:10F8A000A57B0312615D79008003F07900D083D0DD
:10F8B000820244A7790C0244A7C082C083E9F89071
:10F8C000051CE07004790C800EE8600E1470119035
:10F8D000037A7401F0790002F8AD90037AE480F4C1
:10F8E000791280F3E0F50AA3E0F50BE50A450B2257
:10F8F000F08A828B83A32212F8F0A3A3E02212F9EC
:10F9000008A32212F908E022F08A828B83A3A3A322
:10F91000A322900362E090036EF0900363E09003F3
:10F920006FF0900364E0900370F0900365E0900343
:10F9300071F0900366E0900372F0900367E090032B
:10F9400073F02274F712486D74FF1247FDEA4B60A2
:10F95000078A828B837401F0EC4D60099003A2E06A
:10F960008C828D83F0740A12484912F3E47003020A
:10F97000FA4F7F007E0080787401F0E0C0E0E82C50
:10F98000F582E439F583D0E0F0EA240412EDD7C023
:10F99000E012FA59D0E0F00FEA240512EDD7C0E0EA
:10F9A00012FA59D0E0F00FEA240612EDD7C0E012A7
:10F9B000FA59D0E0F00FEA240712EDD7C0E012FAAE
:10F9C00059D0E0F00FEA240812EDD7C0E012FA593E
:10F9D000D0E0F00FEA240912EDD7C0E012FA59D0B6
:10F9E000E0F00F12EDD4C0E012FA59D0E0F00F0EA3
:10F9F0009003A2E0FAEEC39A5055EEFAC3E4940FD6
:10FA000050EDEA70EA9003A8E060E4EE75F00BA414
:10FA1000CAACF02CFB74A52AFA74033BFBEFFCE89C
:10FA20002CF582E439F583EEF074012CFC74012C82
:10FA3000FF8A828B83E0FDA3E0F5838D82E0648002
:10FA4000851A82851B83600302F978E402F97A79CA
:10FA500000740112481302F7A2E82FF582E439F589
:10FA60008322C082C083EA4B60069003A212F09EFC
:10FA700002F8AB74F612486D790112618D8A0A8B17
:10FA80000B74FF650A700474FF650B7004791280B3
:10FA900002790002F57BC082C0839002E3804C7F34
:10FAA0000102493FC082C0838A828B83E064B070C8
:10FAB00038A3E070348A828B83A3A3A3A3E0F874F5
:10FAC00012687010EA240BF582E43BF583E06401D0
:10FAD00070178005741B6870107C017D008A828B12
:10FAE00083A3A312FC99125EE78005EAF0A3EBF072
:10FAF000D083D0820244A774F712486DE99002E2E5
:10FB0000F0900347E0049002E1F07A047B00125E7B
:10FB1000CF125C1D808974F412486D8A0A8B0BEB3E
:10FB2000548060309002E2E0F91267A58A0C8B0DD8
:10FB3000AE0CAF0DEE4F60138E828F83E064A07029
:10FB400003125CEFEEFAEFFB126793AA0AE50B646F
:10FB500080FB80047A007B0002FC8574F412486DFF
:10FB600074F41247FDEAFEEBFF851A82851B83744D
:10FB700001F074051248631259BFE9F50CEE240236
:10FB8000F50AE43FF50BE9600302FC3874071248FC
:10FB900049E0A2E050379002E512FE11E8496028E2
:10FBA000A81AA91B880C890D780C124A80740712B8
:10FBB000486312FC939002E512FC8A12486B7402AF
:10FBC000124813E9F50C8070750C06806B9002E307
:10FBD00012FE11E849602AA81AA91B880C890D7821
:10FBE0000C124A80740712486312FC939002E312CD
:10FBF000FC8A12486B7402124813E9F50C700580F8
:10FC000037750C067406124849E0702C74071248C8
:10FC100049E0C0E07401124849D0E0F07402124893
:10FC200049E4F0A3F07404124849E50CF0740112A1
:10FC3000486312FC93125965851A82851B83E06024
:10FC4000148E828F83A3A3A3A3A3A312FC99EA4BD0
:10FC500060031267EDE50C701D7407124849E0F867
:10FC6000741268700C7406124849E06401700780D1
:10FC70000F741B68600A7C017D0012FC93125EE722
:10FC8000740C1248137F0402493FE0F8A3E0F583A7
:10FC9000888222850A82850B83E0FAA3E0FB227426
:10FCA000F012486D890B8A0E8B0F8C0A8D0C74FF35
:10FCB000650B607C7A1B7B0012678D8A108B11AEFE
:10FCC00010AF11EE4F60648E828F8374B0F0A3E5A5
:10FCD0000AF08E828F83A3A3E50EF0A3E50FF08ECA
:10FCE000828F83A3A3A3A3E50CF0EE2405FAE43FDF
:10FCF000FB7410124849E0FCA3E0FDEC4D60157563
:10FD00000E16750F00780E124A801267697402127F
:10FD1000481380097C167D007900126781EEFAEFA6
:10FD2000FBA90B126799750A008008750A138003F6
:10FD3000750A02A90A7F0802493F74F412486D74DB
:10FD40000E124849124A97740E124849E0F50AA368
:10FD5000E0F50BE50A75F0E8A4C50AA8F075F00314
:10FD6000A428F875F0E8E50BA428F50BE4F50CF5EC
:10FD70000D780A124A7C12680B740602FC8274F732
:10FD800012486DEAFEEBFFEE4F601A8E828F83E021
:10FD9000F974FF69600F74FE69600A1268118E823F
:10FDA0008F8374FFF002FA9F74F612486D74FE128E
:10FDB00047FDEAFEEBFF740C12484912FE11C3EC3A
:10FDC00098ED9950068C0A8D0B8004880A890BAC3B
:10FDD0000AAD0B125A55E9702E901571E0F46027A8
:10FDE000851A82851B83E50AF0A3E50B12FE5112EA
:10FDF0004A807D7F7C00EEFAEFFB901571E0F912EE
:10FE00005CF5740212481374021248137F0202490F
:10FE10003FE0F8A3E0F92274F612486D74FE124731
:10FE2000FDE9FE901571E0F46025EE851A82851BD0
:10FE300083F07401124849EC12FE51124A807D7E13
:10FE40007C00901571E0F9125CF574021248138081
:10FE5000B6F0A81AA91B880A890B780A22C082C0AA
:10FE600083E924FB604D14603514604124FE604337
:10FE700024FE603924FE603514602C14602F24FEAB
:10FE8000603114603C24FC603014602D24FC60312F
:10FE900024FE602D24CB602924806025802F8A8257
:10FEA0008B83A3A3A380168A828B83801B8A828B79
:10FEB0008380148A828B83800D8A828B83A3A380A4
:10FEC000048A828B83A3A3A312FC9980047A007B0B
:10FED0000002FAF074F312486D890E8C0C8D0DE956
:10FEE00024FB602B14602424FD602424F86020147B
:10FEF000602524FC601D14601A24FC601A24FE6036
:10FF00001624CB60122480600E80107E07800E7E47
:10FF100002800A7E0580067E0380027E018E0A74BE
:10FF2000FF650C700474FF650D700E125A5BEAC316
:10FF3000950AF50CEB9400800D74D2650E7009ECF7
:10FF4000240CF50CE43DF50DE50C2EFAE4350DFB23
:10FF5000125FADEA4B6025740D12484912FE1188FC
:10FF6000828983E58245836007E50CF0A3E50DF007
:10FF7000C3E49EFC95E0FD1267F380047A007B00E9
:10FF80007F0502493F74F612486D125D13EA4B601B
:10FF9000031267ED02FE0CC082C0837A187B001248
:10FFA000682F90148AEAF0A3EBF07C187D007900AA
:10FFB000126781790012600779011266CD79021209
:10FFC00065A179031267FF7904125EF97905125B66
:10FFD000D579061265057907125CE379081269077D
:10FFE0007909126649790A125D2B790B12692BD0B7
:10FFF00083D0820244A7FFFFFFFFFFFFFFFFFFFF49
:020000040001F9
:10000000C082C0837851790588828983A3E41284F1
:10001000D774FFF0E8241CF850010964A57003E9C7
:10002000640570E490054E74FFF090054DE4F09087
:10003000054CF090054FF0A3028A3D74F012486D14
:1000400090054FE0F50CA3E0F50DE50C450D7006AD
:100050001260DF028350850C82850D83E0146018E6
:1000600014601524FE601124C4700302819E24C014
:10007000700302819E028350E0F912624D8A0A8B5E
:100080000BAE0AAF0B9003A2E0607412618712837B
:100090006BAC0AFDEEFAEFFB126247E9F510740251
:1000A000651060468E828F83E06401600302835096
:1000B000EE650C7003EF650D60031260FDE51070D6
:1000C000261263018A0E8B0F8C108D1190822F786F
:1000D0000E12464D9081B3780E12469B8E828F830E
:1000E000A3A3780E1246D002823012835B12629B69
:1000F0008E828F83E0FA9003A3F07902028280EE71
:10010000650C7003EF650D700302834D8E828F8343
:10011000E0640160030283501260FD1263018A0AE9
:100120008B0B8C0C8D0D9081FB780A12464D780A52
:10013000124A7C8E828F83A3A31246DF1256CC74A0
:1001400004124813E970541263018A0A8B0B8C0C59
:100150008D0D90822F780A12464D9081B3780A1245
:10016000469B8E828F83A3A3780A1246D090037594
:10017000E0640270238E828F83A3A3780A1246C1A3
:100180009081EB780A12464D9081B3780A12469B13
:100190001283551246D080031289EC0283439003E8
:1001A000A2E0700302829B12618712836B9003A30B
:1001B000E0F875F00BA4C8AAF02AF974A528F50C8C
:1001C000740339F50D90054DE054076076A3E0F90E
:1001D00012624D8A108B11AE10AF11AC0AAD0B122A
:1001E0006247E9F510740265106058850C82850D30
:1001F00083A3A3A3A3E0F91262958E828F83E064A8
:100200000170401260FDE51070261263018A0E8BAA
:100210000F8C108D1190822F780E12464D9081B365
:10022000780E12469B8E828F83A3A3780E1246D03F
:10023000850A82850B83A3A3780A1246C19081FFA9
:1002400002832BE50E650C7004E50F650D602A85B1
:100250000C82850D83A3A3A3E0600F850C82850D1E
:1002600083A3A3A3A3E0F912629512835B12629B9E
:100270008E828F83E09003A3F079029003A3E0FACB
:1002800075F00BA4CAA8F028FB74A52AFA74033BE6
:10029000FB124EDBAA0AAB0B02834D90054DE054D6
:1002A000077003028350A3E0F912624D8A0A8B0B98
:1002B000AE0AAF0B8E828F83E0640160030283502D
:1002C0001260FD1263018A0A8B0B8C0C8D0D9081DC
:1002D000FB780A12464D780A124A7C8E828F83A3DD
:1002E000A31246DF1256CC7404124813E97054125C
:1002F00063018A0A8B0B8C0C8D0D90822F780A1269
:10030000464D9081B3780A12469B8E828F83A3A3B9
:10031000780A1246D0900375E0640270238E828FB3
:1003200083A3A3780A1246C19081EB780A12464D46
:100330009081B3780A12469B1283551246D08003EF
:100340001289EC90054E7401F0EEFAEFFB12624157
:100350007F0802493F1284CC780A22E50E2404FE6D
:10036000E4350FFF8E828F83E0F922E9F875F00BF8
:10037000A4C8AAF02AF974A528F50E740339F50F5C
:10038000850E82F583E0F50AA3E0F50B2274F012E6
:10039000486DEAFEEBFFEE2402F8E43FF9880A8993
:1003A0000BEE2406F8E43FF9880C890D8882F5836A
:1003B000124A97850A82850B831246DF1262DD742A
:1003C00002124813850C82850D83124A97850A8292
:1003D000850B831246DF1262D17402124813128415
:1003E000CC1246DF1262E38E828F83E06440701984
:1003F000EE2412F8E43FF988828983E09060641269
:1004000084D7A3E09060658006906064E4F0A3F078
:1004100090054FEEF0A3EF1289E1128EB112486BF6
:10042000906054E41284DDA31284DD906182E0C206
:10043000E6F07591BF1289D7E06401700312631F63
:10044000E5E170FC1289C7E0F46003E0F5E1128990
:10045000D1F090037BE06401706F1263018A0A8B14
:100460000B8C0C8D0D780A124A7C8E828F83A3A38D
:100470001246DF12572874041248138A0A8B0B8C19
:100480000C8D0D9081F7780E1246C1780A790E1204
:1004900045137403780A124602E50A24F4F50AE5C6
:1004A0000B3401F50B90051CE0600312681DE4F5A8
:1004B0000CF50D780A124A7C7A207B00900374E0D8
:1004C000F91268CB7404124813028350EE240EF51F
:1004D00082E43FF58322A3F08882898322F0A3F08F
:1004E000A3F0A3F0A3F0A3F02274EC12486DEAFE8F
:1004F000EBFF8C0A8D0BEE4F70030285A112630196
:100500008A0E8B0F8C108D119081EF780E12464D54
:100510009081B3780E12469B9081F3C082C083789D
:100520000E124A7C850A82850B83A3A31246DF1232
:10053000572874041248138A128B138C148D15D00B
:1005400083D08278121244F45057850A82850B8337
:10055000A3A3780A1246C1908203780A12464D7806
:100560000A124A7C8E828F83A3A31246DF1256CCD6
:100570007404124813E970299081C3780E12464D15
:10058000780E124A7C8E828F83A3A31246DF125606
:10059000CC7404124813E970047900800679018054
:1005A0000279027F0C02493F74F012486D890A7487
:1005B000FF650A600302866190054DE054077003F1
:1005C0000288F57904126265E96401700879041201
:1005D00062710288F97901126265E96401703C7AFE
:1005E000007851790588828983E064017006A3E070
:1005F000640160150AE8241CF8500109EAC3940359
:1006000040E37A007B000288F9EA75F01CA4F8A99F
:10061000F0745128FA740539FB80EB790212626597
:10062000E96401703C7A007851790588828983E019
:1006300064027006A3E0640160150AE8241CF85007
:100640000109EAC3940340E37A007B000288F9EAD7
:1006500075F01CA4F8A9F0745128FA740539FB80D0
:10066000EB7A007851790588828983E0650A700603
:10067000A3E0640160210AE8241CF8500109EAC3E0
:10068000940340E37E007F00A90A126265E96401D9
:100690007017750B018015EA75F01CA4F8A9F074A9
:1006A0005128FE740539FF80DF750B00E50A1460E0
:1006B0001014700302878524FE70030288060288E6
:1006C000F57902126265E96401706C7A00785179FB
:1006D0000588828983E064027006A3E064016052A9
:1006E0000AE8241CF8500109EAC3940340E3750C9E
:1006F00000750D00E50BA2E05031850C82850D835D
:10070000A3A3780E1246C19081B7780E12464D7899
:100710000E124A7C8E828F83A3A31246DF1256CC20
:100720007404124813E970030288EFAA0CAB0D029F
:1007300088F91288FC80BD7904126265E964017051
:10074000317A007851790588828983E064047006E3
:10075000A3E0640160170AE8241CF8500109EAC309
:10076000940340E3750C00750D000288391288FC73
:1007700080F8E50BA2E05006EEFAEFFB80047A0069
:100780007B000288F97904126265E9640170307AAD
:10079000007851790588828983E064047006A3E0BB
:1007A000640160160AE8241CF8500109EAC39403A6
:1007B00040E3750C00750D00807F1288FC807A790B
:1007C00001126265E96401702A7A0078517905881E
:1007D000828983E064017006A3E0640160100AE886
:1007E000241CF8500109EAC3940340E380451288B1
:1007F000FC8046E50BA2E05006EEFAEFFB80047A9F
:10080000007B000288F97901126265E96401706574
:100810007A007851790588828983E064017006A3A3
:10082000E0640160C90AE8241CF8500109EAC39495
:100830000340E3750C00750D00E50BA2E0400302D8
:10084000872B850C82850D83A3A3780E1246C19059
:1008500081B7780E12464D780E124A7C8E828F83B5
:10086000A3A31246DF1256CC7404124813E96003A6
:1008700002872B807A7902126265E96401706A7AD4
:10088000007851790588828983E064027006A3E0CC
:10089000640160500AE8241CF8500109EAC394037B
:1008A00040E3750C00750D00E50BA2E040030287E4
:1008B0002B850C82850D83A3A3780E1246C19081EF
:1008C000B7780E12464D780E124A7C8E828F83A323
:1008D000A31246DF1256CC7404124813E9600302D7
:1008E000872B800B1288FC80BFE50BA2E05006EE40
:1008F000FAEFFB80047A007B00028350EA75F01C5B
:10090000A4F8A9F0745128F50C740539F50D22747A
:10091000F712486D890A7A007E517F058E828F8397
:10092000A3E060030289AD8E828F83E0F4601090B3
:10093000054FE0F8A3E0F9EE687002EF69606E8E93
:10094000828F83E50AF0126301EAF8EBF9ECFAED25
:10095000FB8E828F83A3A31246F78E828F83A3A37D
:10096000A3A3A3A3E4F0A3F01289EC1289C7740136
:10097000F01289D11289E1E4F0A3F08E828F83A373
:1009800004F090054DE0450AF090054CE004F06459
:1009900001600C7480650A60067440650A700890F6
:1009A000054FEEF0A3EFF0EEFAEFFB80150AEE2410
:1009B0001CFE50010FEAC39403500302891C7A0005
:1009C0007B007F0102493FEE2414F582E43FF5836A
:1009D000221289D7740122EE2415F582E43FF583B3
:1009E00022F0EE241AF582E43FF583221284CC74BF
:1009F000FFF0A3F0A3F0A3F022C082C0838A828B11
:100A000083E0F8A3E0F98A828B83E4F01284D612A3
:100A100084D6E0F4F890054DE058F090054CE014D1
:100A2000F0701490054FE4F0A3F0900375F0FA9085
:100A30000374E0F91268478005ED9061C6F0D08339
:100A4000D0820244A7C082C08390054CE0600A9027
:100A5000054FE0FAA3E0FB80047A007B0080DFC052
:100A600082C083E9FB7800758251758305E06B7065
:100A700016E875F01CA4F8A9F0745228F5827405E4
:100A800039F583E0F9801308E582241CF5825002D1
:100A90000583E8C3940340D5790080A2C082C08357
:100AA00090054DE0F98097C082C08378007A517B31
:100AB000058A828B83E0697018A3E064017012E8F4
:100AC00075F01CA4FAABF074512AFA74053BFB8054
:100AD0001208EA241CFA50010BE8C3940340D27AAE
:100AE000007B00028A3EC082C08390054C80B474B3
:100AF000F712486DEAFEEBFF9061D0E0C0E0EE2413
:100B000000128C3ED0E0F09061D7E0F89061D512F1
:100B10008C6AC0E0EE2401128C3ED0E0F09061D6E9
:100B2000128C6AF8128B8EE8F070109061C5E0A20A
:100B3000E45008E0A2E75003128C511263AFEE2498
:100B400001F582EF128CBA701C128B8EE070169039
:100B500061C5E0A2E4500EE0A2E75009128C51EE0C
:100B60002401128C5475E1957A0080149061D3E0D1
:100B7000C0E0EAF8EE28F582E43FF583D0E0F00A21
:100B8000EE2400128C4640E475E1910289C2EE2405
:100B900002F582EF3401F5832274F712486DEAFE04
:100BA000EBFF9061C8E0C0E0EE2403128C3ED0E081
:100BB000F09061CFE0F89061CD128C6AC0E0128CA9
:100BC0005FD0E0F09061CE128C6AF8EE2405128CB2
:100BD0003EE8F070139061C5E0A2E0500BE0A2E3A4
:100BE0005006EE2405128C541263B5128C5FE0702F
:100BF00024EE2405F582EF128CBA70199061C5E0DD
:100C0000A2E05011E0A2E3500CEE2405128C541225
:100C10008C5F7480F01263BB7A0080149061CBE02B
:100C2000C0E0EAF8EE28F8E43F128D0BD0E0F00ABD
:100C3000EE2403128C4640E475E1810289C2F582FC
:100C4000EF3401F58322F582EF128CBEF8EAC398E7
:100C500022EE2402F582EF3401F5837480F022EE57
:100C60002404F582EF3401F58322E0C398547F22F7
:100C7000C082C0839061C6E0FDE0540FF075E19141
:100C80007C008010ECF8EA28F582E43BF583E090E4
:100C900061D2F00CEA2400128D1640E8EA24021218
:100CA0008CB760049061D6F0EA2401128CB760041E
:100CB0009061D5F0028A39F582EB128CBE223401A4
:100CC000F583E022C082C0839061C6E0FDE054F06D
:100CD000F075E1817C008010ECF8EA28F8E43B1222
:100CE0008D0BE09061CAF00CEA2403128D1640E8E7
:100CF000EA2405128CB760049061CEF0EA24041255
:100D00008CB760049061CDF0028A39F9E82480F54F
:100D100082E439F58322F582EB128CBEF8ECC3989D
:100D20002274F412486D128E96126283EEFAEFFB73
:100D300012627D750C80750D00780C124A807C0063
:100D40007D60EE2406FAEF3401FB1261ED740212AD
:100D50004813906195E0C0E0EE2486128C3ED0E00E
:100D6000F0906196E0C0E0EE2487128C3ED0E0F077
:100D7000906197E0C0E0EE2488128C3ED0E0F090C5
:100D80006198E0C0E0EE2489128C3ED0E0F07F0450
:100D900002493F74F212486D128E9612628FEEFA7B
:100DA000EFFB126289750E09750F00780E124A80EA
:100DB000EE2406FCEF3401FD7A007B601261ED74D5
:100DC00002124813750E18780E124A80EE2410FC99
:100DD000EF3401FD7A0A7B601261ED740212481350
:100DE000750E2C780E124A80EE245AFCEF3401FD69
:100DF0007A547B601261ED7402124813EE2486F57A
:100E000082EF128E8EEE2487F582EF128E86EE240C
:100E100088F582EF128E7EEE2489F582EF128E77AE
:100E2000F0E50A75F00BA4C50AA8F028F50B74A527
:100E3000250AF5827403350BF583128EB1E06480C8
:100E400070079003757408801E9015FE128EBA12FA
:100E50008EBA742FF0A37462128EC074A7F0A374BC
:100E600062F09003757407F090160C128ECBA312EB
:100E70008ECB7F0602493F128CBE90619822128C65
:100E8000BE906197F022128CBE906196F022128C77
:100E9000BE906195F022890AA80AE875F08AA4C874
:100EA000AAF02AF974A528FE740539FFEEFAEFFBC3
:100EB00022E0F8A3E0F58388822274A1F0A3746293
:100EC000F0A374A1F0A37462F0A322742F128ED940
:100ED000128ED9F0A37462F022F0A37462F0A374AE
:100EE0002F2274EE12486D890D8A0E8C108D1175AB
:100EF0000C00128FD660057911028FB0741212485F
:100F000049E0F50AA3E0F50BE50A450B60307A21CC
:100F10007B00125A67E50A2415FEE4350BFF8E822A
:100F20008F83E0C39AE49B40157A227B00125A67B4
:100F30008E828F83E0F8C3EA98EB94005004790224
:100F4000806E7A637B0012682F900732EAF0A3EB81
:100F5000F0128FD67004791380567C637D0079007F
:100F6000126781128FB5E4F0900732E012963DE5EA
:100F70000D128FCAE50E128FCAA3E510F0A3E5117A
:100F8000F0129A8EE50AF0A3E50BF0129A79E4F0DC
:100F9000A3F0129AA0E4F0E50D6006126493E9F55F
:100FA0000C128FB57401F0E50C60031264C9A90C32
:100FB0007F0A02493F128FB922128FBD2290073259
:100FC000E0F8A3E0F5838882A322F0128FCF2212EB
:100FD0008FBDA322E9FE9007321293ADE849227437
:100FE000F612486D7E00128FD66014129AAAE0F8AD
:100FF000740268600F740368600A7404686005799D
:10100000120290A51290B66C7003A3E06D60057992
:10101000020290A5750A108E0B780A124A80EAFC2B
:10102000EB1290A8126769740212481379109007A6
:1010300032E0242BFAA3E03400FB1264099007325B
:10104000E0241BF50AA3E03400F50B780A124A806D
:1010500012970E1290A8126481740212481390071E
:1010600032E02401129A6EE0FA900732E0FBA3E02E
:10107000F5838B82E0600D74036A70278882898310
:101080007402801974046A7009888289837402F07A
:10109000801174036A700C888289837405F012646D
:1010A00099E9FEEEF9029B4BFD900732E02407FA26
:1010B000A3E03400FB22900732E0F8A31290C02294
:1010C000E0F5838882A3A3A3E022C082C0839007B7
:1010D000340293E974F712486D128FD460131290A2
:1010E000BC6A7003A3E06B700874016E7003126435
:1010F000C97F0102493FC082C08379171264CF02C1
:1011000093EE74F412486D74ED1247FDEAF8EBF9B2
:10111000851A82851B83E4F088828983A3A3A3A315
:10112000A3A31295F18A828B83E0F50AE82402FEDC
:10113000E439FFE50A14602714602414603A14604F
:101140005A14606114606814606F14607614607DD6
:101150001470030291D71470030291E10291EB74B1
:1011600001124863126529E9F87412687014851A2F
:1011700082851B837406807B740112486312653577
:10118000E9F8E86003029232750B071295ED125FE1
:10119000CBEA4B7061750A08029229740112486308
:1011A00012654180DB740112486312654D80D17471
:1011B0000112486312655980C774011248631265B1
:1011C0006580BD740112486312657780B3740112A3
:1011D000486312657D80A974011248631265898095
:1011E0009F74011248631265958095851A82851B4C
:1011F000837407F08045EA240BF582E43BF583E035
:10120000640870059007368003900734128FD96008
:101210001512963F1293A1600D7401124863A90A3A
:1012200012486BE9F50B850B0A851A82851B83E54D
:101230000AF0851A82851B83E0600CAC1AAD1B1284
:1012400095ED12646F80031263E574131248137FE7
:101250000402493F74F612486DECFEEDFF750A4733
:10126000750B65780A124A80790212659B74021226
:101270004813E9F50A8E828F83E0F91264CFA90A38
:10128000029B4B74F412486DEAFEEBFF890A128F41
:10129000D670030293721290BC6E7003A3E06F606D
:1012A00003029372900732E0240108A3E03400F9AE
:1012B000E8FAE9FB8A828B83E0F87406686003022F
:1012C000935F129516607F900733129D661293AD5F
:1012D000900732E0FCA3E0CC2418F582E43CF583CF
:1012E000E0FCA3E0FDE82413F582E439F583E0F89F
:1012F000A2E050168C828D83A3A3A3A3A3E0A2E057
:1013000050088A828B8374078034E8540260168CFC
:10131000828D83A3A3A3A3A3E0540260088A828BD7
:101320008374098019E8540460178C828D83A3A309
:10133000A3A3A3E0540460098A828B83740BF0801A
:10134000159007368003900734128FD960081293E6
:101350009C600312486B1293E2703C7900800E741B
:101360001168700EE50A6003750A32A90A1264CF8B
:101370008025E50A7018EEFAEFFB125FCB8A828BAC
:1013800083E58245836007A3A3A3E0D2E4F0EEFAED
:10139000EFFBA90A125B4B790102924F129643A30D
:1013A000A31293AD88828983E582458322E0F8A366
:1013B000E0F922C082C083128FD660241296957005
:1013C000059007348003900736128FD96008129376
:1013D0009C600312486B1293E2700579001264CF8F
:1013E000800C128FB9E0641222EAF0A3EBF0D083F4
:1013F000D0820244A774E812486D74EB1247FD8A4C
:10140000188B198C168D17128FD6700579120295CC
:101410000C1296A0125FCB8A0A8B0BAE0AAF0BEEB2
:101420004F7005791402950CAA1AAB1B1264DBEEFF
:101430002405F514E43FF515EE2404F512E43FF518
:1014400013129516602FA81AA91B880E890F129ADD
:1014500095FEA3E0FF125AAFE9F5107900125AB5D4
:101460008A0A8B0B851282851383E0F51185140C93
:1014700085150D8036900733129A9BF50EA3E0F583
:101480000FA81AA91B880A890BAE0AAF0B125AAF14
:10149000E9F5117900125AB58A0C8B0D85128285F7
:1014A0001383E0F51085140A85150B740E1248633A
:1014B000EEFAEFFB12651D7407124863AA0EAB0F1C
:1014C000126517742D124849124A97780C124A80F7
:1014D000E511F50C780C124A84780A124A80740ED1
:1014E000124853880A890B780A124A8074171248E6
:1014F00053880A890B780A124A80A910AC16AD17D6
:10150000AA18AB191263F7740B124813741512481A
:10151000137F1002493F900732E0F8A3129643E090
:101520002274F612486D74F71247FDEAFEEBFF8C49
:101530000A8D0B900734128FD970030295E812962A
:101540003F128FD970030295E88C828D83E0C0E052
:101550007402124849D0E0F08C828D83A3E0C0E091
:101560007403124849D0E0F08C828D83A3A3E0F984
:101570007404124849AA82AB83126415850A8285D5
:101580000B83A3A3A3E0C0E07406124849D0E0F0A7
:10159000850A82850B83A3A3A3A3C082C08374079B
:1015A000124849AC82AD83D083D0827402124710B6
:1015B00074021248637901EEFAEFFB90073412953A
:1015C0001912963D12486BE9851A82851B83F060DB
:1015D000177401124849E9F074011248638E828F32
:1015E00083A31295F112646F7409029B488E828F57
:1015F00083E0FAA3E0FB2274F712486D890A900792
:1016000036128FD9603212963FA3A3A3A31293ADD3
:10161000E8FEE9FFEE4F6020740B124849124A972A
:10162000740B124849124A97A90A8E828F83124876
:101630006B7404124813800279020290F1F8A3122D
:10164000964322E0F58388822274F612486D74F97D
:101650001247FD128FD66033AA1AAB1B1264DB123D
:10166000969A1296926008750A17750B6580067532
:101670000A1D750B65780A124A8074021248637954
:101680000712659B740212481380027901740702E5
:101690009B48900733129643E022900732E0F8A36C
:1016A0001290C0FAA3E0FB2274F612486D74F01297
:1016B00047FD750A10750B00780A124A80900732B0
:1016C000E0241BFCA3E03400FD740212485B1267A7
:1016D000697402124813750A2F750B65029B2F74EB
:1016E000F612486D74F01247FD750A10750B0078FC
:1016F0000A124A8012970EFD740212485B12676943
:101700007402124813750A3B750B65029B2F9007F4
:1017100032E0242BFCA3E034002274F012486D8ADE
:101720000A8B0B750C00129A79128FD96003029AFA
:10173000257A077B0012682F900732E02418129A4E
:101740006EEAF0A3EBF088828983E0FA4B70030223
:101750009A20129A8EE0FEA3E0FF750E07750F0027
:10176000780E124A80AC0AAD0B12676974021248F7
:10177000131295166003029992EE2413FCE43FFDC8
:10178000900733129A9B2405F50EA3E03400F50F61
:101790008C828D831293AD850E82850F83E0A2E04B
:1017A00092F0E8A2E020F001B35007A2E0E433FA9F
:1017B00080027A00E854FE4AF88C828D83129A2FB8
:1017C000C313A2E092F0E8C313A2E020F001B350EB
:1017D00012E854026004D2F08002C2F0A2F0E433B6
:1017E000FA80027A00E854FDF8EA25E0FAE433FBD7
:1017F000E84AF8E94B129A4F543FA2E092F0E813FE
:1018000013543FA2E020F001B35013E854046004E5
:10181000D2F08002C2F0A2F0E433F510800375101C
:1018200000751100E854FBFAE9FB740278101247C6
:10183000EAEA4510F8EB4511129A4F13541FA2E043
:1018400092F0E8131313541FA2E020F001B35013D9
:10185000E854086004D2F08002C2F0A2F0E433F54C
:10186000108003751000751100E854F7FAE9FB7455
:101870000378101247EAEA4510FA129A3BA3E0A255
:10188000E092F0EBA2E020F001B3501154016004AB
:10189000D2F08002C2F0A2F0E433F880027800EBCC
:1018A00054FEFBE8F9EB49129A5B74097810124771
:1018B000DBE510A2E092F08A108B11740978101207
:1018C00047DBE510A2E020F001B35013EB540260B7
:1018D00004D2F08002C2F0A2F0E433F51080037568
:1018E0001000EB54FDFB740978101247EAEB451128
:1018F000129A5B740A78101247DBE510A2E092F0AE
:101900008A108B11740A78101247DBE510A2E020D0
:10191000F001B35013EB54046004D2F08002C2F023
:10192000A2F0E433F5108003751000EB54FBFB7458
:101930000A78101247EA129A3BE0F50EA3E0F50F81
:10194000740B780E1247DBE50EA2E092F08A0E8B44
:101950000F740B780E1247DBE50EA2E020F001B306
:101960005013EB54086004D2F08002C2F0A2F0E4FD
:1019700033F50E8003750E00EB54F7FB740B780EF5
:101980001247EAEAF8EB450FF98C828D83E8F0A361
:10199000E9F0850A82850B83A3E0600F8E828F8336
:1019A000A3E06007129AA07405806D850A82850BFA
:1019B00083A3A3E054047015EE2412F582E43FF5EE
:1019C00083E0A2E24007129AA07401804B129516A0
:1019D0008E828F83600CE0FA850A82850B83E0F8A3
:1019E000800AE0F8850A82850B83E0FAEAC3940551
:1019F0005029E8C394055023E875F005A4F8A9F030
:101A0000747028F8748039F9E82AF582E439F5838E
:101A1000E0C0E0129AA0D0E0F0800D750C188008AC
:101A2000750C138003750C11A90C7F0802493FF057
:101A3000A3E9F0850E82850F83E022EB4511FB8C34
:101A4000828D83EAF0A3EBF0850E82850F8322F965
:101A50008C828D83E8129A2F131322FB8C828D8344
:101A6000EAF0A3EB129A32F510A3E0F51122F8A3E5
:101A7000E03400F98882898322900732E0F8A312CB
:101A80009A8322E0C82418F582E438F58322128F65
:101A9000CFA3A3A322900732E0F8A3129A83E022F7
:101AA000900732E0F8A3129AAA22E0C8241AF5821D
:101AB000E438F5832274F612486D750A53750B6588
:101AC000780A124A80791112659B7402807A74F642
:101AD00012486D74EE1247FDEAFEEBFF851A82850F
:101AE0001B83ECF0A3EDF0750A08750B00780A1261
:101AF0004A80741E124849E0FCA3E0FD74041248B9
:101B000049AA82AB831267697402124813750A5F8F
:101B1000750B65780A124A807402124863790BEEDD
:101B2000FAEFFB12659B7402124813741280197845
:101B30000A124A807402124863791112969A126549
:101B40009B740212481374101248137F0202493F1B
:101B500074F612486D750A6B750B65029AC074F4C1
:101B600012486D74F91247FDEAFEEBFF851A828573
:101B70001B83E9F0750C06750D00780C124A807411
:101B800003124849AA82AB83126769740212481390
:101B9000750C71750D65780C124A807402124863D9
:101BA0007908EEFAEFFB12659B7402124813740772
:101BB00002924C74F612486D750A83750B65029A91
:101BC000C0C082C083128FD66050E0C82418129C17
:101BD000206003126835129C97245B129C206003DE
:101BE000126835129C97245D129C206003126835A0
:101BF000129C97245F129C206003126835129C97F8
:101C00002461129C2060031268359007321295F10E
:101C1000126835900732E4F0A3F01263EB0293EE02
:101C2000F582E438F583E0FAA3E0FBEA4B2274F78F
:101C300012486D128FD4605CE0C82461F582E438EC
:101C4000F583124A97129C97245FF582E438F58356
:101C5000124A97129C97245DF582E438F583124A64
:101C600097129C97245BF582E438F583124A971209
:101C70009C972417F582E438F583E0FB1290B6FCBC
:101C8000A3E0FD129692FAEEF9125B5D7408124819
:101C9000131264C90290F1900732E0F8A3E0C82261
:101CA000C082C0837910900732129C266035129A48
:101CB00095FAA3E0FBEAFCEBFDEC4D6026129A8E50
:101CC000129C26601EEA2415F582E43BF583E0F8B9
:101CD0008C828D83A3A3A3A3E0FAC3985003EA8068
:101CE00001E8F90293EE74F612486DEAFEEBFF127A
:101CF0008FD66066129D66128FD9605E880A890B46
:101D000088828983E08E828F83F088828983A3E032
:101D10008E828F83A3F0E82412F582E4350BF583DD
:101D2000E0F9EE2402FAE43FFB126415E50A2415FB
:101D3000F582E4350BF583E08E828F83A3A3A3A302
:101D4000F0E50A2413F582E4350BF583EE2405FC57
:101D5000E43FFD740212471080097C077D00790082
:101D6000126781029B4B129643A3A3A3A3A32274E1
:101D7000F212486DE9FF8C0A8D0B7E008F0C8E0DE0
:101D80008A0E8B0F780E124AC401031AE0A0C49D7C
:101D9000DB9DF29DE0A00A9ECE9EDF9E189F5A9F7B
:101DA000779F949FB39FD09FE0A0ED9F2FA04BA063
:101DB00060A06FA089A0E0A0E0A0E0A0E0A0A5A0A6
:101DC000E0A0539E74106F600302A0DC750C1078C5
:101DD0000C124A807A997B14029FA874106F6003DA
:101DE00002A0DC750C10780C124A807AA97B1402D0
:101DF0009FA874046F600302A0DC8C828D8312465E
:101E0000EB9014B91246F702A0FE74016F60030252
:101E1000A0DC9014C3E064017003029EC990171BFC
:101E2000E0F88C828D83E090171BF0E86010E06092
:101E30000302A0FE901497E06402704B8051E070A2
:101E40000302A0FE901497E06401606EE0640470E9
:101E500061806774016F600302A0DC90171BE0646F
:101E60000160669014C3E0F88C828D83E09014C307
:101E7000F0E86026E0600302A0FE901497E064039F
:101E8000600DE064076008E06405600302A0FE9056
:101E90001496E0F9125B7502A0FEE0700302A0FE4A
:101EA000901497E064016012E06404600DE0640641
:101EB0006008E06405600302A0FE7A017B009014D4
:101EC00096E0F91267BD02A0FE7E1202A0FE740227
:101ED0006F600302A0DC12A9E590171C02A083EF3B
:101EE000C39420400302A0DC7C1F7D0079007A1F90
:101EF0007B17126781780C124A80AC0AAD0B7A1FEF
:101F00007B171267697402124813EF90171EF07C5A
:101F10001F7D17FB7A018037EFC39420400302A096
:101F2000DC7C1F7D0079007AC57B14126781780CF8
:101F3000124A80AC0AAD0B7AC57B14126769740231
:101F4000124813EF9014C4F07CC57D14FB7A009006
:101F50001496E0F9125B6F02A0F874016F6003023F
:101F6000A0DC8C828D83E0F8C39405400302A0DCE2
:101F7000E89014E402A0A274016F600302A0DC8C5C
:101F8000828D83E0F8C39404400302A0DCE890143F
:101F9000E502A0A274066F600302A0DC750C06784F
:101FA0000C124A807AE67B14126769740212481395
:101FB00002A0FE74016F600302A0DC8C828D83E0BE
:101FC000F8C39408400302A0DCE89014EC02A0A23D
:101FD00074016F600302A0DC8C828D83E0F8C394EF
:101FE00004400302A0DCE89014ED02A0A274026F8A
:101FF000600302A0DC12A9E59014EE12A9CDE84915
:10200000700302A0FE901497E06406600302A0FE35
:102010009014EE12AA1F780A124A7C7A027B009072
:102020001496E0F91268CB740412481302A0FE74EF
:10203000016F600302A0DC8C828D83E0F8C3940200
:10204000400302A0DCE89014F6805712A119600347
:1020500002A0DC12A10D400302A0DC901740803EDC
:1020600012A119707712A10D5072901742802F1291
:10207000A9E574026F7065C3E894F4E99401505CBB
:102080009014F7E8F0A3E9801912A119704EEA2420
:10209000F612A1059477E9940C5041901744EAF0A8
:1020A000A3EBF0805974016F70328C828D83E064F1
:1020B0000170297A087B00901496E0F91268DDEA35
:1020C0004B4C4D7013790012691F7A047B009014F9
:1020D00096E0F91268D780267E1680227E18801E30
:1020E000C3EA9427EB9400501374026F700E8C8235
:1020F0008D8312A538125A61E9FE80027E02EEF944
:102100007F0602493FF8EB34FFF9C3E822EA24FADC
:1021100012A105947BE9940C228C828D83E0FAA3B2
:10212000E0FB74026F2274F412486DECFEEDFF7553
:102130000A008A0C8B0D780C124AC400031B87A27C
:1021400078A17EA190A1A2A1B2A1C4A1D0A1D6A143
:10215000E5A1F4A1FAA100A211A216A21BA220A23D
:1021600025A232A237A23CA241A246A263A268A243
:102170006DA287A27DA2CAA190149802A280750CBC
:1021800010750D00780C124A807C997D1402A255BE
:10219000750C10750D00780C124A807CA97D140214
:1021A000A2559014B91246EB8E828F831246F70225
:1021B000A2A1750C06750D00780C124A807CBD7DBD
:1021C0001402A25590171B02A2809014C302A28091
:1021D00090171C02A27090171E12A2A5124A807CB2
:1021E0001F7D1780709014C412A2A5124A807CC56E
:1021F0007D1480619014E402A2809014E502A28014
:10220000750C06750D00780C124A807CE67D1480F2
:10221000449014EC806A9014ED806590173E8050D5
:102220009014EE804B9014F6E08E828F83F0A3E43E
:102230008069901740803990174280349014F7805D
:102240002F901744802A750C06750D00780C124AE1
:10225000807CF07D14EEFAEFFB126769740212487D
:1022600013803E9014F980089014FB80039014FDB5
:1022700012A9E98E828F83E8F0A3E9801E9014975B
:10228000E08E828F838014C3EA9427EB9400500E73
:10229000125A678E828F83EAF0A3EBF08003750AEF
:1022A00002A90A800EE0F50C750D00780C22740A64
:1022B0001248137F0402493F74F612486D90149738
:1022C000E0703EEA4B6008901500EAF0A3EBF07571
:1022D0000AB9750B14780A124A80750AA9750B148D
:1022E000780A124A807C997D147B00901498E0FA59
:1022F000901496E0F91265D17404124813790080A5
:102300000279117F0202493FD083D0820244A7C0E4
:1023100082C083901497E06406700F7C1312A9DCCE
:10232000901496E0F9125ADF8002791280DA74F77D
:1023300012486DE9901496F0901497E4F090173ECF
:1023400074FFF0A3F0125BCF9014987404F07C102B
:102350007D0079007A997B141267817C107D007969
:10236000007AA97B141267819014B9E4F0A3F0A35A
:10237000F0A3F09014E4F09014E5F09014EC7407DE
:10238000F09014EDE4F07C997D147A1079021268D3
:10239000A77CA97D147A1079031268A77CB97D14F3
:1023A0007A0479041268A77F0102493F74F4124845
:1023B0006D74F61247FDEAFEEBFF54806023901423
:1023C00096E0F91267A58A0A8B0BEA450B600A12A0
:1023D0006913AA0AAB0B126793EEFAEF648002A5A9
:1023E0002EEF544060137CB97D147A04790412688E
:1023F000A1EEFAEF644002A52EEEA2E0400302A493
:10240000AB90171BE070099014C3E0700302A4A501
:102410009014C3E0600B851A82851B837403F080DF
:10242000399014E4E0851A82851B83F09014E5E06E
:10243000C0E07401124849D0E0F0750A06750B003F
:10244000780A124A807CE67D147404124849AA82F4
:10245000AB8312676974021248139014ECE0C0E079
:102460007408124849D0E0F09014EDE0C0E074091F
:10247000124849D0E0F0AA1AAB1B901496E0F9126A
:102480005B69E960209014977408F012AA2A60151D
:1024900012A9D612A9E988828983E582458360055D
:1024A000790812486BEE640102A52C540260359045
:1024B0001497E06406702812A9DC125DF19014EE06
:1024C00012AA2D601A9014EE12AA17124A7C7A02F0
:1024D0007B00901496E0F91268CB7404124813EE56
:1024E00064028048EE5404600A790012691FEE64A9
:1024F000048039EE540860399014FFE01460081429
:1025000070271269018022901744124A979014F79D
:10251000124A97790190174212A53890174012A9D4
:10252000DF1269257404124813EE6408FAEFFB8089
:10253000047A007B0002A2AEE0FCA3E0FD2274F46A
:1025400012486DEA2405F8E43BF98A828B83E02483
:102550006F600B24EF606D24D2606402A61FA3E0BD
:10256000640E600302A61F8A828B83A3A3A3E06488
:10257000057004A3E06414600302A61F88828983A7
:1025800012A9D3A3A3A3E0F9901497E06406600313
:1025900002A61F747F69700302A61F90150012A97E
:1025A000DFEA4B607A90150012A9D3A3A312A9DF2A
:1025B0008A828B83E5824583606512486B80601256
:1025C0006919805B88828983E0641370528A828BE8
:1025D00083A3A3A3A3A3A3E064017002A3E07019E3
:1025E0009014FFE0640270117A087B00901496E06A
:1025F000F91268D712690180267A057B00125A67A2
:102600008A0A8B0BE4F50CF50D780A124A7C7A08DD
:102610007B00901496E0F91268CB74041248130200
:10262000A2B374EC12486DEAFEEBFF8E828F83A397
:10263000A3E0F8EE2403F50EE43FF50FEE240AF5CF
:102640000CE43FF50D8E828F83A385820A85830B70
:10265000E8602724FE700302A6F114700302A75756
:1026600014700302A75714700302A7C61470030264
:10267000A8D514700302A94A8072E0704B7C997D42
:10268000147A1079021268A17CA97D147A1079035A
:102690001268A1750A06750B00780A124A80AC0E02
:1026A000AD0F7ABD7B14126769740212481390143F
:1026B000977401F07C1F7D1790171EE0FB7A019044
:1026C0001496E0F9125B6FE9600302A74E12AA2A82
:1026D000601A12A9D612A9E9E8FAE9FBEA4B600CE4
:1026E000901497E0F98A828B8312486B7F0C024921
:1026F0003FE07051850E82850F83E0601D7CC57DB3
:10270000149014C4E0FB7A00901496E0F9125B6F09
:10271000E9850A82850B83F0802B901497E0640290
:102720006023E06407601E7A017B00901496E0F954
:102730001268DDEA4B4C4D700C7A017B00901496C8
:10274000E0F91267BD850A82850B83E0609E9014D4
:10275000977408F002A6CDE070F4740368701D90C1
:102760001497E064067004740780E890171BE090EB
:1027700014976004740280DB740380D790171C12D6
:10278000AA2D90171B6025E070069014C3E0602608
:1027900090171C12AA17124A7C7A017B009014969B
:1027A000E0F91268CB7404124813800AE0640160F7
:1027B000039014C3E4F0901497E064077004740667
:1027C00080917404808DE0F8600302A8C2EE2404B6
:1027D000F50AE43FF50B7510067511007810124AE2
:1027E00080AC0AAD0B7AF07B141267697402124850
:1027F00013850C82850D8312A9E990173E12A9CD8D
:102800009014977406F09014EE12AA2D602590147F
:10281000EEE0F512A3E0F513E4F514F515781212C5
:102820004A7C7A027B00901496E0F91268CB74041B
:10283000124813EE240DF582E43FF58312AA0BEE45
:10284000240FF582E43FF58312A9FFEE2411F582EF
:10285000E43FF58312A9F39014F6E06401703B7A2B
:102860001F7B00125A678A12EA75F0E8A4C512A805
:10287000F075F003A428F875F0E8EBA428F513E44C
:10288000F514F5157812124A7C7A047B00901496A0
:10289000E0F91268CB740412481375100478101212
:1028A0004A84850C82850D8312A538AA0AAB0B8554
:1028B0000E82850F83E0F91265DD74011248130260
:1028C000A6CD743168600302A74E90171BE4F09008
:1028D000149702A7C21266017C067D0079007AF087
:1028E0007B141267819014F9E4F0A3F09014FBF0CC
:1028F000A3F09014FDF0A3F07A04FB901496E0F995
:102900001268D77A087B00901496E0F91268D79085
:10291000173E74FFF0A3F09014C3E0600690149784
:1029200002A7788E828F83A3A3A3A3A3E064089059
:1029300014977004740580027404F07A017B00908F
:102940001496E0F91267BD02A6CD7A087B009014B8
:1029500096E0F91268D7850A82850B83E06003024E
:10296000A6EC8E828F83A3A3A3A3A3A312AA0B8E8C
:10297000828F83A3A3A3A3A3A3A3A312A9FF850C60
:1029800082850D8312A9F37A047B00901496E0F9F6
:102990001268DDEA4B4C4D600302A6EC9015021262
:1029A000AA2D700302A6EC9014FD124A979014FB16
:1029B00012A5389014F912A9DF90150212A9D312AA
:1029C000A9D312486B740212481302A6ECE8F0A3D4
:1029D000E9F022E0F8A3E0F58388822290173EE038
:1029E000FAA3E0FB228C828D8312A9ED22E0F8A3EA
:1029F000E0F92212A9ED9014FDE8F0A3E9F022120B
:102A0000A9ED9014FBE8F0A3E9F02212A9ED9014CF
:102A1000F9E8F0A3E9F02212AA1FF50D780A22E0E6
:102A2000F50AA3E0F50BE4F50C2290150012A9EDD0
:102A3000E8492274F412486D74F61247FDE9FE90DD
:102A4000174012A9E97583147582F9C3E098A3E0D1
:102A50009940389014F912A9E9758317758242C319
:102A6000E098A3E09940249014FB12A9E99014F790
:102A7000E0687003A3E06970129014FD12A9E99058
:102A80001744E0687003A3E06960797A057B00125F
:102A90005A678A0A8B0B90173E12A9E9851A82851C
:102AA0001B8312A9CD90174012A9E974021248495C
:102AB00012A9CD90174212A9E9740412484912A92B
:102AC000CD9014F712A9E9740612484912A9CD90C5
:102AD000174412A9E9740812484912A9CDAA1AABE1
:102AE0001B125AE5EE9014FFF0E4F50CF50D780A90
:102AF000124A7C7A087B00901496E0F91268CB7435
:102B00000412481302A2AE74F412486DE9FE901448
:102B100097E064066005791402AB9EEA24FAF8EBAC
:102B200012ABA15077EC24FAF8ED12ABA1506D7402
:102B30000C124849E0F50CA3E0F50DC3E50C94F444
:102B4000E50D94015056740E124849E0F50AA3E0D1
:102B5000F50BE50A24F6F8E50B12A1079476E99443
:102B60000C5039901740EAF0A3EBF0901742ECF0CC
:102B7000A3EDF09014F7E50CF0A3E50DF0901744E9
:102B8000E50AF0A3E50BF0EEF912691F7A047B0069
:102B9000901496E0F91268D779008002791802A2A1
:102BA000B312A107947AE9940C227F0102493F7481
:102BB000F412486D74FD1247FDEAFEEBFF8C0A8D9E
:102BC0000BEE4F6005EC450B7004790280517903E0
:102BD000AA1AAB1B1264097402124849E0543F441C
:102BE00040F0780A124A807402124863EEFAEFFB52
:102BF0001263F17402124813E9FE7021750C03751B
:102C00000D00780C124A807402124863E50A24030E
:102C1000FAE4350BFB1267697402124813EEF9747B
:102C200003801B124849AC82AD83743E124849129E
:102C3000B0E412676F7402124813EEF97430124850
:102C4000137F0402493F74F412486D74FA1247FD71
:102C50008A0A8B0BECFEEDFFEA450B6004EE4F7029
:102C60000479028074750C03750D00780C124A808B
:102C7000EE2403FCE43FFD740212485B12676974A2
:102C8000021248137402124849E0543F4440F07461
:102C900003124853880C890D780C124A8074021272
:102CA0004863AA0AAB0B1263F17402124813E9F9E4
:102CB0007027750A03750B00780A124A80EEFCEF44
:102CC000FD740512485B12677B7402124813E964B5
:102CD000017004790080027901740602AC3E74F43C
:102CE00012486D890A12ADC3700302ADB2E50A70D5
:102CF0005C12ADBDE0750C08750D00780C702E12DD
:102D00004A80EAFCEBFD900730E02402FAA3E034AD
:102D100000FB1267697402124813125E21E9700801
:102D200012ADB7740102ADAD750A01801B124A8065
:102D3000EAFCEBFD900730E0240AFAA3E03400FB44
:102D4000126769740212481312ADC360617A127B74
:102D50000012678D8A0C8B0DAE0CAF0DEE4F603EEE
:102D60008E828F8374C1F0A3E50AF0750C10750D87
:102D700000780C124A80900730E02402FCA3E03473
:102D800000FDEE2402FAE43FFB1267697402124868
:102D900013EEFAEFFB12ADB7A3E0F91267999007B3
:102DA0003012B0E4126835900730E4F0A3F07901F6
:102DB0008002790002AC41900730E0F8A3E0F5838F
:102DC000888222900730E0F8A3E0F9E8492274F203
:102DD00012486D7A207B00125A678A0A8B0BE4F541
:102DE0000CF50D8B0FEA450F6016780A124A7C7AB3
:102DF000017B00900738E0F91268CB740412481385
:102E00007F0602493FC082C0837A017B0090073869
:102E1000E0F91268D702B12974F412486D74D01227
:102E200047FD8A0A8B0BECFEEDFF7C307D007900BC
:102E3000AA1AAB1B126781750C10750D00780C1265
:102E40004A80AC0AAD0B740212485B12676F7402C1
:102E5000124813750A03750B00780A124A80EEFCBB
:102E6000EFFD741F124849AA82AB8312676F740288
:102E7000124813AA1AAB1B12641BE9FE780A124A05
:102E800080742F02AC2374F212486D74B01247FDA7
:102E90008A0A8B0BECFEEDFF890C7C307D007900FB
:102EA000742012485B126781750E10750F00780E42
:102EB000124A80AC0AAD0B742212485B12676F7421
:102EC000021248137C107D007900AA1AAB1B12670E
:102ED00081750A07750B00780A124A8074601248DF
:102EE0004912B0DE740212485B12676F7402124816
:102EF00013780A124A80746212484912B0DE7409CB
:102F0000124849AA82AB8312676F74021248137485
:102F100064124849E06009740E1248497401800641
:102F2000740E124849E4F0E50C6009740F12484928
:102F300074018006740F124849E4F07C107D00791A
:102F400000EC12485B126781750A06780A124A8003
:102F5000746412484912B0DE7416124849AA82AB52
:102F60008312676F7402124813780A124A807467DA
:102F700012484912B0DE741C124849AA82AB83126F
:102F8000676F7402124813750A10780A124A80EEAD
:102F9000FCEFFD7432124849AA82AB8312676F744A
:102FA00002124813AC1AAD1B7430124849AA82AB06
:102FB000831263FD742012485B12641BE9FF780AD8
:102FC000124A807442124849AC82AD83743212486E
:102FD00049AA82AB831267697402124813741012F3
:102FE00048637430124849AA82AB831263FD74208F
:102FF00012485B12641BE9FE780A124A807442127E
:103000004849AC82AD83746912484912B0E4126732
:103010006F7402124813EF4EF9745012481302AE47
:103020000074F712486D78108C828D83E0F98A82E3
:103030008B83E069F0A3AA82AB838C828D83A3ACDF
:1030400082AD83D8E302ABAA74F612486D74D01235
:1030500047FDECFEEDFF750A10750B00780A124A69
:1030600080EAFCEBFD740212485B12676F74021277
:103070004813750A08780A124A80EEFCEFFD7412B4
:10308000124849AA82AB8312676F74021248137800
:103090000A124A80743C12484912B0DE741A12486F
:1030A00049AA82AB8312676F7402124813AA1AAB43
:1030B0001B12641BE9FE750A10780A124A807422FA
:1030C000124849AC82AD83743E12484912B0E412F2
:1030D000676F7402124813EEF9743002B1A1E0FC7C
:1030E000A3E0FD22E0FAA3E0FB2274F412486DEAAB
:1030F000FEEBFF890B750A00801B126787A80A1276
:10310000B8DCEBF0050AE50AC3950B50080812B8C5
:10311000DCEAF0050AE50AC3950B40DE02AC41C0CB
:1031200082C0838A828B83E0F9D083D0820244A755
:1031300074F612486DE9FCA2E25004D2F08002C29B
:10314000F0A2F0E433F50A750B00E9A2E35004D2D3
:10315000F08002C2F08A828B83E054FCFEA3E0FF81
:10316000EE4CFCEFFDEC54FBFC7402780A1247EACB
:10317000EC450A5407FCA2F0E433F50A7403780A1C
:103180001247EAEC450AFCE9C4540FF50A740478C6
:103190000A1247EAEC450A8A828B83F0A3EDF0809D
:1031A000031248137F0202493F74F612486DEA2465
:1031B00020F50AE43BF50B780A124A80EA2410FC59
:1031C000E43BFD126421740280D7C082C083851A5B
:1031D00082851B83124A9712603D740212481302C3
:1031E000B12974E812486D74E81247FD8A0C8B0D02
:1031F00089198C0A8D0BEA450D6005EC450B7005AD
:10320000790202B326740429F518FA7B0012682F9C
:103210008A0E8B0FAE0EAF0FEE4F700302B321126A
:103220005AA38A0E8B0F8C108D11851912751300FD
:103230007812124A80AC0CAD0DEE2404FAE43FFB88
:1032400012676F74021248138E828F83A3A3A3E5C3
:103250000EF0E50FF5178E828F83A3A3F0850E1273
:10326000F51385101485111574107812124602E5B5
:1032700012F5168E828F83A3F0850E12850F13F53B
:103280001485111574187812124602E512F50C8E89
:10329000828F83F0125A9D8A128B13AC12AD137574
:1032A00012107513007812124A80740A12485B12C9
:1032B000676F7402124813A81AA91B881289137821
:1032C00012124A80A918EEFCEFFD740A12485B1234
:1032D00064337402124813E9F50D703C850A828547
:1032E0000B83E50EF0A3E51712B330E51612B330E9
:1032F000A3E50CF0750E08750F00780E124A807465
:1033000002124863E50A2404FAE4350BFB12676FE6
:103310007402124813125AA9EEFAEFFB12683580B4
:1033200003750D13A90D74181248137F1002493F3D
:10333000F0850A82850B83A3A32274E812486D747A
:10334000DD1247FD7401124849EAF0A3EB12B78978
:103350008C188D19EC4519700302B406743C1248A0
:103360004912B537700302B406740112484912B00D
:10337000E4125FCB8A168B17EA45177005791402A1
:10338000B532850A82850B83E0F512E4F513F51456
:10339000F515A3E0F50EE4F50FF510F511740878B6
:1033A0000E12461B7812790E12463A850A82850B58
:1033B00083A3A3E0F50EE4F50F7410780E12461BFC
:1033C0007812790E12463A850A82850B83A3A3A34D
:1033D000E0F50EE4F5107418780E12461B78127999
:1033E0000E12463AEA2420F582E43517F583780E6A
:1033F0001246C17812790E1244D4400F9081D378CE
:103400000E1244BF6005790202B532851A82851B0F
:1034100083E060118A828B83A3A3A3E0A2E140052D
:10342000790102B5327C087D007900740312485B93
:10343000126781743B124849E0F51074042510F5B9
:103440000CFA7B0012682F8A0E8B0FAE0EAF0FEEB8
:103450004F7005791302B5327511007810124A8049
:10346000AC18AD19EE2404FAE43FFB12676F740246
:10347000124813750E04750F00780E124A80AC0ABC
:10348000AD0BEEFAEFFB12676F7402124813750E64
:1034900010780E124A80E5162410FCE43517FD74EE
:1034A0001512485B12676F740212481374031248B6
:1034B00053880E890F780E124A80A90CEEFCEFFD9E
:1034C000741512485B1264337402124813E9F50C48
:1034D0007057750E08750F00780E124A8074051229
:1034E0004863740D12485B12676F740212481378B8
:1034F0000E124A80E50A2404FCE4350BFD740D121B
:10350000485B12677B7402124813E9640160057519
:103510000C0180157812124A7C740512484912B0C9
:10352000E4125B097404124813EEFAEFFB126835DB
:10353000A90C742302B328E0F50AA3E0F50BE50A11
:10354000450B2274E812486D74ED1247FD740112A8
:103550004849ECF0A3ED12B7898A188B197A107BD1
:103560000012682F8A148B157A107B0012682F8A3C
:10357000128B13E5144515700302B766EA45137004
:103580000302B7667812124A80AC14AD15AA18ABC4
:10359000191264397402124813E9FE600302B76E0F
:1035A0007A107B0012682F8A0E8B0F7A107B001224
:1035B000682F8A108B11E50E450F700302B748EA99
:1035C0004511700302B748851A82851B83E0790094
:1035D000240FF85001097A107B0012476A880A8983
:1035E0000BE0540FF50CE8450B7008750A01750BDC
:1035F000008008E50C70047C0180027C00E50A1460
:10360000C454F0F87401124849E028FAA3E03400E9
:10361000FBECA2E0500B7810124A80AC14AD158080
:1036200048AF0C750C00A80C7403124849E58228B9
:10363000FCE43583FDE8C39F500912B8D28C828D1B
:1036400083800EEF650C8C828D8370047480800102
:10365000E4F0050CE50CC3941040CB7810124A80BE
:10366000AC12AD13740512485B12643F7402124829
:10367000137C107D007900AA0EAB0F126781750CC8
:1036800000750D00804D7403124853881689177811
:1036900016124A80E50CC454F0F87403124849E04D
:1036A00028FCA3E03400FDAA0EAB0F12643F7402A5
:1036B000124813780E124A807405124863AA18AB98
:1036C000191264217402124813E9FE050CE50C700E
:1036D00002050DE50A24FFF8E50B34FFF9C3E50CFC
:1036E00098E50D99A2D265D0335003EE6098EE7044
:1036F0005F7403124853880A890B780A124A80AC17
:1037000010AD11AA0EAB0F12643F74021248137869
:103710000E124A807405124863AA18AB191264216C
:103720007402124813E9FE750A08750B00780A1234
:103730004A80AC0EAD0F742D12484912B0E41267E6
:1037400069740212481380087E13E50E450F600766
:10375000AA0EAB0F126835E51045116011AA10AB27
:103760001112683580087E13E51445156007AA1408
:10377000AB15126835E51245136007AA12AB131298
:103780006835EEF9741302B328F0E9851A82851BB7
:1037900083F02274EE12486D8A0A8B0B8C108D1107
:1037A0007A107B0012682F8A0E8B0F7A107B001222
:1037B000682F8A0C8B0DAE0CAF0DE50E450F700314
:1037C00002B874EE4F700302B8747C107D0079006B
:1037D000126781780E124A80EEFCEFFDAA0AAB0B4D
:1037E0001264217402124813E9F50C600302B87DDB
:1037F000750AE9750B80850E82850F83E0A2E7408C
:103800000DAC10AD11AA0EAB0F1264458020EEFC7A
:10381000EFFDAA0EAB0F1264457810124A80AC0A75
:10382000AD0BEEFAEFFB12643F74021248137412F0
:10383000124849E0F512A3E0F51385108285118343
:10384000E0A2E7400DAC12AD13AA10AB1112644513
:10385000802BEEFCEFFDAA10AB111264457812121A
:103860004A80AC0AAD0BEEFAEFFB12643F74021211
:1038700048138009750C13E50E450F6007AA0EABBF
:103880000F126835EE4F6007EEFAEFFB126835A9AC
:103890000C7F0A02493F74F612486D750A00740ADB
:1038A000124849E0F8A3E0F9E8FEE9FFA80AEC288D
:1038B000F582E43DF583E0F50B12B8D2650BC0E06C
:1038C00012B8DCD0E0F0050AE50AC3941040DD022E
:1038D000B1A4EA28F582E43BF583E022EE28F582E4
:1038E000E43FF5832274F512486D750A00750B0FDD
:1038F000E50BF83395E0F9EA28FEEB39FF8E828F6D
:1039000083E0C333450AC0E0EC28F582ED39F58346
:10391000D0E0F08E828F83E0A2E7E433F50A74FFF3
:1039200028F50BC39400A2D265D03350C37F0302A5
:10393000493F74F712486D8C828D8312BBA18C8233
:103940008D83A3E08A828B83A3F08C828D8312BF48
:103950003012BFF402C02F74F212486D74FE124789
:10396000FDEAFEEBFF890B8C0C8D0DA81AA91B88B4
:103970000E890F780E124A80741612484912C37AC3
:103980007415124849E0F9125F717402124813E984
:10399000F50A600302BA1D7412124849E0C0E085BE
:1039A0001A82851B83E0F8A3E0F5838882D0E0F0DB
:1039B000900346E004F070077401F07C018001FC84
:1039C000851A82851B83E02403F8A3E03400F9E81C
:1039D000FAE9FBEC8A828B83F07410124849124A90
:1039E00097780C124A808A828B83E0FCA90BEEFA4E
:1039F000EFFB125F237404124813E9F50A70127C7E
:103A00001E7D00851A82851B8312C387125F838007
:103A10000C851A82851B8312C387125F77A90A74EB
:103A20000202BE4874F212486D74FA1247FDEAFEB3
:103A3000EBFF890D8C0C7A177B00125FAD8A0A8B25
:103A40000BEA450B700302BAE9741612484912BD1D
:103A5000556021741412484912C37AEA2404FAE426
:103A6000350BFB8882898312486B8A0E8B0FA80E58
:103A7000A90F800478007900850A82850B83E50D03
:103A8000F0A3E50CF0E8850A82850B83A3A3F0E997
:103A9000850A82850B83A3A3A3F0851A82851B83E5
:103AA0007405F0A3E4F07402124849E50AF0A3E5B6
:103AB0000BF0E82404F8500109740412484912BAC2
:103AC000F2900345E0AC1AAD1B6009EEFAEFFB1271
:103AD0005F3B8007EEFAEFFB125F29E9FEEE600B19
:103AE000AA0AAB0B1267ED80027E13EEF974060290
:103AF000BE48E8F0A3E9F02274F512486D8C828D7F
:103B00008312C075E875F009A4F8AEF075F009E904
:103B1000A42EF974FA28F8740239F9E82403FEE4B3
:103B200039FF8E828F8312C06570338C828D83A3A0
:103B3000A312C06D8E828F83E50AF0A3E50B12BE3F
:103B40003F12C37988828983A3A3A3A3A3ECF0A324
:103B5000ED12C207A3EAF0A3EBF079008002791618
:103B60007F0302493FC082C0837A057B00125F3524
:103B7000E9701E7A067B00125F35E970147A047BC7
:103B800000125F35E9700A7A077B00125F35E96041
:103B9000047901800279008000D083D0820244A79A
:103BA000A312BF9E2274F612486D74FA1247FDEA02
:103BB000F8EBF9E875F009A4F8ACF075F009E9A4A0
:103BC0002CF974FA28F8740239F9880A890BE82468
:103BD00003FEE4350BFF8E828F8312BD5560589033
:103BE0000345E0604E851A82851B83EAF0A3EBF063
:103BF000740212484912BAF2850A82850B83A3A384
:103C0000A3A3A312C075740412484912BAF2AC1AE5
:103C1000AD1B850A82850B8312C380125F3BE9606E
:103C20000A8E828F8312C3871267ED8E828F83E4A0
:103C3000F0A3F0790180027900740612481302C0E3
:103C40005774F012486D8A0C8B0DECFEEDFFEE24DC
:103C500004F50AE43FF50B850A82F58312BD556031
:103C60000B9015FCC3E098A3E0995005791B02BDA9
:103C7000417C047D008E828F8312C3851267F38A94
:103C8000108B11850A82850B8312BBA1A385820E3E
:103C900085830F850A82850B83A312BD5D12BD5DEE
:103CA000A312BD6C850A82850B83E02404FEA3E089
:103CB0003400FF74FE650C700474FF650D70417A6A
:103CC000097B0012678DEA4B60328A828B83749085
:103CD000F0A3A3A3A3740212BD4D74FEF0A30412BB
:103CE000BD46EEF0A3EF12BD46A3A3E510F0A3E599
:103CF00011F090031DE0F912679980377913804124
:103D00007810124A80EEFCEFFD7900AA0CAB0D1280
:103D10005DD97402124813E9F9601024FE6018247A
:103D2000FB601C24F5601424F37016900345E060DA
:103D30000214F07900800A791480067902800279F1
:103D4000047F0802493F12BD4DA3A3A322F08A823B
:103D50008B83A3A322E0F8A3E0F9E8492212BD6C0B
:103D6000A385820E85830F8E828F8322E0850E824B
:103D7000850F83F02274F212486D8A0A8B0BEA24B5
:103D800002FEE4350BFF8E828F83E4F0A312BE3F68
:103D9000A3E06402600302BE3B8C828D83A3A3A3D5
:103DA000A3A3E0F50EA3E0F50FC3E50E9404E50F21
:103DB0009400500302BE3B8C828D8312C3808A82A2
:103DC0008B83E0FCA3E0F8E4C8F9EC28E439FD8A31
:103DD000828B83A3A3E0F50C8A828B83A3A3A3E049
:103DE000F9A80CEC2404F50CE43DF50DE50E650C8A
:103DF0007004E50F650D70437405687001E9601685
:103E00007404687001E9600E7406687001E9600668
:103E1000740768497025850A82850B83A3A3A3A331
:103E2000ECF0A3ED12C2137CFC7DFF1267F38E82CF
:103E30008F83EAF0A3EBF0790080027901800CF027
:103E40008C828D83A3A3A3221248137F0602493FCD
:103E500074F412486D750A02750B0012BF74A3A9A1
:103E600083EC2402FEE43DFF8C828D83E0F50CA3FD
:103E7000E0F50D7401650C450D700B12BEA012BB70
:103E8000A0750A0480117402650C450D700912BEFC
:103E9000A012BF90750A06AA0AAB0B7F0402493F25
:103EA0008E828F8312BF9E0AE9FB8E828F832274DB
:103EB000F612486D740A124849C3E09402A3E094D4
:103EC00000406312C016EA2402F8E43BF98A828BB0
:103ED00083E0FEA3E0FF74016E4F70138C828D832C
:103EE00012BF2BE0FBEE88828983F0A3EB80327453
:103EF000026E4F702D8C828D83A3A3E0F50A8C8215
:103F00008D83A3A3A3E0FFE50A88828983F0A3EF52
:103F1000F08C828D83A3A312BF2BA312C005F0A344
:103F2000E9F079008002790102C05712BF30A32264
:103F3000A3A3E0FE8C828D83A3A32274F712486DA5
:103F400012BF74EC240212BF6012BF90A30AAB83AD
:103F5000EC240612BF6012BBA07A087B0002C030BE
:103F600012BF6422F8E43DF98882898312BF8888F1
:103F7000828983228C828D8312C05C8C828D831215
:103F8000BF8322A312BF882212BFA2A30AAB83223F
:103F900012BF83EC240412BF64A312BF9E2212BF7F
:103FA000A222E08A828B83F02274F712486D740992
:103FB000124849E064087002A3E0703412C016ECA5
:103FC0002402FC50010D8C828D83E0FE12BFF4F0C0
:103FD000EC2402FC50010D12BFFB12BAF3EC2402D8
:103FE000FC50010D12BFFBA3A312BAF379008002AB
:103FF0007901803C12C00BF0A3E9228C828D83E012
:10400000FE12C0052212C00BA3A322A3E0F9EE8A80
:10401000828B83A3A32212C01A228C828D83E0FE9E
:10402000A3E0F9EE8A828B83F0A3E9F02274FFF01B
:104030007F0102493F74F712486D7409124849E044
:1040400064027002A3E0700512C051800279018001
:10405000DF12C01A7900227F0202493F12BFA2A3D9
:10406000AA82AB832212C06DE50A450B22E0F50A55
:10407000A3E0F50B22E0F8A3E0F92274F012486DFA
:10408000890C8A0E8B0FECFEEDFF7A0A7B0012671B
:104090008D8A0A8B0BEA450B604E8A828B8374A053
:1040A000F0A3E412BD4DE50EF0A3E50FF0EA240401
:1040B000FAE4350BFBEE4F6019750E06750F0078AC
:1040C0000E124A80EEFCEFFD12676974021248136B
:1040D00080097C067D007900126781AA0AAB0BA9D2
:1040E0000C12679979008002790102BD4174F012C7
:1040F000486D890A8A0E8B0F8C0B8D0C7A1C7B0005
:1041000012678D8A108B11AE10AF11EE4F606D8E5D
:10411000828F8374A2F0A3E50BF08E828F83A3A31A
:10412000E50EF0A3E50FF07410124849E08E828F7F
:1041300083A3A3A3A3F08E828F83A3A3A3A3A3E54A
:104140000CF0EE2406FAE43FFB741112484912C346
:104150007AEC4D6015750E16750F00780E124A80B8
:10416000126769740212481380097C167D00790079
:10417000126781EEFAEFFBA90A12679902BD41743A
:10418000F112486DEAFEEBFF890C740F12484912D8
:10419000C0657901606C125FD7E96064900344E008
:1041A000F510750D008002050DE50DC39510504CFE
:1041B000A80D790012C271A3AC82AD83E0F50EA305
:1041C000E0F50FE50E450F70DE8A828B83E4F0E8A0
:1041D00024405001098C828D8312BAF3EAF8EBF97E
:1041E000E849601888828983A3A3A3A3EEF0A3EF14
:1041F00012C207E50C12C2137900800679158002FD
:1042000079147F0702493FF088828983A3A3A3A37F
:10421000A3A322F0850A82850B83E8F0A3E9F022AC
:1042200074F712486DEAFEEBFF7C0A7D00790012FC
:1042300067818E828F83A3A3A3A3A3A3A302C02D10
:10424000C082C0837800800108900344E0FAE8C38C
:104250009A501712C27112C379EC4D60EB8A828BAF
:1042600083A3A3A3E06970E080047A007B0002BB13
:1042700099E875F00AA4FAABF0900342E02AFAA399
:10428000E03BFB8A828B832274F412486DEA240798
:10429000F50AE43BF50B780A124A80EC75F0E8A4C5
:1042A000CCA8F075F003A428F875F0E8EDA428FD7B
:1042B0008C0A8D0BE4F50CF50D780A124A7CEAFCA9
:1042C000EBFD7A8F7B5F12680B740612481302BEF7
:1042D0009B74F712486DEA2407FEE43BFF8E828F41
:1042E00083E0F91268118E828F8302C02D74F71259
:1042F000486DEAFEEBFFEE4F60168E828F83A312AD
:10430000BD55600C7917125F95EEFAEFFB125F77DF
:1043100002C03074F212486DEAFEEBFF890C8E8207
:104320008F83E06404704FEE2404F8E43FF9880AB8
:10433000890BE4F50EF50F780E124A80750D0078A2
:104340000D124A847D13AC0C850A82898312C387BF
:104350008E828F83A3A3A3A3A3A3E0F9125F6B7440
:10436000031248137912850A82850B8312C37A7A65
:10437000057B00125FA702BE4BA3E0FCA3E0FD2279
:10438000A3A3A3A3A3A3A3E0FAA3E0FB22C082C03C
:10439000837C077D00125FA102BB9974F512486D02
:1043A0008A0A8B0B750C00EC4D707C8051E50C7506
:1043B000F00AA4F8A9F0900342E028FEA3E039FF38
:1043C0008E828F83E06035A3A3A3A3A3A3A3E0F40D
:1043D000602A8E828F83A3A3A3A3E0650A7004A33F
:1043E000E0650B7017EEFAEFFB125F897914EEFAB5
:1043F000EFFB125F95EEFAEFFB125F77050C90036F
:1044000044E0F8E50CC39840A47E047F0079FFAC3B
:104410000AAD0BEEFAEFFB125FA70EEE70010FC3B1
:104420009408EF940040E602BB6074F712486D896F
:104430000AEA75F009A4FAA8F075F009EBA428FBC4
:1044400074FA2AF874023BF988828983A3A3A3A390
:10445000A3A3A3E06C7003A3E06D7034E8240350C1
:104460000109FEE9FF8E828F8312C07588828983DD
:10447000E5824583601A74FF650A6005E0650A708D
:104480000FAA82AB831267ED8E828F83E4F0A3F0D4
:1044900002C03074F612486DEA2404FA50010B127F
:1044A0005DD3EA4B60097CFC7DFF1267F380047AE0
:1044B000007B0002C057C082C083900282E0A2E26B
:1044C00050067A187B1680047A007B0012645779B4
:1044D00000D083D0820244A774F212486D74E012B7
:1044E00047FD8A0A8B0BECFEEDFF7C107D00790006
:1044F000AA1AAB1B126781742E124849E0F50CA36F
:10450000E0F50D90073212CA5F700302C5D312CADC
:104510004C650A7004A3E0650B600302C5D39007E5
:104520003312CA45600302C5D312CA51F874066833
:1045300070457410124853880E890F780E124A8005
:10454000900732E0244BF50EA3E03400F50F780E0F
:10455000124A8012CB8D1264037404124813E9705E
:10456000721264D5E9F50C750D00780C124A80744E
:104570001212486302C638900732E0F9A3E0C9245A
:104580005BF582E43912CFA2604912CC56741168EF
:10459000600302C652E0650C7004A3E0650D702E46
:1045A000750E08750F00780E124A8012C6A91267A0
:1045B0007B7402124813E9640170131264D5E9F5A3
:1045C0000C750D00780C124A8012C6B5806A7932DB
:1045D0001264CFAA0AAB0B125FCB8A0E8B0FA80E08
:1045E000A90FE849700302C689E82424F50EE439CE
:1045F000F50F850E8212CFA2700302C68912CF4E2C
:10460000650C7004A3E0650D707F750C08750D00D6
:10461000780C124A8012C6A912677B7402124813E2
:10462000E964017064850E82850F83E0FCA3E0FDE0
:1046300012C69C780C124A80740212485B12676999
:104640007402124813AA0AAB0BAC1AAD1B125E27F8
:10465000803EE0650C7004A3E0650D600302C5D3E5
:10466000750E08750F00780E124A8012C6A91267DF
:104670007B7402124813E96401600302C5D312C6B9
:10468000B512C69C750D0080AAAA0AAB0B125E2D4E
:10469000790174201248137F0602493FEC241AF571
:1046A00082E43DF583E0F50C22EA2412FCE43BFDB4
:1046B000EEFAEFFB2212CB74245B12CB62FCA3E078
:1046C000FD2274F212486D74F01247FD890BECFE66
:1046D000EDFF750A008A828B83A385820E85830F86
:1046E0008E828F83A385820C85830D90073212CA38
:1046F0005F70607401650B7055EE2402FAE43FFBB5
:1047000012640FE9F98E828F83A3A3A3A3A374027B
:10471000124A9B8E828F83A3A3A3A3E0F50A780A93
:10472000124A84E9F50A780A124A84850C82850DBA
:1047300083E0FD8E828F83E0FC850E82850F83E00F
:10474000FAA3E0FB7900125B51740412481379005C
:1047500002CA2D12CA4CF8A3E0F9850E82850F8398
:10476000E0687003A3E0696005790802CA2D12CAE7
:104770003F64017005790702CA2DE50B14603124EE
:10478000FE603714700302C81A14700302CA2214A0
:10479000700302C89F14700302C90614700302C993
:1047A0001314700302C95D14700302C9A802C90082
:1047B000EEFAEFFB1264F302C90D750C00750E10D2
:1047C000750F00780E124A80900732E0243BFAA35E
:1047D000E03400FB126769740212481312CC64883B
:1047E000828983E0640470047403802C900732E0B3
:1047F000241BF50EA3E03400F50F780E124A801248
:10480000CB8D1264817402124813126499E960031B
:10481000750C0812CB3774058079750C00750E1075
:10482000750F00780E124A80900732E0244BFAA3ED
:10483000E03400FB1267697402124813A81AA91B1E
:10484000880E890F780E124A80900732E0244B12AE
:10485000CB931264817402124813750E10750F0009
:10486000780E124A80900732E0243BFCA3E034002B
:10487000FD740212485B12677B7402124813E964EC
:1048800001701312649FE96005750C08800B12CB50
:10489000377406F08003750C04850C0A02CA2B12CB
:1048A000CA51640C705A900733E0C8245D12CA598B
:1048B000700F7A1B7B0012682F12CF8E245D12CAF4
:1048C0003212CF99603A750C10750D00780C124AAF
:1048D00080EEFCEFFD12676974021248131264D572
:1048E00012CB50245DF582E438F58312CB53241AA1
:1048F000F582E438F583E9F012CB37740D02C9A4D0
:10490000750A0702CA2BEEFAEFFB1264F9E9F50A01
:1049100002CA2B12CA51640E70E6900733E0C82415
:104920005F12CA59700F7A167B0012682F12CF8E51
:10493000245F12CA3212CB50245F12CF9E601775CB
:104940000C10750D00780C124A80EEFCEFFD12671A
:1049500069740212481312CB37740F804712CA5180
:10496000640F709C750E06750F00780E124A80ACAD
:104970000CAD0D12CB50245F12CB622410FAA3E0D1
:104980003400FB126769740212481312CC7154048C
:10499000700302CA1E12CB7DA3A3A3A3E05404603C
:1049A0007D12CF68F002CA2B900733E0C824611251
:1049B000CA59702A7A147B0012682F900732E024BB
:1049C00061F8A3E03400F988828983EAF0A3EBF070
:1049D0008882898312CA5F7005750A08804D12CBE0
:1049E00050246112CF9E6036750C10750D00780C46
:1049F000124A80EEFCEFFD1267697402124813122E
:104A0000CB502461F582E438F58312CB532410F5A2
:104A100082E438F58374FFF0A3F0A3F0A3F07900EB
:104A200080068E828F83E0F91264CFA90A74100287
:104A3000C694F582E43AF583E50CF0A3EBF02290FE
:104A40000732E0F8A3E0F5838882E02212CF78E015
:104A50002290073312CB49E022F582E438F583E057
:104A6000F8A3E0F9E8492274F612486D7E0012645A
:104A7000A5E9F8600302CB25126493900732E0F8B1
:104A8000A312CF6EC8241212CB62A2E0501312CB35
:104A90007DE054036401700912CB5012CB60D2E068
:104AA000F012CB57F8740268601D740368600574D7
:104AB00004687017790112CFB4125B5712CB6A12D7
:104AC000CB377404F08069790280EB74016860056B
:104AD000740568705B12CB377402F012CB57640117
:104AE000700E7C107D00790012CB9D1267818022B0
:104AF000750A108E0B780A124A8012CB37A3A3A333
:104B0000A3E0240212CB93126769740212481312B5
:104B1000CB6A7910900732E0242BFAA3E03400FB33
:104B2000126409800B74186870047E0380027E088A
:104B3000EEF97F0202493F12CB3B2290073212CBA3
:104B40004222E0F8A312CB4922E0F5838882A32217
:104B500090073212CB772212CB74241A12CB622226
:104B60002417F582E438F583E02212CB7412CB606F
:104B7000D2E2F022900732E0F8A3E0C82212CB7410
:104B80002418F582E438F58312CB3EA32290073235
:104B9000E0242BFCA3E03400FD12CB9D22900732D1
:104BA000E02407FAA3E03400FB2274F612486DEA11
:104BB000FCEBFD12CF99700302CC5112CF5D640D56
:104BC000600302CC518C828D83E0F8A3E0F912CC13
:104BD00056E8F0A3E9F0750A08750B00780A124A46
:104BE00080EC2402FC50010DEA2412FA50010B1251
:104BF0006769740212481312CC71FB12CC64EB5437
:104C0000026025900732E0FCA3E0CC2418F582E492
:104C10003CF58312CF53A3A3A3A3A3E054026008DF
:104C200088828983740E801DEB5404601B12CF7E32
:104C3000F5838A82A3A3A3A3A3A3E05404600988F5
:104C40008289837410F0800579001264CF79008026
:104C500002790702CB3212CC5A22EA2410F582E400
:104C60003BF58322900732E02401F8A3E03400F9F9
:104C70002212CFBDA3A312CB772413F582E438F51B
:104C800083A3E02274F012486D12CA3F600302CF82
:104C90004990073312CF6EF912CF7EFB9007321284
:104CA000CF53E0F50EEA2405FEE43BFFE82413F5BC
:104CB00010E439F5117406650E7067851082851150
:104CC00083E0F8A2E0500E8E828F83E0A2E05005D0
:104CD000750E078067E8540260178E828F83E05458
:104CE00002600E750E09125ABB12CFAC1264B78067
:104CF00020E85404700302CE7A8E828F83E054043D
:104D0000700302CE7A750E0B125A9D12CFAC12644C
:104D1000C37407650E600302CE2B12CB37740802F2
:104D2000CEC7E50E24F9601414700302CDD31460CD
:104D3000B514700302CDFD1460CE80D512CF62127F
:104D4000CA59701A7A1B7B0012682F8A0A12CF90F8
:104D5000245BF582E43AF583E50AF0A3EBF012CF89
:104D60006212CB62F50AA3E0F50BE50A450B60A1E0
:104D7000E50A241AF50CE4350BF50D1264D5E98526
:104D80000C82850D83F07C107D007900AA0AAB0BA4
:104D9000126781850C82850D83E0F9600CC3941144
:104DA0005007AA0AAB0B126409126787E50A2410A0
:104DB000F582E4350BF583EAF0A3EBF07908E50A18
:104DC0002412FAE4350BFB12640912CFB01264AB63
:104DD00002CD1112CF6212CF9E6056EA2412F50A5C
:104DE000E43BF50B780A124A8012CF4EFCA3E0FD9B
:104DF00012CFB41264B174021248138034750B01DF
:104E0000125AAFE9F50A7401650A7005750B008046
:104E100003750A00A90B125AB58A0C8B0DAC0CADA8
:104E20000DA90A12CFB41264BD80347408650E70E7
:104E30001B851082851183E0540260238E828F834C
:104E4000E05402601A12CB377409807B7409650E36
:104E5000700712CB37740A806E740A650E701B855A
:104E60001082851183E0540460108E828F83E05499
:104E700004600712CB37740B804D85108285118337
:104E8000A3E0F9540160118E828F83A3E054016086
:104E90000712CB37740C802FE9540260118E828F79
:104EA00083A3E05402600712CB37740E8019E954D3
:104EB00004600F8E828F83A3E05404600512CF68D4
:104EC000800512CB377412F012CF5DF8740768605A
:104ED00014740868600F740968600A740A686005D1
:104EE000740B68706412CFB4125FCB8A0A8B0BA864
:104EF0000AA90BE8496030E8240CF582E439F5830F
:104F0000E0F8A3E0F9880E890FE4F510F511E9C384
:104F100013F9E813F8880A890BE4F50CF50D780EFF
:104F2000790A12463A800C750EF4750F017510005F
:104F3000751100780E124A7C7A027B00900738E0E7
:104F4000F91268CB74041248137F0802493F12CC4F
:104F50005AE022E0FCA3E0F5838C82A32212CB3B33
:104F6000E02212CB74245B2212CB3B74102212CFAE
:104F700078A3A3E0F8A3E02212CB49A3A32212CF87
:104F8000902418F582E43AF583E0FAA3E0228A0C33
:104F9000900732E0FAA3E0CA2212CB74245DF582B6
:104FA000E438F583E0FAA3E0FBEA4B228A0A8B0B94
:104FB000AC0AAD0B12CFBDE0FAA3E0FB22900732A2
:104FC00012CB42A3A32274EE12486D8A0A8B0B897E
:104FD0000D8C108D1190073BE0700990073DE0703B
:104FE0000302D093900307E0600302D093890E750B
:104FF0000F00E92407FAE43400FB12678D8A128B54
:1050000013AE12AF13EE4F700302D0A47418650AEA
:1050100070047420650B600C7417650A70047420AA
:10502000650B701090073DE0600AF50C8E828F834F
:105030007492800C90073BE0F50C8E828F83749104
:10504000F0A3740E12D8F4740112D8FCE50AF0A390
:10505000E50BF0EE2405F8E43FF9E8FAE9FBEE246D
:1050600007F8E43FF98A828B83E8F0A3E9F0780E31
:10507000124A80AC10AD118A828B83E0FAA3E0FB68
:105080001267697402124813EEFAEFFBA90C12675B
:105090009980117810124A80AC0D790E125E6974F5
:1050A000021248137F0A02493F74F512486D890CB9
:1050B000EAFEEBFF90073BE06039900307E07033B6
:1050C0007A067B0012678DEA4B60358A828B837487
:1050D00091F0A3740F12D298A3A3E50C12D65E74BC
:1050E0000112D66DEEF0A3EFF090073BE0F91267E6
:1050F00099800DEEFCEFFDAA0C7B00790F125E6328
:105100007F0302493F12D9CA12D112740412D1127C
:10511000A32212D11622F088828983E0FCA3E0F555
:10512000838C822274F712486D74FC1247FDEA8565
:105130001A82851B83F074011248497401F07402CD
:10514000124849ECF07403124849EDF0AC1AAD1B5B
:105150007A04125E6F74041248137F0102493F748F
:10516000F212486D890B8A0C8B0D8C0A74072CFA8D
:1051700074FF650B6004780380027802E82AFA7BEA
:105180000012678D8A0E8B0FAE0EAF0FEE4F7003BD
:1051900002D27D8E828F837401F0A374FFF0EE241F
:1051A00002FAE43FFBEE2404F8E43F12D326E50BB9
:1051B00012D298E02402F8A3E03400F9890FE50D3B
:1051C000F9740E12484912D56F74FF650B602E7486
:1051D00003250A8882850F8312D31FA3740112D27C
:1051E000A2E50C12D2A2A3E9F0850A0C750D007895
:1051F0000C124A808A828B83E02406806674022522
:105200000A8882850F83F08C828D83E0C0E08A82D9
:105210008B8312D282D0E0F08C828D83A3E0C0E039
:1052200012D28DD0E0F08C828D83A3A3E0C0E01277
:10523000D28DA3D0E012D29112D562E50C12D29198
:1052400012D566E9F0E50A24FDF50CE434FFF50D0E
:10525000780C124A80EC2403FC50010D8A828B8367
:10526000E02408FAA3E03400FB12676974021248D4
:1052700013EEFAEFFB900739E0F91267997F060207
:10528000493F12D2862212D768A3A3A32212D2A723
:105290002212D29812D7502212D29C22F08A828BEC
:1052A0008322F012D2A7228A828B8312D286A32273
:1052B00074F212486D890C8A0DECFEEDFF74072A1A
:1052C000FA7B0012678D8A0A8B0BEA450B604D1240
:1052D000D5B6E4350B0A0AFBE50A2404F8E4350BDD
:1052E00012D326E50C12D31FE50DF06023F50E75E1
:1052F0000F00780E124A80EEFCEFFD8A828B83E06D
:105300002403FAA3E03400FB126769740212481305
:10531000AA0AAB0B900739E0F912679902D27D1205
:10532000D29812D5A922F98A828B83E8F0A3E912D8
:10533000D75D740412D75DA3227F1002493F74E841
:1053400012486D8919EAFEEBFF8C188D15741A123C
:105350004849E0F50EA3E0F50F741C124849E0F54A
:105360000AA3E0F50B741E124849E0F50CA3E0F522
:105370000D7420124849E0F51490073BE0700302D9
:10538000D4447A157B0012678D8A108B11EA45117F
:10539000700302D55F12D5757401F0EA2408FAE4AF
:1053A0003511FBE5102403F582E43511F583E51989
:1053B000701EE4F0751206F5137812124A80741A02
:1053C00012484912D56F1267697402124813800C93
:1053D0007431F07C067D007900126781851082852A
:1053E0001183A3A3A3A3EEF0A3EF12D589E51812AE
:1053F000D589A3E515F0E510240EF582E43511F505
:1054000083E50EF0A3E50FF0E5102410F582E435F6
:1054100011F583E50AF0A3E50BF0E5102412F582FF
:10542000E43511F583E50CF0A3E50DF0E510241447
:10543000F582E43511F583E514F0AA10AB1190075D
:105440003B02D55A900313E0A2E5500890030BE00D
:10545000A2E0400302D55F7A1A7B0012678D8A12A0
:105460008B13EA4513700302D55F12D5B6F510E42D
:105470003513F511EA2404F8E43513F98510828513
:105480001183E8F0A3E912D593740412D593A374A1
:105490003E12D59A741312D59AA3740112D5AFE5B2
:1054A0001912D5AFA3EE12D5C912D562EF12D5C924
:1054B00012D566E51812D5C912D73DE515F0751657
:1054C000067517007816124A80741A12484912D5C8
:1054D0006F851082851183E02409FAA3E03400FB74
:1054E000126769740212481312D746240FF582E43A
:1054F00038F583E50EF0E50FF50E12D7462410F5CA
:1055000082E438F583E50E12D5C92411F582E4381A
:10551000F583E50AF0E50BF50A12D7462412F58269
:10552000E438F583E50A12D5C92413F582E438F589
:1055300083E50CF0E50DF50C12D7462414F582E452
:1055400038F583E50C12D5C92415F582E438F583C6
:10555000E514F0AA12AB13900739E0F9126799022B
:10556000D33912D655222407F582E438F58322E098
:10557000FCA3E0FD228A828B83749112D57F22F0F6
:10558000A3743E12D29CA3A32212D5A1A3A3A3A3CA
:10559000A3A32212D5A112D7602212D5A112D5A998
:1055A00022F08510828511832212D764A3A32212D0
:1055B000D5A112D2AB2212D5BA228A828B83740172
:1055C000F0A374FFF0EA24022212D5A112D75022D0
:1055D00074F412486DEAFEEBFF890A90073BE06025
:1055E0002E7A067B0012678DEA4B605F8A828B837E
:1055F0007491F0A3740512D298A3A3E412D65EEEC0
:10560000F0A3EF12D66DA3E50AF090073B80379028
:10561000030CE0A2E450347A0B7B0012678DEA4B56
:10562000602912D105740512D672740412D672A3C1
:10563000E412D67CEE12D67CA3EF12D8EE12D64E30
:10564000E50AF0900739E0F912679902D95512D7A7
:105650005012D655222406F582E438F5832212D65C
:10566000622212D6662212D29CA3A3A32212D66271
:10567000A32212D6762212D116A3A32212D676A383
:10568000A32274F412486D890AEAFEEBFF8C0B909A
:10569000030DE0A2E3400302D73A7A0F7B001267C2
:1056A0008DEA4B700302D73A12D5B6F50CE43BF500
:1056B0000DEA2404F8E43BF9850C82850D83E8F0BB
:1056C000A3E912D756740412D756A3740C12D771DB
:1056D000740812D771A3E50A12D778EE12D778A30F
:1056E000EF12D78712D562E50BF0740C12484912FD
:1056F000D56F850C82850D8312D74C12D566EC12BE
:10570000D78712D73DEDF0740E124849E0F8A3E0B8
:10571000F9850C82850D83E0FCA3E0CC2409F58299
:10572000E43CF583E812D787240AF582E438F58350
:10573000E9F0900739E0F912679902D9552408F584
:1057400082E438F5832285108285118312D7502296
:10575000E0F8A3E0C82212D77F12D7602212D29CB1
:1057600012D7642212D76822E0F8A3E0F58388827A
:105770002212D77F12D5A92212D77F12D2AB22F0E4
:10578000850C82850D832212D77F12D7502274ECAC
:1057900012486D8A0E8B0F8C108D117414124849AB
:1057A000E0F50CA3E0F50D850C82F583A38582124C
:1057B00085831390073DE060777A0F7B0012678D39
:1057C0008A0A8B0BAE0AAF0BEE4F700302D8E98E3C
:1057D000828F837492F0A3743E12D8F4740512D8A9
:1057E000FCE50EF0A3E50FF0750A08750B00780ACA
:1057F000124A80AC10AD11EE2405FAE43FFB1267AB
:10580000697402124813850C82850D83E0FA8512B3
:1058100082851383E0F9EAF8EE240DF582E43FF582
:1058200083E8F0A3E9F0EEFAEFFB90073D02D8E43D
:10583000900313E0A2E5500890030BE0A2E44006B9
:1058400012608502D8E97A147B0012678D8A0A8B70
:105850000BEA450B700302D8E912D5B6F8E4350B14
:10586000F9EA2404FAE4350BFB88828983EAF0A381
:10587000EB12D8EEE0FEA3E0FF8E828F837404F07B
:10588000A3743EF0A3740DF0A37405F0A3E50EF02D
:10589000A3E50FF0A3AE82AF83750E08750F0078F5
:1058A0000E124A80AC10AD11EEFAEFFB126769746C
:1058B00002124813EE2408FE50010F850C82850D5C
:1058C00083E08E828F83F085120C85130DA30EAFBB
:1058D00083850C82850D83E08E828F83F0AA0AABCC
:1058E0000B900739E0F91267997F0C02493FF08865
:1058F00082898322F08E828F83A3A32212D8F4A3FD
:105900002274F412486DEAFEEBFF890A8C0B9007B3
:105910003DE060167A077B0012678DEA4B60361215
:10592000D9E1E50BF090073D802690030CE0A2E75B
:1059300050237A0B7B0012678DEA4B601812D9B6A0
:105940007408F0A3740412D9AAA3E50BF0900739E8
:10595000E0F91267997F0402493F74F412486DEA36
:10596000FEEBFF890A90073DE060167A077B001284
:10597000678DEA4B603212D9E17401F090073D80E7
:1059800022900311E0A2E7501F7A0A7B0012678D74
:10599000EA4B601412D9B67430F0A3740312D9AA7A
:1059A000900739E0F912679980ABF0A3E50AF0A3FC
:1059B000EEF0A3EFF02212D9CA12D8EEE0F8A3E07D
:1059C000F9888289837404F0A32212D5BAF8E43BE3
:1059D000F9EA2404FCE43BFD88828983ECF0A3ED22
:1059E000228A828B83749212D57F740812D662EE5B
:1059F000F0A3EF12D9FDE50A12D9FDA32212D66653
:105A0000A3A32274F712486D74FF29F804C313FE90
:105A10006032EA28FCE43BFDEAF8EBF9EEFF88820D
:105A20008983E0FA8C828D83E088828983F0EA8C16
:105A3000828D8312E35FA882A983EC24FFED34FFFB
:105A40001CFDDFDA80031261FF7F0102493FC08243
:105A5000C08390618FE0F902DB7B74F412486D899A
:105A60000AE97005791202DB1C90619AE0643F70CC
:105A7000047E0180027E00906186E0FF53B4F390C3
:105A8000619A743FF0A3745AF09061A0E4F09061C1
:105A900084F0E5E170FC75E102750B009061BFE0F8
:105AA0007009050BE50BC394FA40F174FA650B60BD
:105AB00029750B00E0F50CE0F50DF9E50CF84960EF
:105AC0000A74036870037480697009050BE50BC3E1
:105AD00094FA40E074FA650B7004791F803EEAF88E
:105AE000EBF9850A0B9061BF12DB2112DB21E5BCCB
:105AF00088828983F0A3A882A983150BE50B70E542
:105B0000E5E170FC75E101850DBC850CBC1260CD32
:105B1000EEF91260E5EF906186F079007F040249AA
:105B20003FE0F5BDE0F5BDE0F5BDE0F5BD22C0828A
:105B3000C0837840790512DB5C64487003E9640532
:105B400070F402DB7BC082C0837848790512DB5C8D
:105B5000644C7003E9640570F402DB7B88828983FE
:105B6000E08A828B83F088828983A3A882A9838AB2
:105B7000828B83A3AA82AB83E822F0D083D08202F7
:105B800044A774F712486DECFEEDFF12620B750A24
:105B900010780A124A84EEFCEFFD7910740A12485C
:105BA00049E0FAA3E0FB1261F9740112481379008D
:105BB00002DA46C082C08390080C7470F0A374B1FE
:105BC000F0A3E0541FF0900810741DF0A37442F08D
:105BD000A37470F0A374B2F0900816E0541FF09014
:105BE0000818741EF0A3741202DB7AC082C083EA24
:105BF0006C7002EB6D603612DC30F0ED900802F054
